:100000000C94EF020C9489280C9427030C9427037A
:100010000C9427030C9427030C9427030C942703B8
:100020000C9427030C9427030C94C7140C94091404
:100030000C9480220C9427030C9427030C94270320
:100040000C9427030C9427030C9427030C94270388
:100050000C9427030C949E150C9427030C942703EF
:100060000C9427030C9427030C9427030C94270368
:100070000C9427030C9427030C9427030C94270358
:100080000C9427030C9427030C9427030C94270348
:100090000C9427030C9427030C9427030C94270338
:1000A0000C9427030C9427030C9427038E05020657
:1000B0009605600564059A0567059D05A805720506
:1000C000F8057605AC057A05B005DA057E05B405B8
:1000D000E4058405BA05C4056B05A1056E05A405F4
:1000E0008905BF05D005F005F2055C0592050B06F4
:1000F0003106370625062B063D06430649063C0712
:100100003C076E076E07E0071D091D091D09FE0764
:100110008C089D089D084D09740979097E09830999
:1001200088098D09920997099C09A109A809AA09BA
:10013000AD09B009B309B609B909BB09BE09C209BD
:1001400028124F12E7134F12E7139712BA12E71350
:10015000A913BC133A003B00167C1E001F002000B0
:100160002100220023003C003D002B0014001A0057
:1001700008001500170000003E003F003900040091
:100180001600070009000A00000040004100E100DD
:1001900000001D001B00060019000500420043007E
:1001A000E000E200E300215200002C0000002400E7
:1001B0002500260027002D002E004C002A004A00B2
:1001C0001C0018000C00120013002F00300031003A
:1001D0004D000B000D000E000F0033003400000036
:1001E00028004B00110010003600370038000000D6
:1001F000E50052004E0021522C00E600E400E7002A
:100200000000500051004F0001000100167C3A0030
:100210003B003C003D003E003F0001000100207813
:1002200021780100520001000100000001000100DE
:1002300001000100500051004F00010000000100CA
:1002400001000100000001000100010001000100A7
:100250000100010035020100010001000000010061
:1002600000004000410042004300440045004C00B3
:100270002A0001000100010001000100010001004D
:100280000100010001000100010001000100010066
:100290000100000001000100010001000100010057
:1002A0000100000001000100010001000100010047
:1002B00001000100000001000100010005010980AA
:1002C000A101850319012AB700150126B700950180
:1002D00075108100C0050C0901A101850419012ACE
:1002E000A002150126A002950175108100C005012C
:1002F0000906A101050719E029E715002501950860
:10030000750181029501750881010507190029FF12
:10031000150026FF009506750881000508190129BA
:1003200005950575019102950175039101C00902BA
:100330003B00020100A0FA090400000103010100D2
:100340000921110100012240000705810308000175
:10035000090401000103000000092111010001222C
:100360003200070582032000011201000200000094
:100370000810CB573310030102000122035100750E
:100380000065006600720065006E00630079002061
:10039000005200650076002E002000330000000EA1
:1003A000034B0065006500620069006F00000004F7
:1003B0000309041E0F0500047F3F1F6432146432DA
:1003C00014783C1E1E140A052223252628292A2CCF
:1003D0002D2F3032333536383A3B3D3E404243458F
:1003E00047494A4C4E5051535557595A5C5E6062CA
:1003F000646668696B6D6F71737577797B7D7F81DA
:10040000838587898A8C8E90929496989A9C9E9FD9
:10041000A1A3A5A7A8AAACAEAFB1B3B4B6B8B9BBF7
:10042000BCBEBFC1C2C3C5C6C7C9CACBCCCDCED066
:10043000D1D2D2D3D4D5D6D7D7D8D9D9DADADBDB53
:10044000DBDCDCDCDCDCDDDDDDDDDCDCDCDCDCDBEA
:10045000DBDBDADAD9D9D8D7D7D6D5D4D3D2D2D133
:10046000D0CECDCCCBCAC9C7C6C5C3C2C1BFBEBC26
:10047000BBB9B8B6B4B3B1AFAEACAAA8A7A5A3A197
:100480009F9E9C9A98969492908E8C8A8987858359
:10049000817F7D7B79777573716F6D6B6968666439
:1004A00062605E5C5A5957555351504E4C4A494709
:1004B000454342403E3D3B3A3836353332302F2DAE
:1004C0002C2A2928262523220001010101010101EE
:1004D00001010202020202020202020303030303F9
:1004E00003030304040404040404050505050506C8
:1004F0000606060607070707070808080809090986
:10050000090A0A0A0B0B0B0C0C0C0D0D0D0E0E0E2E
:100510000F0F0F10101111111212131314141515BF
:1005200016161717181819191A1A1B1B1C1D1D1E31
:100530001E1F202021222223242425262627282985
:10054000292A2B2C2D2D2E2F3031323233343536B3
:100550003738393A3B3C3D3E3F40414243444546B3
:100560004748494A4C4D4E4F50515354555658598F
:100570005A5B5D5E5F616264656668696B6C6D6F36
:100580007072737577787A7B7D7E808283858788A9
:100590008A8C8E8F91939596989A9C9EA0A2A3A5E3
:1005A000A7A9ABADAFB1B3B5B7BABCBEC0C2C4C6E4
:1005B000C9CBCDCFD1D4D6D8DBDDDFE2E4E7E9EBA0
:1005C000EEF0F3F5F8FAFDFFFFAA7F5540010203B4
:1005D0000C0D0E0F00070605040B0A090800112474
:1005E0001FBECFEFDAE0DEBFCDBF04B603FE18C0FA
:1005F0008091D2039091D303A091D403B091D503FD
:100600008730904BA740B04B59F41092D203109210
:10061000D3031092D4031092D503E0E0F8E30995D8
:1006200011E0A0E0B1E0EAE5F7E502C005900D9227
:10063000AE3EB107D9F723E0AEEEB1E001C01D92A6
:10064000A23DB207E1F70E943D160C94AB2B0C942F
:100650000000A6E0B0E0EFE2F3E00C94B929498392
:100660005A8349815A81992361F0222351F0CA01AA
:100670000E94451C182F682F89819A810E94631E51
:1006800004C0CA010E94301E182F69817A81812F0F
:100690000E94DE0C2696E3E00C94D5290E94F11E00
:1006A0002FEF84E39CE0215080409040E1F700C0B0
:1006B00000009CE088E10FB6F894A8958093600054
:1006C0000FBE90936000FFCF882381F19CEF980FBD
:1006D000913A60F4EAEAF2E09281891301C0128251
:1006E000319692E0E03BF907B9F70DC090E2980F20
:1006F000983060F4877091E001C0990F8A95EAF70D
:10070000892F0E949F1B0E94A61B08959BE5980FAE
:10071000933028F480E090E00E94E8220895885AFF
:100720008B3120F480E090E00E94C3220895CF93A3
:10073000882309F44FC0C82F8CEF8C0F813AF0F456
:10074000ECEAF2E082EB92E02191C21721F08E17E1
:100750009F07D1F70DC0EAEAF2E08281C81301C019
:100760001282319682E0E03BF807B9F70E94A61B9F
:100770006C2F8AEA92E00E94A92210C080E28C0FBE
:10078000883078F4C77081E090E001C0880FCA9586
:10079000EAF790912E03892B80932E030E94A61BCB
:1007A00019C0EBE5EC0FE33040F4F0E0E958FE4F00
:1007B000808190E00E94E8220DC0C85ACB3150F4ED
:1007C000EC2FF0E0EE0FFF1FE658FE4F8081918185
:1007D0000E94C322CF910895ABE1B0E0E2EFF3E0D5
:1007E0000C94B8294E8B5F8B688F798F8A8F9B8F83
:1007F000192F911110922D03DE011F9687E0FD0144
:1008000011928A95E9F786E0FE01769601900D92A5
:100810008A95E1F70A8D002341F021E04F85588940
:1008200069897A89C8010E9429030B8B1C8B87E098
:10083000FE013F96DE01189601900D928A95E1F730
:10084000CE0108960E94A91C81112CC087E0FE01F0
:100850003896DE01119601900D928A95E1F76C852C
:10086000662301F12091E90230E0C9010196877009
:1008700099274091220350E08417950761F16D8319
:1008800097E0929FD001939FB00D1124A651BD4FC8
:10089000FE01319601900D929A95E1F78093E9025D
:1008A0000E94E21B17E0809122039091E9028917D0
:1008B000F9F0189FC001112486519D4F0E94A91C78
:1008C0008823B1F08091220390E0019687709927E8
:1008D00080932203E8CF0E94F11E1092E902109249
:1008E0002203E2EEF2E087E0DF011D928A95E9F74C
:1008F0006B96E4E00C94D42990914B01992329F054
:1009000081FD02C02E9A08952E980895811106C087
:10091000662311F08EE409C08BE407C0813039F4FE
:10092000662311F089EA01C08AEA0E94181F80E05C
:100930000895A0E0B0E0EFE9F4E00C94B329FC01E5
:100940008481882309F437C57F0121E040815181EA
:100950006281738195810E942903EC01F7018581F1
:10096000882309F482C0C230F8E7DF0709F46DC0BC
:1009700058F4C11598E7D90791F0C130E8E7DE07D0
:1009800009F073C080E00CC0C430F8E7DF0709F459
:1009900043C048F0C53098E7D907A9F066C083E0A6
:1009A0000E94492494C18091C703982F96959695EB
:1009B000969561F1915E990F990F990F8770892B28
:1009C0008093C70317C08091C703282F26952695CB
:1009D00026952F5F2F71922F990F990F990F87707E
:1009E000892B8093C703243018F087708093C70346
:1009F0008091C703887F91E009F490E08091C7035C
:100A000090FB80F98093C7030E9443248091C70321
:100A100086958695869523C02091C703822F86955B
:100A200086958695482F50E04330510554F48F5FEA
:100A3000982F990F990F990F822F8770892B809388
:100A4000C7038091C7038160DDCF8091C70380FF1A
:100A500009C08E7F8093C7030E94432480E00E94D8
:100A60009E2335C10E94672432C1FE01E851FC4734
:100A7000E730F10508F4E5C0882309F49CC1109221
:100A8000CA03CE019057839708F00CC184E090E030
:100A90000E944B2A9093730280937202FE01E150F0
:100AA000F047E232F10520F4EA5AFF4F0C943C2B58
:100AB000809172028160ACC0809173028860B4C082
:100AC000809172028260A4C08091720220C08091E5
:100AD000720288609DC0809173021EC08091730273
:100AE0008260A2C080917202806192C08091720285
:100AF00080628EC08091720280648AC00E94F11E62
:100B000080917202806884C08091720288608460E3
:100B10007FC0809173028260816086C08091720282
:100B20008E7F76C080917302877F7EC08091720233
:100B30008D7F6EC08091720220C080917202877F8B
:100B400067C0809173021EC0809173028D7F6CC05C
:100B5000809172028F7E5CC0809172028F7D58C03E
:100B6000809172028F7B54C00E94F11E80917202AC
:100B70008F774EC080917202877F8B7F49C08091B2
:100B800073028D7F8E7F50C08091720282FB22277C
:100B900020F991E0922790FB82F990FB83F938C00D
:100BA00080917302982F909591708E7F892B90FB86
:100BB00081F93AC08091720286FB222720F991E0E8
:100BC000922790FB86F924C00E94F11E8091720248
:100BD00087FB222720F991E0922790FB87F918C024
:100BE00061E001C060E08EE090E00E94612A1EC0DA
:100BF0008091720284FB222720F991E0922790FBDA
:100C000084F906C080917202982F909590FB80F92C
:100C1000809372020BC08091730283FB222720F91C
:100C200091E0922790FB83F98093730260917202A6
:100C30007091730284E090E00E947F2A0E94F11E6E
:100C400046C0E858FF4F0C943C2B06E221EE41EEE3
:100C50006AE17CE723C007E225EE45EE6BE17CE725
:100C60001DC006E221EE40EE68E17CE717C007E216
:100C700025EE44EE69E17CE711C006E221EE42EE8A
:100C80006CE17CE70BC007E225EE46EE6DE17CE708
:100C900005C008E221E045EE6EE17CE7C7010E9455
:100CA0001E2315C0C631FCE7DF0719F580912E031E
:100CB0008A7A91E009F490E09093F0018111E7C203
:100CC00069E28AEA92E00E94A9220E94A61B809112
:100CD0002303877009F46FC3F7018581882309F422
:100CE0006AC38091730282FF66C382E00E94AE1ED7
:100CF00062C3C330ECE7DE0709F449C048F4C1150C
:100D00002CE7D207A9F0C130DC4709F446C062C025
:100D1000CB359CE7D90709F44AC0CC35ECE7DE07B0
:100D200009F43DC0CA35DC4709F054C081E040C039
:100D30000E94F11E2FEF84E39CE021508040904000
:100D4000E1F700C0000081E08093E00080E2809342
:100D5000D8001092C900EFE1FEE43197F1F700C02E
:100D6000000087E090EBDC018093D2039093D303E3
:100D7000A093D403B093D5039CE088E10FB6F89418
:100D8000A895809360000FBE90936000FFCF6FEF37
:100D90007FEF80E090E00E947F2A0E944E038091C6
:100DA000730282FB882780F991E0892701C080E0E7
:100DB0000E94C51E0FC0C6312CE7D20709F4E7C256
:100DC00080912E038272FE01E052F847E531F10571
:100DD00008F45FC2F7018581C081D181882349F081
:100DE000CE010E94451C182F682FCE010E94631E61
:100DF00004C0CE010E94301E182FBE01812F0E9418
:100E0000DE0C0E94FB0CD82FC92FC82EF7011581CC
:100E1000068102950F70809123038770E9F01123FA
:100E2000D9F0892F807F803451F080E28D0F883097
:100E300098F0011104C0892F807E803269F0809182
:100E4000730282FF09C082E00E94AE1E80912303DC
:100E50008770DD24D3948111D12CBC2EB2948FE005
:100E6000B8228B2D90E08C30910508F0E6C1FC0192
:100E7000E158FF4F0C943C2B8C2F807FCF70882340
:100E800011F0C295C07F1123B9F0CC2309F4C3C17E
:100E900080E28D0F883010F0C11006C090912E03B3
:100EA000C92BC0932E0305C090912D03C92BC0936D
:100EB0002D030E94A61BAFC18D2F0E946403CC237B
:100EC00009F4BBC1D05ED83088F1CC2079F1C0954F
:100ED00090912D03C923C0932D032BC08C2F807FAD
:100EE000CF70803211F0C295C07F8D2FCC2029F0B9
:100EF000F1E0CF1609F44CC055C08091730282FD19
:100F00001BC0112369F0CC2339F090912E03C92B1B
:100F1000C0932E030E94A61B80E00E9497038DC100
:100F200080E00E946403CC2309F487C18C2F0E94C7
:100F30009F1B0E94A61B81C1112381F00023B1F1E8
:100F4000013009F07AC190912C038C2F8923C817A6
:100F500009F473C1C92BC0932C036FC101116DC17A
:100F60008C2F0E94071F80912C039C2F982329F01F
:100F70009C2F9095892380932C038091F1019C2FC5
:100F8000982309F45AC1C0958C238093F10155C16F
:100F9000112321F0063008F050C108C0053008F0D8
:100FA0004CC10AC0112331F0011135C18C2F0E94B0
:100FB0000E1F43C1011133C18C2F0E94071F3DC179
:100FC0008C2F86958695837019F0813061F035C13C
:100FD000112321F08D2F9C2F937002C080E090E0B0
:100FE0000E94E82232C1112321F08D2F9C2F937093
:100FF00002C080E090E00E94C32227C18C2F837042
:1010000009F041C011111DC12D2F22952695277081
:10101000220F220F8D2F8F7090E0022E02C0880FBA
:10102000991F0A94E2F7D4FF0BC04FE050E002C0D2
:10103000440F551F2A95E2F79A012095309502C07A
:1010400020E030E0C695C695C370C23099F068F4D0
:1010500040912F0350913003C13029F0822B932B04
:101060008423952304C0842B952B822B932B0E94E1
:10107000EC1EE7C0822B932B20912F03309130037D
:1010800082279327F4CF112319F08C2F817001C090
:101090008695882309F4D5C02D2F22952695277093
:1010A000220F220F8D2F8F7090E0022E02C0880F2A
:1010B000991F0A94E2F7D4FF0BC04FE050E002C042
:1010C000440F551F2A95E2F79A012095309502C0EA
:1010D00020E030E0C695C695C370C23079F0B8F410
:1010E0004091700250917102C13029F0822B932BF4
:1010F000842395230EC0842B952B09C0822B932B20
:1011000020917002309171028227932702C0822BB6
:10111000932B0E94971E95C0CF70112339F08C2F0E
:101120000E94DC1E8D2F0E940E1F8BC08D2F0E94EF
:10113000071F8C2F0E949C1E84C08D2FE2EFCE16BD
:1011400089F1EC1538F0F0EFCF1659F021EFC21607
:1011500021F15DC093EFC91661F1E4EFCE16C9F03D
:1011600056C0112391F0053008F067C0CF7181E0BF
:1011700090E002C0880F991FCA95E2F72091700293
:10118000309171028227932721C0063008F055C0A4
:10119000EDCF8091730282FD1CC0112329F08C2FAA
:1011A0008F7129C01123D9F38C2F8F710E949C1E3F
:1011B00044C0112349F0CF7181E090E002C0880F54
:1011C000991FCA95E2F702C080E090E00E94971E46
:1011D00034C0112399F0CF718C2F0E94DC1E8091B6
:1011E000730282FF07C0F8E0CF9FC0011124836023
:1011F000809323038C2F0E94DC1E1FC081E00E947D
:10120000AE1E0230D0F082E00E94AE1E16C0112346
:1012100021F0002321F28D2F80CE002329F2893383
:1012200049F42FEF87EE93E0215080409040E1F7A2
:1012300000C000008D2F0E94640388EF8B0D843066
:1012400020F40E940D230E947C04DD20A9F08091EF
:10125000230380FD11C0F70115828695869586953A
:101260000E94DC1EC7010E94990480912303869589
:10127000869586950E949C1E20E0F7014081518151
:1012800062817381848195810E94290394C065E302
:1012900018CDE557FF4F0C943C2B8091BF0380FF86
:1012A0001EC0282F2E7F2093BF033091C003409192
:1012B000C1035091C2036091C3037091C403809134
:1012C000C5039091C6030E949F250E94C824809167
:1012D0003B03816080933B030E94EA24F8CC816049
:1012E0008093BF0386954BC04BED57E265EE77E2E6
:1012F0002CC045EE57E26BED77E227C04BE757E293
:1013000065E877E222C045E857E26BE777E21DC067
:1013100041E657E26EE677E218C04EE657E261E634
:1013200077E213C047E457E264E577E20EC044E594
:1013300057E267E477E209C045EC55E26FED75E2EC
:1013400004C04FED55E265EC75E20E94C124BFCCAC
:1013500081E015C065E082E017C068E086E014C057
:101360006EE089E011C064E18FE00EC067E185E1C5
:101370000BC088E104C062E289E106C083E20E94FA
:10138000D727A5CC6AE285E20E94AE24A0CC80914A
:10139000F00181110EC089E2EAEAF2E020EB32E0CE
:1013A0009281891301C0128231962E173F07C1F72F
:1013B0008CCC85E3F1CFCDB7DEB7E9E00C94CF2933
:1013C00080E008959091720292FF0DC0282F28713D
:1013D000283019F4877F846006C0282F24712430B8
:1013E00011F48B7F886093FF0DC0282F287128315E
:1013F00019F4877E846106C0282F2471243111F4EA
:101400008B7E88612091730220FF0DC0382F3871C8
:10141000383019F4877F816006C0382F3171313040
:1014200011F48E7F886021FF0DC0282F287128318C
:1014300019F4877E816106C0282F2171213111F4B2
:101440008E7E886194FD877E08958238910569F1CA
:10145000B0F48133910509F475C048F489329105DF
:1014600009F467C08A32910509F471C00895853383
:10147000910509F459C089339105B9F00895833E67
:10148000910589F138F4803E9105D1F0823E9105B5
:1014900029F10895863E9105C9F1873E9105D9F15C
:1014A000843E910509F06CC027C02091720220FD96
:1014B00057C021FD55C02091730223FD5BC00895E4
:1014C0008091720280FD48C08091730280FF48C005
:1014D0008091720284FD46C083EE51C080917202F9
:1014E00082FF3CC0F5CF8091720282FD37C08091AF
:1014F000730280FD35C0ECCF8091730281FF36C04E
:101500008091720284FD2EC087EE39C080917202F4
:1015100083FF2AC0F5CF8091720283FD25C08091A0
:10152000730281FD23C0ECCF8091720285FD22C041
:101530001FC08091720285FD1BC08091730283FFE2
:1015400019C00AC08091720286FD16C017C0809132
:10155000720286FD13C010C089E311C082EE0FC075
:1015600080EE0DC080E00BC086EE09C084EE07C09F
:1015700085E305C089E203C08AE201C081E390E00F
:101580000895A1E0B0E0E7ECFAE00C94AE29C62E95
:101590004A015901682E880F7708C3010E942F293C
:1015A000882309F473C0C30123E0880F991F2A958B
:1015B000E1F7FC01EC5FFE4F438150E0411551051E
:1015C00011F041E050E0FC01EC5FFE4F6481758159
:1015D000625D7D4FCE0101960E94A22BF4014081F5
:1015E0005181628173812FB7F89480911302909199
:1015F0001402A0911502B09116022FBF841B950B07
:10160000A60BB70B84369105A105B10538F4B701D7
:10161000C8010E94872399818917D1F10C2C000CF5
:10162000DD08C6010E942F29782E8823E1F0E114FD
:10163000F104C9F0960183E0220F331F8A95E1F788
:10164000F901EC5FFE4F438150E0E416F50608F423
:10165000A701F901EC5FFE4F64817581625D7D4FEA
:10166000C5010E94A22BB701C8010E94872391E007
:101670002981281390E0D92ED72089F00E94D31514
:10168000F401608371838283938309C0D12C02C0EB
:10169000DD24D394A701B801C5010E94A22B8D2D92
:1016A0002196EEE00C94CA29A1E0B0E0EAE5FBE067
:1016B0000C94B329EE24E394F12C0AE312E09E018A
:1016C0002F5F3F4F4BE052E063E082E00E94C10A8F
:1016D000B82E882309F43DC000E080E090915802C4
:1016E0000917A0F5D0905902D00E2D2D30E0A90198
:1016F0004F555D4F7A01E1E0F0E0EC0FFD1FE00F88
:10170000F11D1081FA019081191BC12E1C145CF48B
:10171000CA94F70180818F5F808360E08D2D0E94E5
:10172000860481E0F3CF912F17FD90E0191B112360
:1017300059F01F5FF70180818150808361E08D2D1A
:101740000E94860481E0F3CF0F5FC8CF81110E9411
:10175000181B8B2D2196E9E00C94CF29AAE0B0E06C
:10176000E4EBFBE00C94B4296B018AE0E82EF12C49
:101770000FE212E09E012F5F3F4F47E052E061E031
:1017800080E00E94C10A882349F09AE0FE01319668
:10179000ADEFB1E001900D929A95E1F79AE0EDEF8F
:1017A000F1E0D60101900D929A95E1F72A96E8E0D2
:1017B0000C94D029A0E0B0E0E0EEFBE00C94B0295E
:1017C000FB0180809180A280B3809FB7F894C09085
:1017D0001302D0901402E0901502F09016029FBF01
:1017E000C818D908EA08FB08F4E6CF16D104E104CA
:1017F000F10410F4442341F17B01C82F880FDD0B65
:1018000001151105A9F0FE0183E0EE0FFF1F8A9577
:10181000E1F7EC5FFE4F81819281825D9D4F4081B7
:1018200050E00417150708F4A801B9010E94A22B83
:10183000CE010E942F29882341F00E94D315F70181
:10184000608371838283938381E0CDB7DEB7ECE060
:101850000C94CC298091FC01811118C08091D80092
:1018600080618093D8008AE18A95F1F700C0809169
:10187000D90080FD02C082E001C081E08093FC01BC
:10188000823021F40E944D141092240281E0909144
:10189000FC01913009F080E00895F894E82FE2957A
:1018A000EF70F0E031A1282F2F7081E090E001C0AF
:1018B000880F2A95EAF7982F9095932391A392A1E8
:1018C000892B82A3789408950F931F930E942A0C6A
:1018D000882319F00E94D3150EC00E94D3150091E1
:1018E0005402109155022091560230915702600F18
:1018F000711F821F931F1F910F910895A4E0B0E004
:10190000E4E8FCE00C94BA2940910F0250911002D7
:1019100060911102709112022FB7F8948091130216
:1019200090911402A0911502B09116022FBF841B52
:10193000950BA60BB70B84369105A105B10570F187
:101940000E94640CDC01CB010296A11DB11D8983AC
:101950009A83AB83BC838091250190912601825D9F
:101960009D4F4091240150E04530510510F044E076
:1019700050E0BE016F5F7F4F0E94A22B84E090E099
:101980000E942F29882359F00E94D31560930F02DB
:1019900070931002809311029093120281E02496BA
:1019A000E2E00C94D6290E942A0C882319F00E94A8
:1019B000DF1508950E94640CCB0108957A30B0F4CD
:1019C0006930A0F48230A0F49AE5899FF0011124D7
:1019D00089E0789FE00DF11D1124E60FF11DEE0F57
:1019E000FF1FEC5AFE4F85919491089580E001C04D
:1019F00081E090E008951F93CF93DF930E94250A22
:101A0000EC01C11580E5D807E8F5C11590E4D907C8
:101A100008F0A8C0C03ED10530F5CD3CD10508F096
:101A200094C0C83AD10578F4C53AD10508F083C00E
:101A3000C130D10509F47CC008F4F2C0C430D1052E
:101A400008F0F1C0EDC0C33CD10508F0E9C0C85AA8
:101A5000D0E0CC0FDD1FC658DE4F0990D881C02DD5
:101A6000CE019464E1C0C11580E2D80708F0CBC074
:101A7000C11591E0D90708F06BC0C83ED10508F444
:101A8000D2C0CEC0C03682E5D80728F5C03492E572
:101A9000D90708F079C0C03282E5D80708F06CC0D9
:101AA000C11592E5D90708F481C04C2F469546959B
:101AB00080E2489FA0011124C37021E030E0C901F9
:101AC00002C0880F991FCA95E2F7EA01C82BD92BEB
:101AD000CE019D68A9C0C03A82E5D807B8F48C2F22
:101AE0008F71C03892E5D90708F07BC0869586953E
:101AF00090E2899F90011124C37081E090E002C0C0
:101B0000880F991FCA95E2F79A6868C0C03C82E5C1
:101B1000D80708F46DC0C03E92E5D90708F080C030
:101B2000CF71DD27DC2FCC27CE01806F906A7CC07F
:101B300081E090E079C0C55AD0E0C958DE4F888175
:101B4000C82FD0E0CE0190646FC0CE0190656CC00C
:101B50008D2F0E94E209182FCE0199270E94250A95
:101B60001F715CC0CE0199270E94250ACC27DF7027
:101B7000D06A8C2B9D2B58C0CF71D0E0DC2FCC27A6
:101B8000CE01816F906A50C08C2F8F71869586959B
:101B900090E2899F90011124C37081E090E002C01F
:101BA000880F991FCA95E2F79C6818C08C2F8F7117
:101BB0000E94E20995E0D695C7959A95E1F7CF7016
:101BC000D0E0DC2FCC27282F30E084FF05C084E054
:101BD000220F331F8A95E1F7D069CE01822B932B18
:101BE00023C090E0D82FCC27CE01846F906A1CC010
:101BF0008C2F8F710E94E2098F7190E0D82FCC2733
:101C0000CE01906211C08D2F8F710E94E209182FB2
:101C1000CE0199270E94250A1F719062912B04C062
:101C200080E090E001C0CE01DF91CF911F91089537
:101C3000AEE1B0E0EEE1FEE00C94AC299E012F5F36
:101C40003F4F790184E1D9011D928A95E9F706E4B5
:101C500011E069016BE4462E61E0562E6624639420
:101C6000712CE6E48E2EE1E09E2EF80180818F3FFC
:101C700009F446C0F894E82FE295EF70F0E021A156
:101C80008F70A30102C0440F551F8A95E2F7CA0165
:101C9000922F982B91A392A18095892382A3789467
:101CA00000C0EDE3F1E021E030E0A12CB12C419146
:101CB0004F3F89F0A42FA295AF70B0E090968C9121
:101CC00090E04F7002C0959587954A95E2F780FDA8
:101CD00002C0C90102C080E090E0A82AB92A220F00
:101CE000331F8E169F0619F7D8018C918F3F11F084
:101CF0000E944D0CB0EABA95F1F7F601B182A082CC
:101D00000F5F1F4FF2E0CF0ED11C4016510609F0B5
:101D1000ACCF44E150E0B7018AE592E00E94952BF8
:101D2000009741F024E1F701AAE5B2E001900D929D
:101D30002A95E1F700916F02892B49F081E08093A9
:101D4000F4010E94DF159093F3018093F2018091DA
:101D5000F401811102C0D12C24C08091F201909134
:101D6000F3010E94C4150597B0F310E0000F111F96
:101D70000B581D4F4AE050E06AE572E0C8010E942E
:101D8000952B892B59F08AE0EAE5F2E0D801019021
:101D90000D928A95E1F7DD24D39401C0D12C1092E5
:101DA000F4010E942A0CE0916F029E012B5E3F4FCE
:101DB0007901882309F484C08AE0D9011D928A95AB
:101DC000E9F70E2F10E0000F111F0B581D4F8091E7
:101DD00053028A3050F44EEA5BE0B701C8010E941A
:101DE0009F1A882309F43FC00AC08091F5019091A1
:101DF000F6010E94C415843F914068F745C044E550
:101E00005BE0B701C8010E949F1A882361F14EE789
:101E10005CE0B701C8010E949F1A882321F149E1C3
:101E200056E1B701C8010E949F1A8823E1F04BEEEA
:101E300055E1B701C8010E949F1A8823A1F01092B2
:101E4000530280916E0290E0880F991F4AE050E0A3
:101E5000B7018B589D4F0E94952B21E02093FB01E9
:101E6000892BF1F4CCC0809153028F3F19F08F5F22
:101E700080935302809153028A3018F30E94DF1539
:101E80009093F6018093F5018091FB01882309F47A
:101E9000B6C08AE0F70111928A95E9F71092FB012A
:101EA000A0916E02B0E0AA0FBB1FAB58BD4F8AE0F5
:101EB000FE01759601900D928A95E1F781E0A0C030
:101EC000F0E0EE0FFF1FEB58FD4F8AE0AFE2B2E00B
:101ED00001900D928A95E1F76AE070E08FE292E05E
:101EE0000E94872380932E024091A60250E06091C9
:101EF000A50270E06F557D4FC7010E94A22B8D890E
:101F000080933A0261E070E0C7010E9487238093CA
:101F1000390280903B0290903C02A0903D02B0902C
:101F20003E028091F7019091F801A091F901B091E2
:101F3000FA0188169906AA06BB06D1F08092F7012D
:101F40009092F801A092F901B092FA010E942A0C35
:101F500081110EC00E94D315861A970AA80AB90AE1
:101F60008092540290925502A0925602B09257026B
:101F700080913F020E949E2380914002282F217071
:101F80008695F0904102E0904202C0904302009199
:101F9000490210914A0210924A02112381F110FF66
:101FA00018C09091BF03222339F091609093BF0332
:101FB00060E00E948F270DC0892F8E7F8093BF0322
:101FC0000E94C82480913B03816080933B030E9460
:101FD000EA2411FF06C020E04C2D6E2D8F2D0E94AB
:101FE000B82612FF07C0002319F00E94CF2402C0B8
:101FF0000E94C82413FF03C081E08093360380E071
:102000008D296E96E0E10C94C8292091E40030916E
:10201000E50095E64091EC00842F817040FF23C0DD
:102020008091E80080FD1DC080912402882399F0F2
:10203000853099F08091EB0085FD11C04091E4005E
:102040005091E5002417350729F3915011F09A01BA
:10205000E1CF84E0089582E0089583E0089581E06F
:10206000089580E008954091E80042FFDDCF089593
:102070008091260287FF11C08091E80082FD05C093
:10208000809124028111F8CF11C08091E8008B77F4
:102090000BC080912402882349F08091E80080FFE2
:1020A000F8CF8091E8008E778093E8000895982F0C
:1020B000973068F59093E900981739F07091EC002B
:1020C0002091ED005091F00003C0242F762F50E0B6
:1020D00021FD02C09F5FECCF3091EB003E7F30933B
:1020E000EB003091ED003D7F3093ED003091EB003F
:1020F00031603093EB007093EC002093ED0050932F
:10210000F0002091EE0027FDE5CF80E008958F706C
:102110008093E90081E0089520912C0230912D02F6
:102120002617370748F06115710539F42091E8004A
:102130002E772093E80001C0B901FC0120E0611571
:10214000710579F1809124028823F1F18530F1F154
:102150008091E80083FD3CC08091E80082FD2EC0A4
:102160008091E80080FFEBCF2091F3008091F20096
:1021700090E0922B6115710551F08830910538F48B
:1021800021912093F100615071090196F3CF21E074
:10219000089709F020E08091E8008E778093E800AE
:1021A000CECF2111CFCF0AC080912402882361F0C5
:1021B000853061F08091E80083FD0AC08091E800DD
:1021C00082FFF2CF80E0089582E0089583E00895D1
:1021D00081E0089508958091190208950F931F9347
:1021E000CF93DF938B01EA0190912402943079F52B
:1021F0008F708093E9008FEF9091E800815095FDFA
:1022000006C095ED9A95F1F700008111F5CF809108
:10221000E80085FF1CC00E940510882361F08091B2
:10222000E8008E778093E80012C0F80181918F0159
:102230008093F1002197209791F38091E80085FD2C
:10224000F4CF8091E8008E778093E800E4CFDF91AF
:10225000CF911F910F91089543E050E0BC0182E0BF
:102260000E94EE100895CF93DF93EC0148E050E018
:10227000BC0181E00E94EE1088E0FE01AAE1B2E01C
:1022800001900D928A95E1F7DF91CF910895AAE22E
:10229000B0E0EDE4F1E10C94B929E6E2F2E08EE27F
:1022A00092E02091F10021938E179F07D1F7809142
:1022B0002702833009F461C030F4813071F082303C
:1022C00009F49BC0B2C08A3009F487C08B3009F48E
:1022D0006CC0893009F0A9C020C080912602813AE3
:1022E00009F0A3C08091E800877F8093E800809187
:1022F0002A0290912B02892B21F468E08AE192E076
:1023000003C060E080E090E070E00E948C1080915B
:10231000E8008B778093E80088C0809126028132A4
:1023200009F083C080912A0290912B02029708F055
:102330007CC08091E800877F8093E8008091E8006E
:1023400082FD05C0809124028111F8CF6EC02091DA
:10235000F3008091F20090E0922B029731F480918B
:10236000F100813011F0863021F48091F1008093EA
:1023700019028091E8008B7754C080912602813A3F
:1023800009F053C080912A0290912B02892B09F009
:102390004CC08091E800877F8093E8008091E8003E
:1023A00080FFFCCF80913C0137C0809126028132B2
:1023B000E1F580912A0290912B02892BB1F5809151
:1023C000E800877F8093E8000E94381080912802FF
:1023D00080933C010E94F11E28C080912602813228
:1023E00021F58091E800877F8093E8000E943810F3
:1023F000809129028093180218C080912602813AA8
:10240000A1F48091E800877F8093E8008091E80044
:1024100080FFFCCF809118028093F1008091E8004A
:102420008E778093E8000E9438108091E80083FF47
:10243000CEC18091260290912702492F50E04A3068
:10244000510508F0C4C1FA01E056FF4F0C943C2B33
:10245000803821F0823809F0BAC108C08091220288
:1024600090912302992389F082600FC080912A0203
:102470008F70873008F0ABC18093E9008091EB004A
:1024800085FB882780F91092E9009091E800977FFA
:102490009093E8008093F1001092F10065C1282F1D
:1024A0002D7F09F094C1882319F0823061F08FC12B
:1024B00080912802813009F08AC1933009F080E0D0
:1024C000809323022EC08091280281112AC080911E
:1024D0002A028F702FEF280F263008F078C18093E2
:1024E000E9002091EB0020FF1CC0933021F4809183
:1024F000EB00806214C09091EB0090619093EB0030
:1025000021E030E0A90102C0440F551F8A95E2F78F
:102510004093EA001092EA008091EB00886080937B
:10252000EB001092E9008091E800877F20C18111C3
:102530004EC1109128021F778091E3008078812B93
:102540008093E3008091E800877F8093E8000E94F9
:1025500038108091E80080FFFCCF8091E300806814
:102560008093E300111102C082E001C083E08093F8
:1025700024022DC18058823008F029C180912802A0
:10258000909129028C3D53E0950779F583E08A8389
:102590008AE289834FB7F894DE01139620E03EE08B
:1025A00051E2E32FF0E050935700E49120FF03C085
:1025B000E295EF703F5FEF708E2F90E0EA3010F001
:1025C000C79601C0C0968D939D932F5F243149F724
:1025D0004FBF8091E800877F8093E8006AE270E057
:1025E000CE0101960E948C10AEC040912A025091FB
:1025F0002B02292F332723303105A9F068F421302D
:10260000310509F4F3C02230310509F0E0C08BE355
:1026100090E0EEE2F3E044C02132310521F12232B4
:10262000310571F1D4C0992781309105A1F058F09E
:10263000029709F0CCC0EBE7F3E0E4918E2F90E035
:10264000EBE7F3E02AC0EFEAF3E0E4918E2F90E0AD
:10265000EFEAF3E022C0EFE9F3E0E4918E2F90E09F
:10266000EFE9F3E01AC04115510509F4C4C0413047
:10267000510509F0ACC089E090E0E9E5F3E010C055
:102680004115510509F4BCC04130510509F09FC006
:1026900082E390E0ECEBF2E003C0009709F497C00E
:1026A0002091E800277F2093E80020912C023091B0
:1026B0002D028217930708F49C0140E02115310593
:1026C00089F180912402882309F43DC08530D9F135
:1026D0008091E80083FD37C08091E80082FD2FC023
:1026E0008091E80080FFEACF4091F3008091F200F2
:1026F00090E0942B2115310559F08830910540F474
:1027000044914093F1003196215031090196F2CF66
:1027100041E0089709F040E08091E8008E778093CF
:10272000E800CCCF4111CDCF0AC08091240288238C
:1027300051F0853041F08091E80083FD04C0809124
:10274000E80082FFF2CF8091E8008B778093E80069
:102750003EC08038E1F58091E800877F8093E800F3
:10276000809125028093F1008091E8008E7780931C
:10277000E8000E9438102BC0811129C080912802E6
:10278000909129029927029714F58091E800877F9C
:102790008093E80010912802109325020E943810BF
:1027A000111106C08091E30087FD02C081E001C0E5
:1027B00084E08093240242E061EC81E00E945710A3
:1027C00042E261EC82E00E945710809124028091E5
:1027D000E80083FF1AC08091E800877F8093E800BB
:1027E0008091EB0080628093EB000FC082E190E06B
:1027F000E9E6F3E055CF89E090E0E0E4F3E050CF84
:1028000080E490E0EEEEF2E04BCFAA96E3E00C9489
:10281000D5291F920F920FB60F9211242F933F9339
:102820004F935F936F937F938F939F93AF93BF93D8
:10283000CF93DF93EF93FF93C091E900CF70809126
:10284000EC00D82FD17080FDD0E81092E900809183
:10285000F000877F8093F00078940E9447111092D7
:10286000E9008091F00088608093F000CD2BCF705C
:10287000C093E900FF91EF91DF91CF91BF91AF91AC
:102880009F918F917F916F915F914F913F912F9188
:102890000F900FBE0F901F901895E8EDF0E080812B
:1028A0008E7F80831092E2001092DA001092E10095
:1028B000A0EEB0E08C9181608C9380818F778083D3
:1028C00019BCA7EDB0E08C918E7F8C9380818F7EB8
:1028D0008083109217020895A0E0B0E0E2E7F4E1EF
:1028E0000C94B429C8EDD0E088818F7E8883E7ED11
:1028F000F0E080818160808384E082BF81E080930A
:10290000170288818E7F888302EE10E0F801108222
:102910001092DA0081EEC82ED12CF6011082888147
:102920008F77888388818068888388818F7D88837A
:1029300019BC1092240210922502109223021092C8
:10294000220290EEE92EF12CF70180818B7F8083AB
:1029500088818160888342E060E080E00E945710B7
:10296000F60180818E7F8083F80180818160808381
:10297000808188608083F70180818E7F8083888159
:1029800080618883CDB7DEB7E8E00C94D0291F9230
:102990000F920FB60F9211242F933F934F935F9393
:1029A0006F937F938F939F93AF93BF93EF93FF9317
:1029B0008091E10082FF09C08091E20082FF05C0A2
:1029C0008091E1008B7F8093E1008091DA0080FFAD
:1029D0002AC08091D80080FF26C08091DA008E7FC7
:1029E0008093DA008091D90080FF18C080E189BD12
:1029F00082E189BD09B400FEFDCF81E0809324020D
:102A00008091170281110FC00E944D140E946C1416
:102A10008091E20084608093E20005C019BC1092AE
:102A20002402109217028091E10080FF17C080916C
:102A3000E20080FF13C08091E2008E7F8093E2006D
:102A40008091E20080618093E2008091D8008062F2
:102A50008093D80019BC85E0809324028091E10026
:102A600084FF30C08091E20084FF2CC080E189BDEA
:102A700082E189BD09B400FEFDCF8091D8008F7D31
:102A80008093D8008091E1008F7E8093E100809157
:102A9000E2008F7E8093E2008091E200816080936B
:102AA000E20080912502882311F084E007C0809124
:102AB000E30087FD02C081E001C083E0809324022F
:102AC000809124028091E10083FF27C08091E20081
:102AD00083FF23C08091E100877F8093E10082E043
:102AE00080932402109225028091E1008E7F8093D2
:102AF000E1008091E2008E7F8093E2008091E2000D
:102B000080618093E20042E060E080E00E94571024
:102B10008091F00088608093F000FF91EF91BF9169
:102B2000AF919F918F917F916F915F914F913F9165
:102B30002F910F900FBE0F901F90189578941F92B1
:102B40000F920FB60F9211248F939F93AF93BF9361
:102B50008091130290911402A0911502B091160277
:102B60000196A11DB11D8093130290931402A093AE
:102B70001502B0931602BF91AF919F918F910F9064
:102B80000FBE0F901F9018959C014FB7F89480913D
:102B9000130290911402A0911502B09116024FBF3A
:102BA000821B930B08952FB7F894609113027091D4
:102BB000140280911502909116022FBF08952FB72D
:102BC000F8948091130290911402A0911502B09193
:102BD00016022FBF0895ABE0B0E0E1EFF5E10C94F1
:102BE000B82988E0EFEBF3E0DE01119601900D9239
:102BF0008A95E1F78091390390913A03A0913B03C4
:102C000089879A87AB8741E08B85811101C040E0BD
:102C10000BE010E09E012F5F3F4F6FE472E086E013
:102C20000E94DA0B811110923B032B96E4E00C9486
:102C3000D429A1E0B0E0EFE1F6E10C94B82980914D
:102C4000C70380FF04C086958695869501C080E005
:102C5000898341E090913F02981301C040E001E078
:102C600010E09E012F5F3F4F6BE472E085E00E9411
:102C7000DA0B2196E4E00C94D429AEE0B0E0E3E472
:102C8000F6E10C94AA2985B7806885BF85B780686E
:102C900085BF84B7877F84BF0FB6F894A8958091CD
:102CA0006000886180936000109260000FBE90E029
:102CB00080E80FB6F89480936100909361000FBE96
:102CC00080EE99E09093EF018093EE010E944D1405
:102CD0000E946C148091E20084608093E2007894FA
:102CE000809124028823A1F01091E9001F70909137
:102CF000EC00892F817090FD80E8182B1092E9007C
:102D00008091E80083FD0E9447111F701093E90035
:102D100082E084BD93E095BD9AEF97BD80936E00ED
:102D200010925402109255021092560210925702BD
:102D300087988F988FE891E00197F1F700C0000025
:102D40008FB1881F8827881F80934B0180914B018A
:102D5000882321F01092640188E003C088E080930A
:102D60006401809365010E942A0C81110E9444280D
:102D700090914B0181E098279093A502A82FA91B61
:102D8000A093590290914B018093A60290914B0120
:102D90008093580280914B01811106C086E980938F
:102DA000550184E98093540180915501E82FE29503
:102DB000EF70F0E041A1282F2F7081E090E0BC017E
:102DC00002C0660F771F2A95E2F79B01362F3095D8
:102DD000342331A332A1232B22A320915401E22FCB
:102DE000E295EF70F0E031A12F7001C0880F2A95B5
:102DF000EAF7982F9095932391A392A1892B82A310
:102E00008FE891E00197F1F700C000007091A602F1
:102E100047EA52E005E511E0A4E5B1E060E067179C
:102E200051F1F80121918F01822F82958F7090E0EE
:102E3000FC0180A190E02F7002C0959587952A959E
:102E4000E2F781709D91292F22952F7030E0F901D2
:102E500020A130E09F7002C0359527959A95E2F742
:102E600020FD02C090E001C092E0892BFA0181931D
:102E7000AF016F5FD4CF80914B01811127C085E0F6
:102E8000E9E6F1E0DE011A9601900D928A95E1F7EC
:102E9000FE013A96A6E4B1E0CE010F969F01419162
:102EA0004D938E179F07D9F789E0EEE6F1E0DE013A
:102EB000119601900D928A95E1F7FE013196ADE3EE
:102EC000B1E081918D932E173F07D9F780914B0187
:102ED000811102C095E001C090E090936F0285E0FF
:102EE000891B80936E0206E411E03BE4E32E31E09F
:102EF000F32ED8018D918D018F3F11F00E944D0C62
:102F0000E016F106B1F70DE311E026E4E22E21E030
:102F1000F22EF80181918F018F3F11F00E944D0C2C
:102F2000E016F106B1F784E1E5E7F2E0DF01282FD2
:102F30001D922A95E9F7EAE5F2E0DF011D928A95F4
:102F4000E9F7269A80E090E00E944B2A863E9E4F49
:102F500011F00E941B1B82E090E00E943D2A8093AA
:102F6000890284E090E00E944B2A90937302809340
:102F7000720283E090E00E943D2A90E00E94EC1EE5
:102F8000259A2D9882E88093800089E180938100C2
:102F90008FEF9FEF90938700809386000E947F249D
:102FA0000E947F248091740281117BC080E090E0B8
:102FB0000E944B2A863E9E4F21F00E941B1B0E94BE
:102FC000F92588E090E00E94452A4B015C0184E2EB
:102FD00090E00E943D2A282F30E040E050E060E081
:102FE00070E080E090E000E20E94512B282939290E
:102FF0004A295B292093BF033093C0034093C10348
:103000005093C2036093C3037093C4038093C503BA
:103010009093C60380913B03836080933B032E7F94
:1030200089F50E94F92588E090E00E94452A6B010D
:103030007C0184E290E00E943D2A282F30E040E0AD
:1030400050E060E070E080E090E00E94512BB22FF1
:10305000A32FF42FE52F5B0197018601BC29A12B3B
:10306000F22BE32BB093BF03A093C003F093C103F3
:10307000E093C2036093C303B092C4038093C5037B
:103080009093C6030E948C250E94C8248091BF03A0
:1030900080FF04C060E086950E948F2781E08093C6
:1030A00074020E942A0C811102C00E9447288CE4FD
:1030B00091E09093CE038093CD0394E0692E712C20
:1030C00080912402853009F051C000E112E1809125
:1030D0002402853009F042C080912402843051F1ED
:1030E00080E00E949E2380E00E947C041092D10325
:1030F00068E170E080E40FB6F894A89560936000F2
:103100000FBE8093600083B7817F846083BF83B7E5
:10311000816083BF7894889583B78E7F83BF0FB615
:10312000F894A89580916000886180936000109267
:1031300060000FBE80912302882309F4C8CF0E944B
:10314000180EE5E7F2E081919191892B09F0E1C138
:10315000A9E8B2E0AE17BF07B1F7B9CF0E94F11EE0
:103160000E947F240E940D230E947C040E94180E5E
:103170000AE812E085E7882E82E0982E2EE932E0F8
:10318000D401F801419151918D919D91842795270A
:103190002E173F0719F0892BA9F305C0892B19F4C5
:1031A0000E94F41A44C00E942A0C382E512C22246A
:1031B0002394F401A190B1904F01D801CD90DC90FF
:1031C000CA24DB24C114D10451F1412CEE24E39430
:1031D000F12CC6018E219F21892BC1F03320B1F043
:1031E00049825A820E94DF159C838B832D8291E055
:1031F00095012E213F21232B09F490E09E834981E4
:103200005A816B817C818D810E94EC034394EE0C8A
:10321000FF1CB9E04B12DDCFF801B182A0825394BC
:103220000E5F1F4FFAE05F12C4CF0E94640C0E9431
:103230002A0C80913A03882309F4CFC08091390386
:10324000E091BF03E695E81BE0933503823059F423
:10325000F0E0EC53FC4FE4910E2F10E0FCE6EF2E73
:10326000F2E2FF2E6BC0863059F4F0E0EF53FC4FD2
:10327000E4910E2F10E0ECE5EE2EE2E2FE2E5EC0B1
:10328000893061F4E695F0E0E254FC4FE4910E2FB2
:1032900010E078EEE72E71E2F72E50C08F3061F427
:1032A000E695F0E0E554FC4FE4910E2F10E061E666
:1032B000E62E61E2F62E42C0853159F4F0E0E85482
:1032C000FC4FE4910E2F10E05BEDE52E50E2F52E61
:1032D00035C08831F9F0833249F4E6EBF3E005912B
:1032E000149142E2E42E42E2F42E28C08432C9F066
:1032F0008532F1F48E2F63E00E94082BE92FF0E075
:10330000ED54FC4FE4910E2F10E038E3E32E3FE143
:10331000F32E14C008E210E026E5E22E20E2F22EA1
:103320000DC004EF11E097E1E92E90E2F92E06C0FE
:1033300000ED17E087E3E82E8FE1F82E8091360349
:10334000882361F0109236030E94D30C90933403CB
:103350008093330310923803109237030E94D30CEA
:10336000E0913303F09134039C012E1B3F0B2F3F60
:103370003F4798F52091A0022223B1F01092A002BD
:1033800020919E0230919F02821B930B8F3F9F479B
:1033900058F4205D3A4830939F0220939E0280911A
:1033A0003B03886080933B03C0903703D090380381
:1033B0000E0F1F1F109334030093330383E393E036
:1033C000F70109958091370390913803892B29F4EF
:1033D000CD2819F081E08093A002E12CD12C8091BE
:1033E000A602E81608F082C00E2D10E0F801EB5A94
:1033F000FE4F8081E82FE295EF70F0E0E0A1F0E071
:103400008F7002C0F595E7958A95E2F7E170D801D3
:10341000AC5ABE4F2C91A22FA295AF70B0E09096FF
:103420008C9190E02F7002C0959587952A95E2F7D0
:1034300080FD02C090E001C092E08E2F892BD80160
:10344000A955BD4FEC912E2F237030E0482F082E48
:10345000000C550B2417350709F446C0EE0FEE0F8C
:10346000E82BEC93F090A502FE0CEF70F0E0EE5428
:10347000FE4F0D551D4F9081D8018C91890F8C9373
:10348000843084F0EF2DF0E0EF55FD4F80818F5FA9
:1034900080830E942A0C882339F060E08F2D0E94DF
:1034A000860402C020E001C021E0F80180818D3F48
:1034B00084F4EF2DF0E0EF55FD4F80818150808343
:1034C0000E942A0C882321F061E08F2D0E9486043F
:1034D00021E0D8018C91082E000C990BB3010E94B9
:1034E000282BF8018083D22AE39479CFD1100E944F
:1034F000181B0E940D23182F8091A902181709F498
:10350000DFCD1093A9020E94D315812F0E947C0465
:10351000D7CD09BD19BD09B400FEFDCF8091D800FB
:103520008F7D8093D8008091E00082608093E000DE
:103530008091E00081FDFCCF0E94F11EC8CDA0E08B
:10354000B0E0E5EAFAE10C94B2297C015B016A0182
:10355000809153028A3018F001E010E002C00AE0C6
:1035600010E0C1E0D0E0B501C701F6010995811175
:1035700015C021960C171D0794F0CC9F9001CD9F8C
:10358000300D300D112480E090E045E34A95F1F7CD
:103590000000019682179307C1F7E5CF81E0CDB710
:1035A000DEB7EAE00C94CE29209122039091E90243
:1035B00057E02917A9F030E0529FF001539FF00D1A
:1035C0001124E651FD4F7181761306C07081781386
:1035D00003C07581741306C02F5F3F4F2770E9CF7A
:1035E00080E0089581E00895A6E0B0E0EAEFFAE116
:1035F0000C94B8290E94DF158C01809131039091C1
:1036000032030817190781F019821A820E94DF1508
:10361000682F49815A81792F80E090E00E94EC0365
:1036200010933203009331032696E4E00C94D429DE
:103630000E94640C0895A8E0B0E0E1E2FBE10C9484
:10364000BA2966EE7EEF80E090E00E947F2A60E07B
:1036500082E090E00E94612A60E083E090E00E94B6
:10366000612A1092300310922F0360E074E184E02D
:1036700090E00E947F2A60E086E090E00E94612A4C
:103680006FEF87E090E00E94612A40E050E0BA01CD
:1036900088E090E00E94732A60E084E290E00E945B
:1036A000612A60E087E190E00E94612A60E08CE09E
:1036B00090E00E94612A60E08DE090E00E94612A23
:1036C00019821A821B821C821D821E821F8218860A
:1036D00048E050E068E170E0CE0101960E94512A76
:1036E00040E050E0BA0180E290E00E94732A0E941C
:1036F000672483E00E944924EFEBF3E0808181603E
:10370000808386950E94D72721E04FEF6FEF80E0FE
:103710000E94B8268BE00E94D72740E050E0BA0113
:103720008FE090E00E94732A40E050E0BA0183E10C
:1037300090E00E94732A2896E2E00C94D6298095A6
:1037400090912E03892380932E03089590912E0348
:1037500080912D03982B9093AA0280912C038823AB
:1037600089F0892B8093AA02ECEAF2E097E080E0EE
:10377000915029F021912223D9F38F5FF9CF811144
:1037800010922C0348E050E064E273E08AEA92E091
:103790000E94952B892BA9F088E0EAEAF2E0A4E2E6
:1037A000B3E001900D928A95E1F7E091CD03F0919D
:1037B000CE03309731F00280F381E02D8AEA92E067
:1037C00009950895809122039091E902891719F0D3
:1037D0008F5F8770FBCF0895CF93DF938091E802CE
:1037E00082958F7009F04EC08091E702882309F41A
:1037F00049C0809122034091E9025091E302609117
:10380000E202C091E402D091E50277E08417D1F1A1
:1038100090E0789FF001799FF00D1124DF01A6510F
:10382000BD4F14962C911497222349F111962C9197
:103830001197251324C02C91261321C015962C9185
:10384000159721111CC012962D913C9113972C1B9A
:103850003D0B283C310598F48091E8028F7080611F
:103860008093E802E051FD4F80818F7080618083FA
:1038700082EE92E00E9499040E94E21B03C001962E
:103880008770C4CFDF91CF910895A0E0B0E0EBE462
:10389000FCE10C94B3297C0100917002109171023B
:1038A00080912F0390913003082B192BCFE0D0E0AB
:1038B000CC24C394D12CC6010C2E02C0880F991FB2
:1038C0000A94E2F780239123892B21F4219798F71A
:1038D000B12C09C0BC2EB7018C2F0E94DE0C0E94B7
:1038E000FB0C019799F38B2DCDB7DEB7E9E00C9473
:1038F000CF29CF93DF93EC010E94451CBE010E94AB
:10390000DE0C0E94FB0CDF91CF910895FC01248115
:103910002223D9F0808191810E94791C92959F7019
:10392000963079F010F4925001C09A50923068F4B9
:10393000803F69F018F4883E40F409C0843F29F4C0
:1039400006C0883E20F0813F11F080E0089581E0BC
:103950000895A4E1B0E0EFEAFCE10C94B0298C01F9
:1039600086E0F801DE011F9601900D928A95E1F73D
:10397000F8018481E58092EE892E92E0992E909153
:10398000E602911120C0882309F463C1EE2009F4F6
:1039900042C0C8010E94861CF82E8823E1F187E00E
:1039A000F801D40101900D928A95E1F78091E60229
:1039B000813031F48091E2029091E3020E94791CFF
:1039C0000E94EC1B48C1F801D080C180A280B38066
:1039D000F090E7022091E4023091E502FF2009F423
:1039E000E7C0A501421B530B483C510508F09DC0A0
:1039F000882309F430C18091E802282F207F90911C
:103A0000E302222361F09C1509F460C0C8010E9402
:103A1000861C811163C0C8010E9499041AC19C11BF
:103A200013C09091E2029D110FC0E1100DC08F7084
:103A300080618093E80282EE92E00E949904809176
:103A4000E802F801868303C1E1103AC040E06C2D22
:103A50008D2D0E94D41A40E06C2D8D2D0E94D41A19
:103A6000E82E8111F4C0DF86C88A8F8598890E946C
:103A7000791C292F22952F70243020F49F7022303A
:103A800028F009C02A50223080F014C0992349F050
:103A9000811107C013C0992321F0F8019681907F0E
:103AA00069F0805E883030F409C0803F38F0815F73
:103AB000833020F0C8010E949904EF2CFE2CCBC06B
:103AC0008091E80281608093E802C1C09091E20297
:103AD0009D119CCFE1109ACFF80198C0EE2009F417
:103AE0009ACF2091E802822F82958F7090E0029702
:103AF0008CF08091E2029091E30299878887BB86DF
:103B0000AA868091E6028C871D862E87CE010896B4
:103B10000E94990487E0F801A2EEB2E001900D92B4
:103B20008A95E1F70E94EC1B94C09091E802292F3E
:103B3000207F51F482EE92E00E94990487E0F40124
:103B400011928A95E9F783C0882309F484C0809193
:103B5000E3028C110CC08091E2028D1108C0E110CB
:103B600006C0F8019683C8010E9499046AC0C80182
:103B70000E94861C882309F44ECFEE2009F44BCF17
:103B80002091E802822F82958F7090E0029714F2C4
:103B90008091E2029091E3029A838983BC82AB8296
:103BA0008091E6028D831E822F83CE010196B0CFD5
:103BB000A21AB30AF8ECAF16B10408F042C0882389
:103BC00009F447C0FE2CEE2009F425CF8091E302D2
:103BD0008C1129C08091E2028D1125C09091E802DC
:103BE00090FD18C0892F82958F70282F30E0211505
:103BF000310581F0F80196832F30310541F08F5F58
:103C0000982F9295907F86818F70892B8683C8012B
:103C10000E94990487E0F801A2EEB2E001900D92B3
:103C20008A95E1F718C0C8010E94861C811172CFE5
:103C30008091E80281608093E802C8010E949904A3
:103C40000AC087E0F40111928A95E9F704C0F12CCB
:103C500002C0FF24F3948F2D6496ECE00C94CC29E1
:103C60009A3078F5893068F5E82FF0E089E0989F80
:103C7000E00DF11D11249E2F977083E0F695E795D6
:103C80008A95E1F7EE0FFF1FEE0FFF1FEE54FD4F79
:103C900040E050E080E0219130E0092E02C03695EE
:103CA00027950A94E2F721703327042E01C0220FD2
:103CB0000A94EAF7822B4F5F5F4F4430510559F762
:103CC000089580E008959A3088F5893078F5E82FD6
:103CD000F0E089E0989FE00DF11D11248E2F877090
:103CE00051E001C0550F8A95EAF783E0F695E79514
:103CF0008A95E1F7EE0FFF1FEE0FFF1FEE54FD4F09
:103D000020E030E070E04081CB01022E02C09695A9
:103D100087950A94E2F7817081958427852384270B
:103D200081932F5F3F4F2430310569F708959093B9
:103D3000710280937002089521E030E002C0220FEA
:103D4000331F8A95E2F7209530958091700290910B
:103D50007102822393230E94971E0895909123035A
:103D60008095892380932303282F277069F498175F
:103D700059F09091730292FF07C0869586958695BB
:103D80000E949C1E1092230308959091730292FB4F
:103D9000222720F9281779F080FB92F9909373027B
:103DA000609172027091730284E090E00E947F2A19
:103DB00082E00E94AE1E089521E030E002C0220F92
:103DC000331F8A95E2F78091700290917102822BE5
:103DD000932B0E94971E08959093300380932F0396
:103DE000089510922E0386E0ECEAF2E0DF011D92C6
:103DF0008A95E9F780E090E00E94E82280E090E078
:103E00000E94C32210922D030E94A61B08958823AE
:103E100021F00E949F1B0E94A61B0895882339F061
:103E200090912E03892B80932E030E94A61B089548
:103E30001F93CF93DF93182F893319F0C0E0D0E0A0
:103E400002C0C0E5D0E0812F0E949703209741F087
:103E50008FE99FE00197F1F700C000002197F6CFAE
:103E6000812F0E946403DF91CF911F9108950895DF
:103E70002F923F925F926F927F928F929F92AF921A
:103E8000BF92CF92DF92EF92FF920F931F93CF9347
:103E9000DF93FC016280548081E08483E8ECF3E0EE
:103EA0007490E7E4F4E0E491C091C203C695C15870
:103EB000D0E0CC0FDD1F2D2E3324812C75E0972E02
:103EC000AA24AA94B12CE719EE2EF12C8091680156
:103ED000881608F098C0C82CD12C22E0261568F06E
:103EE0009C9CF0019D9CF00D1124E159FC4F8091A8
:103EF000C00380838091C103818351100AC09C9CC0
:103F0000F0019D9CF00D1124E159FC4F13821282A7
:103F100060C09C9C80019D9C100D1124E801C1593A
:103F2000DC4F8B818823F9F081508B832FEF829FA8
:103F3000C00111246C8170E00E94142BFB01FF274B
:103F4000E853FC4F8491E82FE7192FEFE29FC0015F
:103F50001124B7010E94142B8091C203689FB00105
:103F600011247A8336C00E942D2AB5010E94282B85
:103F70008215930574F582E0861588F40E942D2A37
:103F8000B5010E94282B88830E942D2A2091C1030D
:103F90002695622F70E00E94282B280F29839C9C75
:103FA000F0019D9CF00D1124E159FC4F128280918B
:103FB000C203843120F0893C18F088EC01C084E110
:103FC0009C9CF0019D9CF00D1124E159FC4F8483D1
:103FD0008383809166019601280F311DC901880FE6
:103FE000991F280F391F215C3C4F9C9CF0019D9C20
:103FF000F00D1124E159FC4F4281618180810E94C2
:104000001426839463CF0E94EA24DF91CF911F91FD
:104010000F91FF90EF90DF90CF90BF90AF909F9067
:104020008F907F906F905F903F902F9008950F93A7
:104030001F93CF93DF93EC0100E010E080916801C3
:10404000282F30E00217130724F59091660198019C
:10405000290F311DA901440F551F240F351F215C65
:104060003C4F869590E04C81081719071CF44423B7
:1040700031F002C0411103C04091C20301C040E0D1
:104080006091C1038091C0030E9414260F5F1F4FEF
:10409000D5CF0E94EA248C8190E001968170992707
:1040A0008C83DF91CF911F910F910895A0E0B0E034
:1040B000ECE5F0E20C94B0298C01FC014481C42FA2
:1040C000D0E09E01DE010E94E92A9B01AC010E9422
:1040D000B42A6B017C01E0E2F0E0EC1BFD0BA5E5EE
:1040E000B0E09B01AC010E94B42A4B015C019F012E
:1040F000DF010E94422B9B01AC010E94BF2A9B0161
:10410000AC012C0D3D1D4E1D5F1DC501B4010E946B
:10411000C72AC22FD22F2A3228F4F3E02F9F900112
:1041200011240DC025E530E02C1B3109C901880F91
:10413000991F280F391F37FF02C02F5F3F4F35955A
:104140002795C22FC095F12C85E5E82EED1A8091B8
:104150006801F816C8F4F1FC02C08E2D01C08D2F45
:10416000909166012F2D30E0290F311DA901440FD8
:10417000551F240F351F215C3C4F4C2F6091C1030C
:104180000E941426F394E3CF0E94EA24F80184816C
:10419000811102C091E003C0803219F49FEF909327
:1041A000630190916301890FF8018483CDB7DEB775
:1041B000ECE00C94CC291F93CF93DF93EC018C811E
:1041C000811109C081E08C8310923D0392E09093AD
:1041D0006201809361018091660190916701891766
:1041E00070F4E82FF0E09F01220F331FE20FF31F5E
:1041F000E15CFC4F1182108212828F5FF0CF10E0E1
:10420000609168011617C0F5E12FF0E070E0CF0172
:104210000E94282B20916601820F20913D03022EDF
:10422000000C330B90E0E217F307CCF02091620111
:10423000022E000C330B2E173F078CF09C01220F2F
:10424000331F820F931F9C01215C3C4F4091C2039E
:104250006091C1038091C0030E9414260BC0FC0131
:10426000EE0FFF1F8E0F9F1FFC01E15CFC4F1182C0
:10427000108212821F5FC4CF0E94EA2480916101E4
:1042800020913D03280F20933D0390916201980FE8
:104290009093620119165CF4022E000C330B4091CE
:1042A000680150E0415051092417350734F08195D9
:1042B00080936101813009F41C82DF91CF911F91BD
:1042C0000895A0E0B0E0E7E6F1E20C94B029EC013B
:1042D0008A8180FF03C0BB24BA9402C0BB24B3947C
:1042E0008C8181110DC081E0B81206C080916801F7
:1042F000815080933C0302C010923C0381E08C8388
:10430000A12C90906801A91408F03EC0809166012C
:10431000CA2CD12C8601080F111DC801880F991FC6
:10432000080F191F015C1C4FF801118210821282C4
:1043300034E0E32EF12C812C80913C03880D8131F7
:1043400014F08F7002C087FD890D082E000C990BA8
:10435000C816D90691F48091C2038E9DA0018F9D4D
:10436000500D1124559547955595479598016091A5
:10437000C1038091C0030E9414268B0CF1E0EF1A58
:10438000F108D1F6A394BDCF0E94EA2480913C03AA
:1043900091E0B9120EC0811107C08091680181506F
:1043A00080933C031C820FC0815080933C03BC82ED
:1043B0000AC090E001966091680170E00E94282B8D
:1043C00080933C038C83CDB7DEB7ECE00C94CC2912
:1043D000FF920F931F93CF93DF93EC01F12C0FEF1C
:1043E00010E060916801F616F0F4809166012F2DBF
:1043F00030E0280F311DC901880F991F280F391F80
:10440000215C3C4F70E0C8010E94282B962F8C81C4
:104410004091C2036091C103F99E800D11240E9456
:104420001426F394DECF0E94EA249A818C8190FFB7
:1044300002C08F5F01C081508C83CDB7DEB7E5E04D
:104440000C94D329A3E0B0E0E8E2F2E20C94B8299E
:104450008C0180913E0381110AC09E012F5F3F4F66
:104460004FEF6FEF0E9414268A8180933E03F8017C
:104470008481813051F028F0823061F440913E0314
:104480000AC080913E0340E007C060913E0340E0D7
:1044900080E003C040E080E060E00E947125F80108
:1044A000848190E0019663E070E00E94282B848371
:1044B0002396E4E00C94D429CF93DF93EC01EFEB47
:1044C000F3E0438162818C810E94A0268C818F5F02
:1044D0008C83DF91CF910895CF93DF93EC01EC8132
:1044E000F0E0E853FC4F4491EFEBF3E0628181810F
:1044F0000E94A0268C818F5F8C83DF91CF910895DD
:104500001F920F920FB60F9211248F939F93AF9328
:10451000BF938091D103811113C0809113029091B8
:104520001402A0911502B09116024196A11DB11D71
:104530008093130290931402A0931502B093160275
:10454000BF91AF919F918F910F900FBE0F901F90D1
:1045500018959C01FC0132969FEF80E0419146172F
:1045600089F09F3F19F4411101C0982F8F5F863069
:10457000A9F79F3F39F0F901E90FF11D97FDFA9571
:10458000628308950895A3E0B0E0E9ECF2E20C94B0
:10459000BA292091CF033091D00328173907A1F011
:1045A0009093D0038093CF03E091CD03F091CE039D
:1045B000309751F024E029839B838A830680F7811A
:1045C000E02DCE01019609952396E2E00C94D629C0
:1045D000A3E0B0E0EEEEF2E20C94BA292091CB0316
:1045E0003091CC0328173907A1F09093CC03809326
:1045F000CB03E091CD03F091CE03309751F023E04F
:1046000029839B838A830680F781E02DCE01019662
:1046100009952396E2E00C94D6290E942A0C88235F
:1046200059F0E091CD03F091CE03309729F001903D
:10463000F081E02D0995089580E008950F931F9370
:10464000CF93DF93C42FD22FFC0185818823B1F053
:104650004093CA030E94DF159093C9038093C80357
:1046600080E28C0F883008F04DC0C77081E001C037
:10467000880FCA95EAF70E940E1F44C08091CA03B2
:10468000481330C08091C8039091C9030E94C4159B
:10469000883C910538F510E21D0FCD17B9F080E286
:1046A0008C0F883040F4C77081E001C0880FCA9534
:1046B000EAF70E94071F183010F581E09D2F9770D0
:1046C00001C0880F9A95EAF70E940E1F802F0E9462
:1046D000181F1830B8F4D77081E001C0880FDA9540
:1046E000EAF70AC080E28C0F883060F4C77081E07E
:1046F00001C0880FCA95EAF70E94071F03C0802FE8
:104700000E94181FDF91CF911F910F910895FC0116
:10471000680F791F8FEF91E3E617F70771F021918A
:10472000822728E030E087FF03C0880F892701C077
:10473000880F21503109B9F7EFCF0895A0E0B0E01C
:10474000E4EAF3E20C94B029843048F4811108C003
:10475000909180009F77909380002D9806C083E011
:1047600090918000906890938000A0918600B09115
:104770008700282F30E00E94E92A23E030E040E063
:1047800050E00E94C72A0027122F232F342F012F19
:10479000122F232F332780918600909187006CE0A1
:1047A00070E00E94142B6017710730F0C80169E0B7
:1047B00070E00E94142B5EC080918600909187006B
:1047C000E0908600F0908700E0918600F0918700ED
:1047D000C6E0D0E0BE010E94142B060F171F211D5A
:1047E000311D4801590185E0880C991CAA1CBB1C8D
:1047F0008A95D1F7C701BE010E94142B6F01E12CED
:10480000F12CA7019601260F371F411D511DC5012F
:10481000B4010E94C72A69017A01E0918600F091F3
:104820008700CA01B9010E94F82A9B01AC01DF018F
:104830000E94B42A9B01AC01C701B6010E94F82A6C
:10484000DC01CB012FE0B695A795979587952A9522
:10485000D1F7009186001091870020E030E0081722
:1048600019072A073B0728F460918600709187009A
:10487000CB01BC017093890060938800CDB7DEB78F
:10488000ECE00C94CC29682F86E090E00E94612A2D
:104890000895843008F083E09091C7039770282F23
:1048A000220F220F220F922B9093C703987F21E0B3
:1048B00009F420E09091C70320FB90F99093C7037F
:1048C0000E949E238091C7030E94432408958091F3
:1048D000C70380FD13C081608093C703813019F442
:1048E00089E08093C7038091C7030E94432480918D
:1048F000C7038695869586950E949E23089580E03D
:1049000090E00E944B2A863E9E4F51F00E941B1B56
:104910008091C703847089618093C7030E944324F8
:1049200086E090E00E943D2A8093C703282F2695B9
:104930002695269530E02430310524F08770886173
:104940008093C7038091C70380FF04C08695869536
:10495000869501C080E00E949E2308959091BF0338
:1049600090FF04C09695981748F003C0811106C0C7
:1049700090E0961718F40E94E52708950E94D72723
:104980000895882311F0FA0101C0FB0109950895EB
:10499000E9E3F3E01182828184608283089560916B
:1049A000BF03669570E04BE050E086E591E00E9421
:1049B000882B892B19F481E080933A030E94D30C51
:1049C000909334038093330380913B0384608093FE
:1049D0003B030895CF92DF92EF920F931F93CF93F3
:1049E000DF93CDB7DEB7E0970FB6F894DEBF0FBE0A
:1049F000CDBF609165018091BF0380FF0AC0EDECDF
:104A0000F5E0AE014F5F5F4F8E010F5C1F4FCA0193
:104A100014C08091660190916701891780F7E82F93
:104A2000F0E09F01220F331FE20FF31FE15CFC4F08
:104A30001182108212828F5FF0CF249130E0D90171
:104A4000AA0FBB1F2A0F3B1FD901A15CBC4FCD9001
:104A5000DD90EC90DA01CD92DD92ED92AD013196D0
:104A6000A017B10751F720916401FC01B3E02B9F1F
:104A7000E00DF11D11246E9A8EB18F7B9EB1906472
:104A80002FB7F894AF0133E0639F400D511D1124FF
:104A9000E417F50789F0319168E09EB9000000C085
:104AA00037FF8EB9330F000000C000C000C08EB9C0
:104AB00000C06A9591F7ECCF2FBF8FE594E0019786
:104AC000F1F700C00000E0960FB6F894DEBF0FBE0D
:104AD000CDBFDF91CF911F910F91EF90DF90CF90DD
:104AE00008959091BF0390FF16C0909166012091A8
:104AF0006701921770F4E92FF0E0DF01AA0FBB1FE6
:104B0000EA0FFB1FE15CFC4F8183608342839F5F60
:104B1000F0CF0E94EA2408958091BF03282F2695A4
:104B200030E02115310519F48170826005C02B3207
:104B3000310524F0817084658093BF030895A0E05F
:104B4000B0E0E5EAF5E20C94B02949015A016B01A5
:104B50007C010E948C258401A4016A2D7B2D88E0B4
:104B600090E00E94732A94014A2D5B2DB601C70183
:104B700000E20E946C2B622F84E290E00E94612A86
:104B8000CDB7DEB7ECE00C94CC298091C303882329
:104B900019F081508093C3032091BF033091C0036B
:104BA0004091C1035091C2036091C3037091C4034B
:104BB0008091C5039091C6030E949F25089580911E
:104BC000C303833018F48F5F8093C3032091BF0326
:104BD0003091C0034091C1035091C2036091C3035F
:104BE0007091C4038091C5039091C6030E949F25D4
:104BF0000895EFEBF3E023E0208311828FEF8283AF
:104C000083831482A9E3B3E012968C911297836098
:104C100012968C93758130E04FEF5FEF60E08681F4
:104C200097810E949F250895A0E0B0E0EAE1F6E2B6
:104C30000C94B229E82EF62EE901E42FF0E0611180
:104C400006C0E853FB4FE4914E2F2E2F71C0062F64
:104C500010E0E853FB4F4491F42FC42ED12C26E0F2
:104C6000829FC00111242FEF30E0B9010E94142B64
:104C70005BEA5603C001579F900D11248E0D911DC4
:104C80008E0D911D582F550F580FD901A01BB10B38
:104C9000AC9DC001AD9D900DBC9D900D1124E92FE0
:104CA000F59ED0011124AB2FBB277901EA1AFB0A2C
:104CB000EC9CD001ED9CB00DFC9CB00D1124590171
:104CC000A51AB108A09E7001A19EF00CB09EF00C38
:104CD0001124EF2CFF242E193F092C9D80012D9DBE
:104CE000100D3C9D100D1124212F6230710591F0A3
:104CF00048F461157105E1F061307105B9F4242FB4
:104D00004B2F16C06430710569F040F066307105B4
:104D100079F00CC0242F492FE12F0AC0492FEF2F23
:104D20002B2F06C0292FE42F412F02C0292FEB2F54
:104D300049832883EA83CDB7DEB7EAE00C94CE2915
:104D4000A3E0B0E0E6EAF6E20C94BA299091BF0342
:104D500090FF0AC09E012F5F3F4F0E9414264B8197
:104D600069818A810E9471252396E2E00C94D629FC
:104D7000A3E0B0E0EEEBF6E20C94B329082FE62EA8
:104D8000F42ED22E9091BF0390FF7DC02091C003DE
:104D9000281308C08091C103861304C08091C20308
:104DA000841729F080913B03826080933B03E92FB5
:104DB000E695AE2FB0E0AE53BE4F8C918093390391
:104DC0009E7F923071F49E012F5F3F4F4F2D6E2DCD
:104DD000802F0E9414264B8169818A810E9471254F
:104DE0003CC0823019F4F090C20337C08630A1F184
:104DF000893091F1893189F5E9518E2F8170C82E62
:104E0000E695F0E0E853FA4F1491B12C60916801F7
:104E1000B616F8F4B19EC001112470E00E94142B64
:104E2000802FC11002C0860F01C0861B90916601C1
:104E30002B2D30E0290F311DA901440F551F240FE0
:104E4000351F215C3C4F4F2D6E2D0E941426B394CC
:104E5000DDCF0E94EA2401C0022F0093C003E0923C
:104E6000C103F092C203DD2071F02091BF03609175
:104E7000C3037091C403302FA7018091C5039091A3
:104E8000C6030E949F252396E9E00C94CF29EFEBFF
:104E9000F3E0438121E1421B08F440E021E062811C
:104EA00081810E94B8260895EFEBF3E0438121E170
:104EB000420F08F44FEF21E0628181810E94B82601
:104EC0000895EFEBF3E0628121E1621B08F460E0FA
:104ED00021E0438181810E94B8260895EFEBF3E041
:104EE000628121E1620F08F46FEF21E0438181814B
:104EF0000E94B8260895EFEBF3E0818121E0438121
:104F0000628188500E94B8260895EFEBF3E081811A
:104F100021E043816281885F0E94B82608959091C4
:104F2000BF0390FF43C09170811102C0926006C020
:104F30008B3210F0946502C0880F982B9093BF03BA
:104F400080913B03816080933B03662391F0209125
:104F5000BF033091C0034091C1035091C2036091DF
:104F6000C3037091C4038091C5039091C6030E944E
:104F70009F256091BF03669570E04BE050E086E5A9
:104F800091E00E94882B892B19F00E94C82402C04E
:104F90000E94CF2481E08093360320E04091C20339
:104FA0006091C1038091C0030E94B826089561E01A
:104FB0000E948F2708958091BF038695815009F440
:104FC0008AE261E00E948F2708958091BF03869551
:104FD0008F5F8B3208F081E061E00E948F27089597
:104FE0008EE1489B02C08150E1F7489BFECF0895B7
:104FF000589880E28A95F1F7589A0895FC012AE0C2
:105000002A95F1F728E090E080E031E040E14A9510
:10501000F1F7880F489B02C08160932700C0000011
:1050200040E14A95F1F7215089F720E12A95F1F7FF
:1050300029B100C0000030E13A95F1F721709227C4
:105040002081920F90830895A1E0B0E0EAE2F8E2B7
:105050000C94B62919828C017C01E60EF11C0E1508
:105060001F0551F00E94F027CE0101960E94FE27F5
:10507000F80181938F01F3CF81E09981911180E054
:105080002196E6E00C94D229509A589A08955098A7
:10509000589AE89AE9E6F0E080818C7F8083089551
:1050A000615091E001C0990F6A95EAF720E031E084
:1050B000992361F0492F482319F0589A232701C0FA
:1050C000589840E24A95F1F79695F2CF222311F0D5
:1050D000589A01C0589880E28A95F1F75898089537
:1050E000FF920F931F93CF93DF93EC018C01060F78
:1050F000111DC017D10741F0F9900E94F82768E010
:105100008F2D0E945028F5CFCDB7DEB7E5E00C9487
:10511000D3291F920F920FB60F9211240F931F9352
:105120002F933F934F935F936F937F938F939F93AF
:10513000AF93BF93EF93FF93CF93DF931F92CDB7BE
:10514000DEB719820E94F027CE0101960E94FE2749
:10515000082F069506950695902F96959570202F09
:105160002570920F292F237096959695920F877030
:1051700089135FC0898181115CC0083008F059C073
:1051800080E18A95F1F7589A509A82E08A95F1F772
:1051900000C0589888E0089F80011124D801AC5FB6
:1051A000BE4F1696ED91FC9117973097A9F060913C
:1051B000B0017091B10114962D913C911597260F75
:1051C000371F11968D919C911297680F791F139636
:1051D0004C9113978C910995F801EC5FFE4F638118
:1051E000662351F08091B0019091B1012481358105
:1051F000820F931F0E9470280E94F82780E18A95F1
:10520000F1F758985098589A80E18A95F1F7F8018B
:10521000EC5FFE4F6081662351F08091B001909168
:10522000B10121813281820F931F0E9424280E94A4
:10523000F0270F90DF91CF91FF91EF91BF91AF9148
:105240009F918F917F916F915F914F913F912F919E
:105250001F910F910F900FBE0F901F9018950F93F5
:105260001F93CF93DF93883091050CF06DC0EC0154
:10527000F894509A589885E08A95F1F700009C2F91
:10528000969595702C2F2570920F892F8370969587
:10529000969523E0CC0FDD1F2A95E1F7980F8E013C
:1052A000092B0E94F82784E08A95F1F700C068E096
:1052B000802F0E94502880E18A95F1F75098589AE3
:1052C000489902C000C0FCCF87E090E0489B08C02E
:1052D000019721F4509A589A789436C000C0F6CFBE
:1052E000FE01EC5FFE4F6381662381F08091B00187
:1052F0009091B10124813581820F931F0E9424284F
:10530000811104C0509A589A78941FC00E94F027C7
:1053100080E28A95F1F75898509A80E18A95F1F7E2
:10532000CC5FDE4F6881662351F08091B00190918F
:10533000B10129813A81820F931F0E9470280E9437
:10534000F827789481E001C080E0DF91CF911F9130
:105350000F9108952F923F924F925F926F927F929A
:105360008F929F92AF92BF92CF92DF92EF92FF9275
:105370000F931F93CF93DF93CDB7DEB7CA1BDB0B21
:105380000FB6F894DEBF0FBECDBF09942A883988C6
:1053900048885F846E847D848C849B84AA84B984CD
:1053A000C884DF80EE80FD800C811B81AA81B981D9
:1053B000CE0FD11D0FB6F894DEBF0FBECDBFED01ED
:1053C00008958F929F92AF92BF92CF92DF92EF9209
:1053D000FF92CF93DF93EC01688179818A819B8171
:1053E000611571058105910521F464E279ED8BE584
:1053F00097E02DE133EF41E050E00E94952A49010A
:105400005A019B01AC01A7EAB1E40E94B42A6B01E6
:105410007C01ACEEB4EFA50194010E94C22ADC012C
:10542000CB018C0D9D1DAE1DBF1DB7FF03C00197A5
:10543000A109B04888839983AA83BB839F77DF91B2
:10544000CF91FF90EF90DF90CF90BF90AF909F9063
:105450008F9008950E94E129089580E091E00E94D4
:10546000E1290895A0E0B0E080930001909301014C
:10547000A0930201B09303010895F999FECF92BD64
:1054800081BDF89A992780B50895A6E1B0E044E07F
:1054900050E00C94872AA8E1B0E042E050E00C9480
:1054A000872ADC01A40FB51F4150504048F0CB01C2
:1054B000840F951F2E910E94622A41505040D0F7D0
:1054C0000895262FF999FECF92BD81BDF89A0197D4
:1054D00000B4021639F01FBA20BD0FB6F894FA9A3C
:1054E000F99A0FBE08950396272F0E94622A0E9400
:1054F000612A252F0E94622A242F0C94622A019689
:10550000272F0E94622A0C94612ADC01CB01FC0146
:10551000F999FECF06C0F2BDE1BDF89A319600B40C
:105520000D9241505040B8F70895052E97FB1EF498
:1055300000940E94AC2A57FD07D00E94C72A07FC9E
:1055400003D04EF40C94AC2A50954095309521959B
:105550003F4F4F4F5F4F089590958095709561959F
:105560007F4F8F4F9F4F08950E94E92AA59F900D6E
:10557000B49F900DA49F800D911D11240895B7FF35
:105580000C94B42A0E94B42A821B930B0895A1E2C2
:105590001A2EAA1BBB1BFD010DC0AA1FBB1FEE1FAD
:1055A000FF1FA217B307E407F50720F0A21BB30BF8
:1055B000E40BF50B661F771F881F991F1A9469F774
:1055C00060957095809590959B01AC01BD01CF01D0
:1055D0000895A29FB001B39FC001A39F700D811DCC
:1055E0001124911DB29F700D811D1124911D0895EC
:1055F000DB018F939F930E94B42ABF91AF91A29F2A
:10560000800D911DA39F900DB29F900D11240895C0
:10561000991B79E004C0991F961708F0961B881F04
:105620007A95C9F780950895AA1BBB1B51E107C065
:10563000AA1FBB1FA617B70710F0A61BB70B881F22
:10564000991F5A95A9F780959095BC01CD010895B1
:1056500097FB072E16F4009407D077FD09D00E941F
:10566000142B07FC05D03EF4909581959F4F08952B
:10567000709561957F4F0895EE0FFF1F0590F4918F
:10568000E02D09940E94E92A332312F48A1B9B0B14
:105690000C944C2B0E94E92AB7FF0895821B930BB0
:1056A00008950F93083090F0982F872F762F652F4D
:1056B000542F432F322F22270850F4CF220F331FAD
:1056C000441F551F661F771F881F991F0A95B2F741
:1056D0000F91089597FB10F8169400080F93083067
:1056E00098F00850232F342F452F562F672F782FEF
:1056F000892F902DF4CF0594979587957795679589
:1057000057954795379527950A95AAF70F910895CC
:10571000FC014150504030F001900616D1F731970E
:10572000CF010895882799270895FB01DC0104C063
:105730008D910190801921F441505040C8F7881B89
:10574000990B0895FB01DC0102C001900D924150BC
:0A5750005040D8F70895F894FFCFF9
:10575A000100000000000001000000000000000A33
:10576A0001000000000000010B0000000000000121
:10577A000C000000040D00000000000001110000F0
:10578A00000000000B1200000000000001F4F1F01C
:10579A00373392939594313267349701EB10331172
:1057AA00EA102C11F6F501191A1B1C1D1E1F2021C7
:1057BA002201020100100010103332363497F1F042
:1057CA00F4F5F695679337818283E200E900EA00EF
:1057DA00B500B600B700CD008301CC008A01920162
:1057EA0094012102230224022502260227022A0208
:1057FA00B300B4006F0070009F01CB019F02A002AA
:10580A002E0200FF0100010000FFFF00000100015D
:10581A00FF00000102020202060606090909090937
:10582A00090F0F0F0F0F0F15151518191919191937
:0E583A001919191919232425252525252500BE
:00000001FF
