:100000000C94F8030C941A300C9430040C943004C3
:100010000C9430040C9430040C9430040C94300490
:100020000C9430040C9430040C947B270C943F27E0
:100030000C9479280C9430040C9430040C94300403
:100040000C9430040C9430040C9430040C94300460
:100050000C9430040C9453280C9430040C94300409
:100060000C9430040C9430040C9430040C94300440
:100070000C9430040C9430040C9430040C94300430
:100080000C9430040C9430040C9430040C94300420
:100090000C9430040C9430040C9430040C94300410
:1000A0000C9430040C9430040C9430040501098045
:1000B000A101850319012AB700150126B700950192
:1000C00075108100C0050C0901A101850419012AE0
:1000D000A002150126A002950175108100C00660DE
:1000E000FF0961A1010962150026FF00952075082E
:1000F00081020963150026FF00952075089102C052
:1001000005010906A101050719E029E715002501E8
:10011000950875018102950175088101050719008F
:1001200029FF150026FF00950675088100050819AE
:1001300001290515002501950575019102950175A7
:10014000039101C0504F52514A4D4B4E2A4C2F3013
:10015000B6B7ABACBBBCA9AABDBE0D0E0B0F1A0542
:1001600008050905071811130408120C3C2D002D71
:100170003E006364207E010128002E2E2F010128FD
:10018000001E0F0500047F3F1F6432146432147890
:100190003C1E1E140A0500010101010101010101BB
:1001A0000202020202020202020303030303030328
:1001B00003040404040404040505050505060606F5
:1001C0000606070707070708080808090909090AB2
:1001D0000A0A0B0B0B0C0C0C0D0D0D0E0E0E0F0F57
:1001E0000F101011111112121313141415151616E5
:1001F0001717181819191A1A1B1B1C1D1D1E1E1F54
:100200002020212222232424252626272829292AA2
:100210002B2C2D2D2E2F30313232333435363738CA
:10022000393A3B3C3D3E3F404142434445464748C6
:10023000494A4C4D4E4F50515354555658595A5B9C
:100240005D5E5F616264656668696B6C6D6F70723C
:10025000737577787A7B7D7E8082838587888A8CA8
:100260008E8F91939596989A9C9EA0A2A3A5A7A9DC
:10027000ABADAFB1B3B5B7BABCBEC0C2C4C6C9CBD3
:10028000CDCFD1D4D6D8DBDDDFE2E4E7E9EBEEF089
:10029000F3F5F8FAFDFFFFAA7F55400102030C0DAC
:1002A0000E0F00070605040B0A090822232526283D
:1002B000292A2C2D2F3032333536383A3B3D3E40FB
:1002C00042434547494A4C4E5051535557595A5C41
:1002D0005E6062646668696B6D6F71737577797B58
:1002E0007D7F81838587898A8C8E90929496989A57
:1002F0009C9E9FA1A3A5A7A8AAACAEAFB1B3B4B66C
:10030000B8B9BBBCBEBFC1C2C3C5C6C7C9CACBCCC6
:10031000CDCED0D1D2D2D3D4D5D6D7D7D8D9D9DA99
:10032000DADBDBDBDCDCDCDCDCDDDDDDDDDCDCDC0E
:10033000DCDCDBDBDBDADAD9D9D8D7D7D6D5D4D336
:10034000D2D2D1D0CECDCCCBCAC9C7C6C5C3C2C10B
:10035000BFBEBCBBB9B8B6B4B3B1AFAEACAAA8A768
:10036000A5A3A19F9E9C9A98969492908E8C8A8920
:10037000878583817F7D7B79777573716F6D6B69FD
:1003800068666462605E5C5A5957555351504E4CD2
:100390004A4947454342403E3D3B3A383635333281
:1003A000302F2D2C2A292826252322000000003555
:1003B000001E001F0020002100220023000000007A
:1003C000002B0014001A00080015001700000000A0
:1003D000000000292104001600070009000A00009F
:1003E0000000000000E10000001D001B00060019D5
:1003F00000050000000000737CE3008252E2000070
:10040000002C41000024002500260027002D002E8E
:100410000000002A00A8001C0018000C00120013A5
:10042000002F00300031004A000B000D000E000FBD
:100430000033003400000028004D00110010003689
:1004400000370038000000E5005200797C00002CE5
:1004500000E600215200000000500051434F000010
:1004600000000001003A003B003C003D003E003F20
:100470000000000000010001000100520001000125
:100480000000000000000001000100500051004F7A
:100490000001000000000000000100000001000158
:1004A0000001000100010000000000350201000110
:1004B0000001000000010000004000410042004334
:1004C000004400450000004C000100010001000153
:1004D00000010001000100010001004B00010001CA
:1004E0000001000100010001000000427E4E0001F9
:1004F00000010001000100010000000100417E7ABE
:100500007C01000100010001000100000001000168
:100510000001000000000001003A003B003C003DEB
:10052000003E003F0000000000010001000100014A
:100530000001000100000000000000010001002196
:1005400002010001000100000000000000010000A5
:100550000001000100010001000100000000003561
:100560000201000100010000000100000040004104
:10057000002F0230024400450000004C0001000141
:100580000024020100010022020100010001004BD1
:100590000001000100010001000100010000000154
:1005A000004E0020020100010001000100000001D6
:1005B0000001007A7C01000100010001000100003F
:1005C00000447E0100437E0000000001003A003B31
:1005D000003C003D003E003F00000000002078216C
:1005E000780100010001000100000000000000018E
:1005F000000100257801000100010000000000005A
:100600000001000000010001000100277801000046
:1006100000000001000100010001000000010000D5
:10062000004000410042004300440045000000013A
:1006300000010001000100010001000100010001B2
:10064000000100007C23780100010001000100018D
:100650000000000100027C01000100010001000116
:100660000000000100010001000100010001000183
:10067000000100000001000100017CAA00A90000A7
:100680000000004E004B0000000000B700B6000064
:10069000000000217822780000000009025B0003BE
:1006A0000100A0FA09040000010301010009211161
:1006B000010001224400070581030800010904012B
:1006C000000203000000092111010001222200079D
:1006D000058203200001070503032000010904022D
:1006E000000103000000092111010001223200076E
:1006F000058403200001120100020000000810CB55
:1007000057331003010200012203510075006500F8
:100710006600720065006E006300790020005200E0
:10072000650076002E002000330000000E034B0011
:1007300065006500620069006F00000004030904A1
:1007400000000000000000000000000000000000A9
:100750000000000000000000000000000000000099
:10076000000000007E0F00D4FFFFFFC700000078EC
:1007700000000000000000002A2B280000000000FC
:100780000000000000000000000000290000000040
:100790002C1E3420212224342627252E362D3738AE
:1007A000271E1F202122232425263333362E3738B7
:1007B0001F0405060708090A0B0C0D0E0F10111275
:1007C000131415161718191A1B1C1D2F3130232D41
:1007D000350405060708090A0B0C0D0E0F1011123F
:1007E000131415161718191A1B1C1D2F3130354CF0
:1007F00011241FBECFEFDAE0DEBFCDBF04B603FE8B
:1008000018C08091140490911504A0911604B09121
:1008100017048730904BA740B04B59F41092140442
:10082000109215041092160410921704E0E0F8E3F9
:10083000099511E0A0E0B1E0E0E6F6E602C005901F
:100840000D92AE3FB107D9F724E0AEEFB1E001C0A1
:100850001D92A431B207E1F70E94A2280C942E3316
:100860000C940000482F20910C049091C30359E090
:10087000291302C080E0089530E0529FF001539F99
:10088000F00D1124EC53FC4F8181681306C0808168
:10089000481303C085818111EECF2F5F3F4F277032
:1008A000E7CFE8EDF0E080818E7F80831092E20058
:1008B0001092DA001092E100A0EEB0E08C9181601D
:1008C0008C9380818F77808319BCA7EDB0E08C91E9
:1008D0008E7F8C9380818F7E80831092AC030895ED
:1008E0002091E4003091E50085E69091EC0090FFC6
:1008F00006C09091E80090FF06C080E008959091B6
:10090000E80092FDFACF9091B903992391F09530C8
:1009100091F09091EB0095FD10C04091E400509152
:10092000E5002417350709F381509A01F1F684E0B8
:10093000089582E0089583E0089581E0089580910C
:10094000BB0387FF13C08091E80082FF06C080913F
:10095000E8008B778093E80004C08091B90381118F
:10096000F2CF08958091B9038823D9F38091E800EC
:1009700080FFF8CF8091E8008E77ECCF982F90938E
:10098000E900242F762F50E0891731F07091EC00A8
:100990002091ED005091F00021FD07C09F5F97303E
:1009A00071F78093E90081E008953091EB003E7F7C
:1009B0003093EB003091ED003D7F3093ED003091AE
:1009C000EB0031603093EB007093EC002093ED006E
:1009D0005093F0002091EE0027FDE0CF80E00895D5
:1009E000B0E0A0E0E6EFF4E00C944131C8EDD0E0D7
:1009F00088818F7E8883E7EDF0E08081816080834D
:100A000084E082BF81E08093AC0388818E7F8883FD
:100A100002EE10E0F80110821092DA0081EEC82E8A
:100A2000D12CF601108288818F7788838881806835
:100A3000888388818F7D888319BC1092B9031092B6
:100A4000BA031092B8031092B70390EEE92EF12C7E
:100A5000F70180818B7F808388818160888342E079
:100A600060E080E00E94BE04F60180818E7F80837A
:100A7000F801808181608083808188608083F701B4
:100A800080818E7F8083888180618883CDB7DEB747
:100A9000E8E00C945D31FC018091C1039091C203A8
:100AA00086179707A0F06115710529F49091E80069
:100AB0009E779093E80090E06115710551F49111D3
:100AC00008C08091E80082FF35C080E00895BC0135
:100AD000F2CF8091B9038823C9F18530C9F18091A3
:100AE000E80083FD31C08091E80082FDEACF80916B
:100AF000E80080FFE1CF2091F3008091F200322FD7
:100B0000282F6115710519F02830310558F091E052
:100B10002830310509F090E02091E8002E772093ED
:100B2000E800CACF81918093F100615071092F5F75
:100B30003F4FE7CF8091B903882341F0853041F0E2
:100B40008091E80083FFBDCF81E0089582E00895A1
:100B500083E008950895089508958091AE0308955F
:100B60002FB7F89460910D0470910E0480910F04DA
:100B7000909110042FBF08952FB7F89480910D0421
:100B800090910E04A0910F04B09110042FBF08950E
:100B90009C01FC0132969FEF80E04191461751F095
:100BA0009F3F19F4411101C0982F8F5F8630A9F73C
:100BB0009F3F09F40895290F311D97FD3A95F901DA
:100BC00062830895A3E0B0E0E8EEF5E00C944731CD
:100BD0002091A9033091AA0328173907A1F0909317
:100BE000AA038093A903E091A703F091A80330978B
:100BF00051F024E029839B838A830084F185E02DD2
:100C0000CE01019609952396E2E00C946331A3E0AE
:100C1000B0E0EDE0F6E00C9447312091A50330916F
:100C2000A60328173907A1F09093A6038093A50384
:100C3000E091A703F091A803309751F023E02983B6
:100C40009B838A830084F185E02DCE01019609956E
:100C50002396E2E00C9463318091A303882359F03A
:100C6000E091A703F091A803309729F00190F0815B
:100C7000E02D0995089580E008959C01FC0190E025
:100C80008491841307C0E1E0E927E20FF32FF11DFF
:100C9000849108959F5F31966913F2CF80E00895A3
:100CA0009091A20389029001112437FF03C0809321
:100CB000A20308952F3731051CF4980F9093A203D7
:100CC0000895FC01680F791F8FEF91E3219182272E
:100CD00028E030E087FF09C0880F892721503109BB
:100CE000C9F7E617F70791F70895880FF7CF90E057
:100CF0006623A1F087599E4FFC0120812F3F89F088
:100D0000E22FE295EF70F0E080A190E02F7002C03A
:100D1000959587952A95E2F78170089588599E4F99
:100D2000EBCF80E0089590E06623E9F087599E4F6D
:100D3000FC0180818F3FB1F0E82FE295EF70F0E089
:100D400041A18F7021E030E0B90102C0660F771F2A
:100D50008A95E2F7CB01962F9095942391A392A1C7
:100D6000892B82A3089588599E4FE2CF90919A03D0
:100D7000E92FF0E020919B032150330B23703327A0
:100D8000E217F307A9F0E456FC4F282F2F77808154
:100D90008078822B60FB87F980839F5F93709093AC
:100DA0009A03809198038F5F8093980381E0089560
:100DB00080E00895FA01811101C0FB0109950895B1
:100DC000EAE0F3E011828281846082830895CF9209
:100DD000DF92EF920F931F93CF93DF93CDB7DEB7E0
:100DE000E0970FB6F894DEBF0FBECDBF60916401EF
:100DF0008091900380FF37C0EBE9F2E09E012F5F06
:100E00003F4F8E010F5C1F4FC901A4914A2F50E044
:100E1000DA01AA0FBB1FA40FB51FA05FBC4FCD9076
:100E2000DD90EC90D901CD92DD92ED929D0131964D
:100E3000A017B10751F770E020916301B3E02B9F39
:100E4000800D911D11240E94550EE0960FB6F89466
:100E5000DEBF0FBECDBFDF91CF911F910F91EF90FD
:100E6000DF90CF900895809165019091660123E015
:100E7000829FF0011124E05FFC4F891708F0BCCF7E
:100E80001182108212828F5F3396F7CF9091900378
:100E900090FF0EC0909165012091660133E0939F11
:100EA000F0011124E05FFC4F921718F00E94E70652
:100EB00008958183608342839F5F3396F5CFE0E995
:100EC000F3E080818E7F80830E94E006EAE0F3E019
:100ED0008281816082830E94E70608958091900359
:100EE000982F9C7F29F483708460809390030895E9
:100EF0008C3AE8F38370886AF8CFB0E0A0E0E3E8CA
:100F0000F7E00C943F31C82ED62EE42FF0E0EA56DD
:100F1000FE4F61110FC0E4919E2F8E2FD9011196C3
:100F20008C931197EC9312969C93CDB7DEB7EAE0C1
:100F30000C945B31E62EF12CE491FE2F0E2F10E085
:100F400046E0849FC0011124CFEFD0E0BE010E9493
:100F500091328C2D90E0880F991FA5E5A69FA001E6
:100F6000A79F500D1124841B950BB82EBB0CB80EF7
:100F7000CE018E199F09809FA001819F500D909FE7
:100F8000500D1124952FDB9CD0011124AB2FBB27D2
:100F90006E01CA1ADB0AC09ED001C19EB00DD09E60
:100FA000B00D11248B2F6E01CB18D1085601AE9CC9
:100FB0006001AF9CD00CBE9CD00C1124CD2CDD2444
:100FC000CC19DD09C09F7001C19FF00CD09FF00CBF
:100FD000112462307105B1F058F46115710579F092
:100FE0006130710509F49ACF8E2FE52F9B2F96CF94
:100FF0006430710571F048F066307105A9F78E2FE5
:10100000EF2D8CCF852F9F2D89CFEB2F852F9F2FF5
:1010100085CF8F2DE52FFBCFA3E0B0E0E2E1F8E034
:101020000C9447319091900390FF0AC09E012F5F6E
:101030003F4F0E947D074B8169818A810E9446074C
:101040002396E2E00C946331CF93DF93EC01E0E967
:10105000F3E0438162818C810E940C088C818F5F58
:101060008C83DF91CF910895CF93DF93EC01EC81D6
:10107000F0E0E555FD4F4491E0E9F3E062818181C4
:101080000E940C088C818F5F8C83DF91CF91089533
:101090000F931F93CF93DF93EC0110E000E090914A
:1010A00067019017110609F06CF40E94E7068C8125
:1010B00090E00196817099278C83DF91CF911F91E9
:1010C0000F91089520916501A801420F511D9A01C9
:1010D000220F331F240F351F205F3C4F4C8160913E
:1010E00092038091910396959017110651F04CF060
:1010F000442349F0409193030E947D070F5F1F4FE7
:10110000CECF4423B9F340E0F7CFA3E0B0E0EBE863
:10111000F8E00C9445318C0180910F0381110AC0D5
:101120009E012F5F3F4F4FEF6FEF0E947D078A8137
:1011300080930F03F8018481813069F038F0409189
:101140000F03823009F040E080E003C080910F037C
:1011500040E060E004C060910F0340E080E00E9446
:101160004607F801848190E0019663E070E00E94F8
:10117000A53284832396E4E00C946131B0E0A0E0D2
:10118000E4ECF8E00C943D31EC014C81042F10E0CC
:101190009801D8010E9476329B01AC010E94413235
:1011A0004B015C01E0E2F0E0E01BF10BA5E5B0E0F3
:1011B000AC019B010E9441326B017C019F01DF0168
:1011C0000E94C6329B01AC010E944C329B01AC01D3
:1011D000280D391D4A1D5B1DC701B6010E945432FE
:1011E000022F30E00A3258F5C901880F991F880F85
:1011F000991F281B390B37FF02C02F5F3F4F3595D2
:1012000027951FEF120FF12C85E5E82EE01A80914B
:101210006701F81630F10E94E7069C8181E099236E
:1012200019F0903219F48FEF80936201809162017E
:10123000890F8C83CDB7DEB7ECE00C94593185E58E
:1012400090E0821B930B9C01220F331F220F331F50
:10125000821B930B97FD0196959587951FEF180FAD
:10126000D2CF8E2DF1FC802F20916501622F6F0D62
:101270007727771F9B01220F331F260F371F205F11
:101280003C4F412F609192030E947D07F394BFCFA2
:10129000EF92FF920F931F93CF93DF93EC018C811A
:1012A000811109C081E08C8310920E0392E090932B
:1012B000610180936001809165019091660123E056
:1012C000829FF0011124E05FFC4F891758F110E074
:1012D00003E060916701161758F10E94E7068091BC
:1012E000600120910E03280F20930E03909161015D
:1012F000980F90936101191654F4022E000C330BD1
:10130000409167014150550B2417350734F0819502
:1013100080936001813009F41C82CDB7DEB7E6E02E
:101320000C945F311182108212828F5F3396CDCF81
:10133000E12EF12C70E0C7010E94A53220916501D9
:10134000820F482F50E020910E03022E000C330B29
:10135000E216F306BCF020916101022E000C330B63
:101360002E153F057CF0809F90011124205F3C4F9B
:101370004091930360919203809191030E947D07B5
:101380001F5FA7CFFA01EE0FFF1FE40FF51FE05F0D
:10139000FC4F118210821282F3CFB0E0A0E0E3EDA7
:1013A000F9E00C943E31EC018A81BB24B39480FFB8
:1013B00002C0BB24BA94A09067018C81811109C03E
:1013C00081E0B8121EC08FEF8A0D80930D0381E07B
:1013D0008C83F12CE12CEA14B8F00E94E70680918E
:1013E0000D0391E0B91254C081114DC08091670185
:1013F000815080930D031C82CDB7DEB7EBE00C94D7
:101400005A3110920D03E3CF009165010E0D1F2D8F
:10141000111DC801880F991F080F191F005F1C4F6D
:10142000F80111821082128234E0C32ED12C912C4B
:1014300080910D03890D813114F18F70082E000CFD
:10144000990BE816F90691F4809193038C9DA00105
:101450008D9D500D112455954795559547959801AB
:1014600060919203809191030E947D079B0CF1E0B3
:10147000CF1AD108E9F68FEFE81AF80AACCF87FF48
:10148000DDCF8A0DDBCF815080930D03BC82B4CFBA
:1014900090E001966091670170E00E94A532809310
:1014A0000D038C83A9CFEF92FF921F93CF93DF930D
:1014B000EC0110E0EE24EA94F12C6091670116171C
:1014C00070F00E94E7069A818C8190FF27C08F5FA1
:1014D0008C83DF91CF911F91FF90EF900895209121
:1014E0006501422F410F5527551FCA019A01220F4E
:1014F000331F280F391F205F3C4F70E0C7010E9447
:10150000A532962F8C814091930360919203199F8D
:10151000800D11240E947D071F5FCFCF8150D8CF4F
:1015200080E0089581E08093EE020895F894E82F1A
:10153000E295EF70F0E031A1282F2F7081E090E06C
:1015400001C0880F2A95EAF7982F9095932391A3CD
:1015500092A1892B82A3789408950F931F93809171
:10156000A303882329F00E94B0051F910F910895CD
:101570000E94B0050091AF021091B0022091B1021B
:101580003091B202600F711F821F931FEECF8091C6
:10159000A303882319F00E94BC0508950E94AD0A98
:1015A000CB0108959091CB0292FF10C041E0282F0B
:1015B0002471243009F040E031E0282F28712830D0
:1015C00009F030E0431711F02CE0822793FF10C0A0
:1015D00041E0282F2471243109F040E031E0282F28
:1015E0002871283109F030E0431711F02CE08227F0
:1015F0003091CC0230FF10C051E0282F21712130F2
:1016000009F050E041E0282F2871283009F040E02F
:10161000541711F029E0822731FF10C041E0282F34
:101620002171213109F040E031E0282F2871283163
:1016300009F030E0431711F029E0822794FD877EFE
:10164000089582389105B9F1B0F48133910509F418
:101650007DC048F48932910509F46DC08A32910544
:1016600009F479C008958533910509F45FC0893381
:10167000910509F10895833E9105D9F138F4803E32
:10168000910529F1823E910579F10895863E9105F3
:10169000D9F1873E910509F43EC0843E910541F59C
:1016A0002091CC0221FF24C08091CB0284FD19C07F
:1016B00087EE90E008952091CB02237009F056C088
:1016C0002091CC0223FF14C089E290E0089520917C
:1016D000CB0220FD38C03091CC0230FF09C024FF7E
:1016E0003FC090E080E008952091CB0222FDF7CF2B
:1016F00008952091CB0222FD36C03091CC0230FDFE
:1017000035C024FDEECFF4CF2091CB0223FFF0CFE4
:1017100024FDE7CFCDCF2091CB0223FD2AC030910D
:10172000CC0231FFEECF84EE90E008952091CB0201
:1017300025FDCACF08952091CB0225FD1DC0209123
:10174000CC0223FFD5CF89E390E008952091CB020E
:1017500026FD15C008952091CB0226FD13C00895E3
:1017600083EE90E0089582EE90E0089580EE90E0A0
:10177000089586EE90E0089585E390E008958AE26A
:1017800090E0089581E390E0B3CF1F93CF93DF9370
:101790000E94210BEC01C11580E5D807E8F5C115C1
:1017A00080E4D80708F09BC0C03ED10518F5CD3CB9
:1017B000D10508F081C0C83AD10570F4C53AD10509
:1017C00008F072C0C130D10511F118F0C430D10554
:1017D000F0F4D0E0C0E01BC0C33CD105D0F7C85A3C
:1017E000D0E0CC0FDD1FC458DE4F0990D881C02D4A
:1017F000D4640DC0C11580E2D80708F0CBC0C11574
:1018000081E0D80708F05AC0C83ED10510F7CE01D4
:10181000DF91CF911F910895C03682E5D80718F562
:10182000C03482E5D80708F069C0C03282E5D80725
:1018300008F05DC0C11582E5D80708F493C02C2FCD
:101840002695269580E2289F900111248C2F837085
:10185000C1E0D0E002C0CC0FDD1F8A95E2F7C22BB9
:10186000D32BDD68D4CFC03A82E5D80760F4C03806
:1018700082E5D80708F457C0CF71D0E0DC2FCC2721
:10188000C46FD06AC4CFC03C82E5D80708F45EC0FC
:10189000C03E82E5D80708F09CCFDC2FCC27CC27B0
:1018A000DF71C06FD06AB3CFC55AD0E0C758DE4FE2
:1018B000C881D0E0D064ABCFD065A9CF8D2F0E9476
:1018C000D20A182FCE0199270E94210BC12FD0E0F8
:1018D000DC2FCC27CC27DF71C82BD92B98CFCE019A
:1018E00099270E94210BCC27DF70D06AF5CFCF71EA
:1018F000D0E0DC2FCC27C16FD06A89CF2C2F269562
:101900002695277080E2289F900111248C2F8370E8
:10191000C1E0D0E002C0CC0FDD1F8A95E2F7DC68A1
:10192000C22BD32B74CF2C2F26952695277080E2BF
:10193000289F900111248C2F8370C1E0D0E002C059
:10194000CC0FDD1F8A95E2F7DA68EACF8C2F8F7112
:101950000E94D20AC82FD0E0DC2FCC27CC27DF7121
:10196000D06255CF8C2F8F710E94D20A55E0D69548
:10197000C7955A95E1F7CF70D0E0DC2FCC27282F00
:1019800030E084FF05C044E0220F331F4A95E1F7A1
:10199000D069C6CF8D2F8F710E94D20A182FCE0129
:1019A00099270E94210BC12FD0E0DC2FCC27CC2718
:1019B000DF71906291CF8091630281111092630276
:1019C0000895982F909580916202892380936202F6
:1019D000089580910C049091C303981301C0089559
:1019E0008F5F8770FACFA82FA77023E09695879511
:1019F0002A95E1F7FC01EE0FFF1FE80FF91FE60F34
:101A0000F71F50E040E080E0219130E00A2E02C054
:101A1000369527950A94E2F721703327042E01C0EA
:101A2000220F0A94EAF7822B4F5F5F4F4330510534
:101A300059F70895292F9A3068F4893058F490E0C6
:101A40006CE272E039E0239F800D911D11240E9409
:101A5000F30C08952C5F223020F469E272E090E0EC
:101A6000F6CF80E00895262F277091E001C0990FEE
:101A70002A95EAF723E0769567952A95E1F7FB0129
:101A8000EE0FFF1FE60FF71FE40FF51F50E040E0D9
:101A9000682F70E08191DF0111979B01042E02C035
:101AA000369527950A94E2F7217021952827292356
:101AB00028272C934F5F5F4F4330510559F7089506
:101AC000282F862F9A3070F4293060F4622F70E04E
:101AD00029E0929F600D711D11244CE252E00E949A
:101AE000330D08959C5F9230E0F7622F70E049E279
:101AF00052E0F5CF8093CA0208959091CA0221E086
:101B000030E0F90101C0EE0F8A95EAF7D90102C071
:101B1000AA0FBB1F6A95E2F7EA2B01C0220F4A9574
:101B2000EAF7892F8E23E81305C0292B822F0E9404
:101B30007A0D089520952923F9CF21E030E001C0E6
:101B4000220F8A95EAF720958091CA0282230E948B
:101B50007A0D0895909159028095892380935902B6
:101B6000282F277069F4891759F09091CC0292FFC1
:101B700007C08695869586950E949D0D1092590204
:101B8000089521E030E001C0220F8A95EAF78091A4
:101B9000CA02822B0E947A0D08958093C90208958B
:101BA00090914A01992319F081FD03C02E9A81E09A
:101BB00008952E98FCCF0F931F93CF93DF938B0143
:101BC000EA019091B903943061F58093E9008FEFB9
:101BD0009091E800815095FD06C095ED9A95F1F73A
:101BE00000008111F5CF8091E80085FF1AC00E94A6
:101BF0007004811111C08091E80085FD06C08091BC
:101C0000E8008E778093E800F2CFF80181918F0190
:101C10008093F100219779F78091E8008E77809387
:101C2000E800DF91CF911F910F91089543E050E0BC
:101C3000BC0184E00E94DB0D0895CF93DF93EC019B
:101C400048E050E0BC0181E00E94DB0D88E0FE012D
:101C5000AFEAB3E001900D928A95E1F7DF91CF9161
:101C6000089581E08093E00080E28093D800109294
:101C7000C9008FE19EE40197F1F700C0000087E002
:101C800090EBDC018093140490931504A093160448
:101C9000B093170488E19CE00FB6F894A895809360
:101CA00060000FBE90936000FFCF6E9A2EB12F7B25
:101CB0003EB130644FB7F894FC01CB01880F991FF7
:101CC000680F791F6E0F7F1FE617F70741F44FBFAC
:101CD0008FE594E00197F1F700C00000089581912D
:101CE00098E03EB9000000C087FF2EB9880F0000C1
:101CF00000C000C000C02EB900C09A9591F7E4CF93
:101D0000B0E0A0E0E6E8FEE00C943F317C015B012E
:101D10006A018091AE0201E010E08A3010F40AE01E
:101D200010E0C1E0D0E0B501C701F60109958111CD
:101D300004C021960C171D072CF4CDB7DEB7EAE0DE
:101D40000C945B31CC9F9001CD9F300D300D112450
:101D500090E080E045E34A95F1F700000196821794
:101D60009307C1F7E0CFCF93C82F6FEF811165E2E2
:101D700085E290E00E94EE316FEFC11169E086E2EA
:101D800090E00E94EE316FEFC11166E287E290E0D1
:101D90000E94EE31CF910895CF93DF93CAE1D3E053
:101DA00060E0CE010E94EE312196C11584E0D80793
:101DB000B9F7DF91CF9108950F931F93CF93DF93DE
:101DC000843030F5623020F598E0899FE0011124DD
:101DD00084E0689FB0011124C60FD71FC650DD4FA5
:101DE00082E090E0442311F090E080E0632F022F26
:101DF000142F8C0F9D1F0E94EE3183E090E0112381
:101E000011F081E090E0602F8C0F9D1F0E94EE3159
:101E1000DF91CF911F910F9108951F93CF93DF937F
:101E2000962F8430E8F46A30D8F44930C8F4632F30
:101E3000122FC42FD0E0CC0FDD1F22E1929FC00DE6
:101E4000D11D112494EB899FC00DD11D1124CE0109
:101E50008A960E94EE31612FCE018B960E94EE3160
:101E6000DF91CF911F910895B0E0A0E0EAE3FFE099
:101E70000C943F31CBE7D6E0D12CC12CB12C7601AC
:101E8000A12C1AC0F801EE0DFF1DEE0FFF1FE55546
:101E9000FC4F25913491402F6A2D8B2D0E940D0F00
:101EA0000F5F1F4F0930110569F789E0E80EF11C3B
:101EB000A3948AE0A81619F010E000E0E3CFFE0139
:101EC0002591349141E060E08B2D0E94DC0EFE01F3
:101ED00032962591349140E060E08B2D0E94DC0E1B
:101EE000FE0134962591349141E061E08B2D0E94F2
:101EF000DC0EFE0136962591349140E061E08B2D99
:101F00000E94DC0E2896B3948AE5C80ED11C84E0AA
:101F1000B812B5CFCDB7DEB7EAE00C945B3180E004
:101F20000E94B30E6EED89E290E00E94EE3160E017
:101F300088E290E00E94EE310E94340F0E94CC0EA5
:101F400081E00E94B30E089585E290E00E94CA31BC
:101F5000853289F486E290E00E94CA31893059F4D2
:101F600087E290E00E94CA3191E0863209F090E069
:101F7000892F8170089580E0FCCFFF920F931F930B
:101F8000CF93DF93843078F5623068F528E0829F44
:101F90008001112434E0639FB0011124060F171F44
:101FA00006501D4F82E090E0442311F090E080E065
:101FB000F42E800F911F0E94CA31C82FD0E0DC2F71
:101FC000CC2783E090E0FF2011F081E090E0800FCB
:101FD000911F0E94CA319E01282BC901CDB7DEB7DF
:101FE000E5E00C94603190E080E0F8CF0F931F9310
:101FF000CF93DF93843030F56A3020F5493010F507
:10200000C42FD0E0CC0FDD1F22E1629FC00DD11D97
:10201000112434EB839FC00DD11D1124CE018A966B
:102020000E94CA31082F10E0102F0027CE018B9696
:102030000E94CA319801282BC901DF91CF911F91CD
:102040000F91089590E080E0F8CF7A3048F469303D
:1020500070F4843060F4462F672F0E94F60F0895C5
:102060007D3F41F4623018F441E0843050F090E05C
:1020700080E008957C3FD9F76230C8F78430B8F724
:1020800040E00E94BD0F0895CF92DF92FF920F9320
:102090001F93CF93DF936C010091CA028091C90214
:1020A000082BC3E0D0E010E0FC2EC8010C2E02C0CB
:1020B000959587950A94E2F780FD0CC02197A0F7CB
:1020C000F12C8F2DDF91CF911F910F91FF90DF9019
:1020D000CF900895B6018C2F0E9425100E94C50B49
:1020E000019761F3EECFCF93DF93EC010E94441090
:1020F000BE010E9425100E94C50BDF91CF9108956B
:10210000FC0124812223F1F087819085009789F0DA
:102110000E94C50B92959F709630B1F078F4925062
:10212000923080F4803F19F058F4883E58F481E0F2
:102130000895808191810E947310ECCF9A50F0CF66
:10214000843FA9F380E00895883E88F3813FD1F76A
:10215000EECFA6E0B0E0EFEAF0E10C944631FC01EE
:10216000878190850097E9F4CF0126E0DE01119682
:1021700001900D922A95E1F7FC01258189819A81D0
:10218000222399F0662389F00E944410182F682FAB
:1021900089819A810E94600D69817A81812F0E94D4
:1021A00025102696E3E00C9462310E941A0D182F38
:1021B000F3CFB0E0A0E0EFEDF0E10C943931FC0199
:1021C0006280448081E08483EBEAF2E07490EAE28A
:1021D000F3E0E491C0919303C695C158D0E0CC0FD1
:1021E000DD1FCD2FDD27812C75E0972EAA24AA9420
:1021F000B12C55245A94E719EE2EF12C80916701E9
:10220000881638F00E94E706CDB7DEB7E0E10C94FF
:102210005531C82CD12C82E0861568F09C9CF001C9
:102220009D9CF00D1124E05CFC4F80919103808314
:10223000809192038183411023C09C9CF0019D9C5E
:10224000F00D1124E05CFC4F138212822091650195
:10225000C601820F911D9C01220F331F280F391FC9
:10226000205F3C4F9C9CF0019D9CF00D1124E05C94
:10227000FC4F4281618180810E947D078394BECFA3
:102280009C9C80019D9C100D1124005C1C4FF8014A
:1022900083818823F1F081508383859DC0011124BF
:1022A000648170E00E949132FB01FF27E555FD4FEC
:1022B0008491E82FE719E59DC0011124B7010E9420
:1022C000913280919303689FB0011124F8017283C9
:1022D000BDCF0E94BA31B5010E94A5328C179D076F
:1022E0000CF0B4CFF2E0F61598F40E94BA31B501C3
:1022F0000E94A532F80180830E94BA312091920396
:102300002695622F70E00E94A532280FF8012183E4
:102310009C9CF0019D9CF00D1124E05CFC4F12820E
:1023200080919303893C58F088EC9C9CF0019D9C23
:10233000F00D1124E05CFC4F8483838387CF8431CC
:10234000A0F784E1F2CF609190036695669570E006
:102350004BE050E085E591E00E940B33892B19F4A6
:1023600081E080930B030E94C70A9093050380933A
:10237000040380910C03846080930C030895B0E003
:10238000A0E0E5ECF1E10C943D3149015A016B010B
:102390007C010E946E078401A4016A2D7B2D88E0D8
:1023A00090E00E94003294014A2D5B2DB601C701D6
:1023B00000E20E94F032622F84E290E00E94EE314F
:1023C000CDB7DEB7ECE00C945931A3E0B0E0EBEE12
:1023D000F1E10C944031082FE62EF42EC22E90919C
:1023E000900390FF41C020919103281308C0809171
:1023F0009203861304C080919303841729F080917F
:102400000C03826080930C03E92FE695E695AE2FCE
:10241000B0E0AC53BE4F8C9180930A039C7F943004
:1024200039F59E012F5F3F4F4F2D6E2D802F0E945B
:102430007D074B8169818A810E9446070093910341
:10244000E0929203F0929303CC2071F020919003DC
:102450006091940370919503302FA70180919603AA
:10246000909197030E94BF112396E9E00C945C3190
:10247000823019F4F0909303E1CF8630A1F18930D6
:1024800091F18931D9F6E9516E2F6170B62EE6953A
:10249000F0E0EA56FD4F1491D12C60916701D616F9
:1024A00018F00E94E706CACFD19EC001112470E047
:1024B0000E949132802FB11014C0860F20916501C7
:1024C000622F6D0D7727771F9B01220F331F260F79
:1024D000371F205F3C4F4F2D6E2D0E947D07D394F8
:1024E000DCCF861BEBCF022FA9CFE0E9F3E04381DD
:1024F00021E1421B08F440E021E0628181810E94D9
:10250000E5110895E0E9F3E0438121E1420F08F489
:102510004FEF21E0628181810E94E5110895E0E999
:10252000F3E0628121E1621B08F460E021E0438175
:1025300081810E94E5110895E0E9F3E0628121E1E3
:10254000620F08F46FEF21E0438181810E94E51161
:102550000895E0E9F3E0818121E0438162818850C0
:102560000E94E5110895E0E9F3E0818121E04381D3
:102570006281885F0E94E511089580919403882309
:1025800019F081508093940320919003309191032E
:10259000409192035091930360919403709195033D
:1025A00080919603909197030E94BF1108958091A6
:1025B0009403833018F48F5F8093940320919003E9
:1025C0003091910340919203509193036091940351
:1025D0007091950380919603909197030E94BF118B
:1025E00008959091900390FF3AC09370811138C084
:1025F00094609093900380910C03816080930C030E
:10260000662391F0209190033091910340919203C1
:102610005091930360919403709195038091960378
:10262000909197030E94BF11609190036695669503
:1026300070E04BE050E085E591E00E940B33892B80
:10264000B9F00E94E00681E08093070320E040910A
:10265000930360919203809191030E94E511089584
:102660008B3210F0986AC5CF880F880F982BC1CF96
:102670000E94A311E8CF61E00E94F11208958091B9
:10268000900386958695815009F48AE261E00E9464
:10269000F112089580919003869586958F5F8B3215
:1026A00008F081E061E00E94F1120895909190039A
:1026B00090FF09C096959695981728F0961718F4EC
:1026C0000E944A1308950E943B1308959091CC02F2
:1026D00092FB222720F9281779F080FB92F990933A
:1026E000CC026091CB027091CC0284E090E00E9419
:1026F0000C3282E00E94AA0D0895ABE0B0E0E3E85E
:10270000F3E10C94473188E0E0E9F3E0DE01119653
:1027100001900D928A95E1F780910A0390910B0345
:10272000A0910C0389879A87AB872B854091AA02D9
:102730005091AB026091AC027091AD023FB7F8943A
:1027400080910D0490910E04A0910F04B09110049B
:102750003FBF841B950BA60BB70B84369105A105D3
:10276000B10510F4222319F18091350190913601C1
:1027700089579D4F4091340150E04C30510510F085
:102780004BE050E0BE016F5F7F4F0E94253386E033
:1027900090E00E94C030882369F00E94B0056093E9
:1027A000AA027093AB028093AC029093AD02109298
:1027B0000C0381E02B96E2E00C946331A4E0B0E0DE
:1027C000E4EEF3E10C94463140918302509184028F
:1027D00060918502709186022FB7F89480910D0464
:1027E00090910E04A0910F04B09110042FBF841B90
:1027F000950BA60BB70B11E084369105A105B10529
:1028000070F10E94AD0A6E5F7F4F8F4F9F4F6983BB
:102810007A838B839C8380912D0190912E0189571F
:102820009D4F40912C0150E04530510510F044E09F
:1028300050E0BE016F5F7F4F0E94253385E090E03E
:102840000E94C030182F882351F00E94B005609379
:102850008302709384028093850290938602812F75
:102860002496E3E00C946231A1E0B0E0EAE3F4E105
:102870000C943B31C62E4A015901682E880F770807
:10288000C3010E94C030D82E882309F474C0C3014C
:1028900023E0880F991F2A95E1F7FC01EC5FFE4FBA
:1028A000438150E04115510511F041E050E08C5F4B
:1028B0009E4FFC016481758169577D4FCE01019661
:1028C0000E942533F40140815181628173812FB7C9
:1028D000F89480910D0490910E04A0910F04B09192
:1028E00010042FBF841B950BA60BB70B84369105E4
:1028F000A105B10538F4B701C8010E9461069981AC
:102900008917C9F10C2C000CDD08C6010E94C030EB
:10291000782E8823C9F0960183E0220F331F8A9511
:10292000E1F7F901EC5FFE4F438150E0E416F50654
:1029300008F4A7012C5F3E4FF90164817581695746
:102940007D4FC5010E942533B701C8010E94610671
:1029500091E02981281390E0D92ED72039F00E94E8
:10296000B005F40160837183828393838D2D21965A
:10297000EEE00C945731A701B801C5010E94253340
:10298000F5CFA8E0B0E0E7ECF4E10C94433188E047
:10299000E82EF12C03E912E09E012F5F3F4F4FE735
:1029A00052E063E082E00E943414082F882389F10A
:1029B0009091920280917E02981759F110E09091C7
:1029C0009602809195028917F1F0E92FF0E0E55722
:1029D000FD4F848587FB662760F99F5F9370909316
:1029E0009602909194029F5F909394028F770E9439
:1029F000B606182F8111E3CF84E090E00E94C0302A
:102A0000012F082302C01111F7CF80919202809309
:102A10007E02802F2896E6E00C945F31AAE0B0E0B9
:102A2000E4E1F5E10C9441316B018AE0E82EF12CF0
:102A300008E812E09E012F5F3F4F4AE752E061E055
:102A400080E00E943414882349F09AE0FE01319618
:102A5000A0E7B2E001900D929A95E1F79AE0E0E7E5
:102A6000F2E0D60101900D929A95E1F72A96E8E0FE
:102A70000C945D31AFE1B0E0E0E4F5E10C94393164
:102A80008E010F5F1F4F84E1F80111928A95E9F7DB
:102A900065E4E62E61E0F62E68017AE4472E71E0E7
:102AA000572E66246394712CF5E48F2EF1E09F2E4F
:102AB000F70181917F018F3F09F445C0F894E82F19
:102AC000E295EF70F0E021A18F70A30102C0440FE6
:102AD000551F8A95E2F7CA01922F982B91A392A1D4
:102AE0008095892382A3789400C0ECE3F1E021E093
:102AF00030E0B12CA12C41914F3F09F49FC0A42F8D
:102B0000A295AF70B0E090968C9190E04F7002C0AB
:102B1000959587954A95E2F780FD90C0C901A82A4E
:102B2000B92A220F331F8E169F0629F7F701319716
:102B300080818F3F11F00E94960A50EA5A95F1F772
:102B4000F601B182A082F2E0CF0ED11C4E145F04D8
:102B500009F0AECF44E150E0B80183EB92E00E946F
:102B60001833892B09F440C184E1F801A3EBB2E0EA
:102B700001900D928A95E1F781E0809368020E94AE
:102B8000BC059093670280936602F12CE090A3034A
:102B90000091C80210E0000F111F00511D4FEE20E0
:102BA00009F493C06E0125E1C20ED11C8AE0F60142
:102BB00011928A95E9F78091AE028A3008F043C0FD
:102BC0004EE055E1B601C8010E94800E882309F449
:102BD00069C041EC54E1B601C8010E94800E88230F
:102BE00009F460C04EED53E1B601C8010E94800EA9
:102BF000882309F457C04DE753E1B601C8010E948C
:102C0000800E882309F44EC01092AE028091C70254
:102C100090E0880F991F4AE050E0B60180519D4F27
:102C20000E94183321E020936F02892B61F5E12C7B
:102C30008E2D8F296F96E0E10C94553190E080E065
:102C40006ECFF12C03C12091690230916A024FB717
:102C5000F89480910D0490910E04A0910F04B0910E
:102C600010044FBF821B930B843F914008F0A8CF04
:102C700080916F028823D9F28AE0F60111928A9539
:102C8000E9F710926F02A091C702B0E0AA0FBB1F34
:102C9000A051BD4F8AE0FE01759601900D928A9574
:102CA000E1F7C6CF8091AE028F3F19F08F5F80931E
:102CB000AE028091AE028A3008F4A8CF0E94BC0513
:102CC00090936A0280936902D3CF8AE0F801A8E862
:102CD000B2E001900D928A95E1F76AE070E088E831
:102CE00092E00E9461068093870288E0E8E9F3E0C1
:102CF000A3E9B2E001900D928A95E1F768E070E0F7
:102D000083E992E00E9461068093920280909B0288
:102D100090909C02A0909D02B0909E0280916B02C8
:102D200090916C02A0916D02B0916E028816990686
:102D3000AA06BB06B1F080926B0290926C02A09240
:102D40006D02B0926E020E94B005861A970AA80A18
:102D5000B90A8092AF029092B002A092B102B092F2
:102D6000B2028BE0EFE9F2E0DE01559601900D92A0
:102D70008A95E1F780919F0286958695D090A00272
:102D8000C090A102B090A2020091A8021091A902E5
:102D90001092A902112309F44BCF10FF0BC09D899B
:102DA00090FF1CC09091900391609093900360E01D
:102DB0000E94F11211FF06C020E04B2D6C2D8D2DCD
:102DC0000E94E51112FF04C0002359F00E94A311D4
:102DD00013FF2ECF81E0809307032ACF0E945F0765
:102DE000E9CF0E94E006F4CFF0906802FF2009F4DA
:102DF000CCCE0091C80220916602309167024FB795
:102E0000F89480910D0490910E04A0910F04B0915C
:102E100010044FBF821B930B079708F4B6CE10E047
:102E2000000F111F00511D4F4AE050E063EB72E0AC
:102E3000C8010E941833892B09F403CF8AE0E3EB21
:102E4000F2E0D80101900D928A95E1F710926802A4
:102E50009DCECF93C09162028091A003C82B809138
:102E60006302882351F0C82BE2E0F2E097E080E0B3
:102E7000915031F581110E94DB0CC093000248E0B3
:102E800050E06AE572E080E092E00E941833892BFE
:102E9000A9F088E0E0E0F2E0AAE5B2E001900D924E
:102EA0008A95E1F7E091A703F091A803309731F0FC
:102EB0000280F381E02D80E092E00995CF910895A2
:102EC00021912223A9F28F5FD3CF10926202E2E018
:102ED000F2E086E0DF011D928A95E9F790E080E05C
:102EE0000E94070690E080E00E94E2051092A00395
:102EF0000E9429170895AAE2B0E0E1E8F7E10C94F6
:102F00004631EBEBF3E08091F100819383E0E33C09
:102F1000F807C9F78091BC03833009F47FC008F536
:102F2000813009F456C0823009F4C0C08091E800B5
:102F300083FFFAC08091BB039091BC039A3008F0E4
:102F4000F3C0E92FF0E0E955F84E0C94B932671858
:102F50008D1894188D189418E51807199418061AE6
:102F6000131A8A3009F491C08B3009F474C0893087
:102F7000E9F68091BB038132C9F68091BF0390913D
:102F8000C003009711F0029789F68091E800877FCF
:102F90008093E8008091E80082FF3BC08091F300BD
:102FA0009091F200892798278927029731F4809120
:102FB000F100813011F0863021F48091F10080938E
:102FC000AE038091E8008B778093E8000E949F0415
:102FD000ADCF8091BB03813A09F0A8CF8091E80082
:102FE000877F8093E8008091BF039091C003892B75
:102FF00061F060E090E080E070E00E944B0580911D
:10300000E8008B778093E80091CF68E08FEA93E047
:10301000F3CF8091B9038111BDCF88CF8091BB03DD
:10302000813A09F083CF8091BF039091C003892B2F
:1030300009F07CCF8091E800877F8093E800809141
:10304000E80080FFFCCF80916A018093F1008091BD
:10305000E8008E77B9CF8091BB03813209F066CF4B
:103060008091BF039091C003892B09F05FCF8091BD
:10307000E800877F8093E8000E949F048091BD0351
:1030800080936A010E94651751CF8091BB03813202
:1030900009F04CCF8091E800877F8093E8000E9480
:1030A0009F048091BE038093AD0340CF8091BB030A
:1030B000813A09F03BCF8091E800877F8093E80058
:1030C0008091E80080FFFCCF8091AD03BECF8038B7
:1030D00089F0823849F58091BF038F70873020F5E1
:1030E0008093E9008091EB0085FB882780F910929E
:1030F000E90006C08091B7039091B80391118260F6
:103100009091E800977F9093E8008093F1001092EF
:10311000F1008091E8008E7727C0282F2D7F21F4C1
:103120008823A1F0823029F18091E80083FF0AC052
:103130008091E800877F8093E8008091EB008062B7
:103140008093EB00AA96E3E00C9462318091BD037A
:10315000813051F7933009F080E08093B8031092EA
:10316000E9008091E800877F8093E8000E949F0437
:10317000DBCF8091BD038111F2CF8091BF038F70AF
:103180002FEF280F263080F68093E9002091EB0086
:1031900020FFE5CF933031F48091EB008062809383
:1031A000EB00DDCF9091EB0090619093EB0021E07C
:1031B00030E001C0220F8A95EAF72093EA001092CE
:1031C000EA008091EB008860EACF8111ADCF1091C9
:1031D000BD031F778091E3008078812B8093E3000B
:1031E0008091E800877F8093E8000E949F0480918F
:1031F000E80080FFFCCF8091E30080688093E300CB
:1032000083E0111101C082E08093B9038DCF805813
:10321000823008F089CF2091BD033091BE032C3D50
:10322000A3E03A07A1F583E08A838AE289834FB756
:10323000F894DE01139620E03EE051E2E32FF0E047
:1032400050935700E49120FF03C0E295EF703F5F79
:10325000EF708E2F90E0EA30C0F0C7968D939D936B
:103260002F5F243159F74FBF8091E800877F80930B
:10327000E8006AE270E0CE0101960E944B05809161
:10328000E8008B778093E8004FCFC096E7CF80911E
:10329000BF039091C003432F55274330510509F4D4
:1032A0004FC078F54130510509F445C08BE590E0F9
:1032B000EBE9F6E04230510509F036CF2091E80005
:1032C000277F2093E8002091C1033091C203821729
:1032D000930708F49C0140E02115310509F063C013
:1032E000411161C08091E80082FDC9CF8091B9038E
:1032F000882329F2853019F28091E80083FFF2CF0C
:10330000BECF4132510509F43FC04232510509F0A8
:103310000BCF8330910508F007CFFC01EE0FFF1FA4
:10332000EE50FE4F0190F081E02D81519E4FDC0167
:103330008C9190E01DC082E190E0E6EFF6E0BECF18
:10334000332721303105C1F060F02230310509F01A
:10335000EBCEE8E0F7E0E4918E2F90E0E8E0F7E0D4
:1033600007C0ECE3F7E0E4918E2F90E0ECE3F7E0A8
:10337000009709F4D9CEA2CFECE2F7E0E4918E2FCA
:1033800090E0ECE2F7E0F4CF8330910508F0CCCE8A
:10339000880F991FFC01E850FE4F0190F081E02D4D
:1033A00089E090E08BCF8091B903882309F467CF3F
:1033B000853009F464CF8091E80083FD60CF80916F
:1033C000E80082FD8FCF8091E80080FF85CF80915B
:1033D000F3009091F200892798278927211531055C
:1033E00019F08830910550F041E0089709F040E06D
:1033F0008091E8008E778093E8006ECF44914093EF
:10340000F1003196215031090196E8CF803809F05A
:103410008BCE8091E800877F8093E8008091BA038B
:103420008093F10076CE81117FCE1091BD031230D2
:1034300008F07ACE8091E800877F8093E8001093AF
:10344000BA030E949F041123D1F084E08093B90352
:1034500042E061EC81E00E94BE0442E261EC84E063
:103460000E94BE0442E261EC82E00E94BE0442E29D
:1034700060EC83E00E94BE048091B90355CE809138
:10348000E30087FDE2CF81E0E1CF0E9465172FEFD7
:1034900084E39CE0215080409040E1F700C00000B0
:1034A00088E19CE00FB6F894A895809360000FBE69
:1034B00090936000FFCF8091A103882349F0809111
:1034C000A0038D7D8093A0030E9429171092A10371
:1034D0000895882321F00E94E10C0E942917089585
:1034E000882339F090916202892B809362020E94B6
:1034F00029170895882381F19CEF980F913A70F471
:10350000E0E0F2E09281891301C01282319692E0EC
:10351000E630F907B9F70E942917089590E2980F4D
:10352000983050F4877091E001C0990F8A95EAF7BE
:10353000892F0E94E10CEFCF9BE5980F933028F480
:1035400090E080E00E9407060895885A8B3120F4AD
:1035500090E080E00E94E2050895CF938823C1F0B7
:10356000C82F8CEF8C0F813A10F5A2E0B2E0E0E0BA
:10357000F2E088E092E02D91C21761F08A179B0774
:10358000D1F76C2F80E092E00E94C8050E942917B5
:10359000CF91089586E092E02281C21301C0128289
:1035A00031968E179F07C1F70E942917EACF80E254
:1035B0008C0F883068F4C77021E030E001C0220F22
:1035C000CA95EAF780916202822B80936202DECF75
:1035D000EBE5EC0FE33040F4F0E0E758FE4F80817C
:1035E00090E00E940706D4CFC85ACB3188F6EC2F62
:1035F000F0E0EE0FFF1FE458FE4F808191810E94A2
:10360000E205C6CF1F93CF93DF93182FEB010E94E3
:10361000AD1A209739F4812F0E947A1ADF91CF9149
:103620001F9108958FE99FE00197F1F700C0000016
:103630002197EFCF70E060E0893311F460E570E02E
:103640000E94021B0895B0E0A0E0E9E2FBE10C94C7
:103650004231E82FF0E0E059F84FD490282F26951A
:103660002695269530E0F901E05AF84F04918770CD
:1036700010E0082E02C0159507950A94E2F7017034
:103680001127F901E05BF84FE490F12C082E02C0FD
:10369000F594E7940A94E2F791E0E922FF24F90116
:1036A000E05CF84FC491D0E002C0D595C7958A95EB
:1036B000E2F7C170DD270115110519F081EE0E94B6
:1036C000AD1AE114F10419F086EE0E94AD1A70E013
:1036D00060E08D2D0E94021BE114F10419F086EECA
:1036E0000E947A1A0115110519F081EE0E947A1ACA
:1036F000CD2B19F08CE20E941A1BCDB7DEB7E7E0A4
:103700000C945E31FF920F931F93CF93DF938C0144
:103710008AE0F82EF8018491882309F44BC08130A7
:1037200009F044C0E8012196FE018491813049F4FA
:103730002196FE0184910E941A1B8E010F5F1F4F7C
:10374000E9CF823039F4E8012296FE0184910E948B
:10375000AD1AF3CF833039F4E8012296FE0184914B
:103760000E947A1AEACF843041F7E8012296FE01DE
:10377000249190E080E0FE0131962053330B2A30F3
:10378000310548F00197C8F2EFE9FFE03197F1F712
:1037900000C00000F7CFF89EA001F99E500D112443
:1037A000C901840F951F2491EF01E5CF0E94231BCF
:1037B000E801C3CFCDB7DEB7E5E00C9460310F93DD
:1037C0001F93CF93DF93C62FD42F122FFC01858137
:1037D0008823A9F0609313040E94BC0590931204FF
:1037E00080931104C77081E001C0880FCA95EAF781
:1037F0000E94701ADF91CF911F910F9108958091CF
:10380000130468133DC020911104309112044FB786
:10381000F89480910D0490910E04A0910F04B09142
:1038200010044FBF821B930B883C910548F500E2C2
:103830000D0F6D17B9F080E2860F883040F4C77025
:1038400081E001C0880FCA95EAF70E94691A083022
:10385000F0F481E09D2F977001C0880F9A95EAF7E8
:103860000E94701A812F0E941A1B083018F6D77018
:1038700081E001C0880FDA95EAF70E94691ABACF91
:10388000C77081E001C0880FCA95EAF7F6CF812F93
:103890000E941A1BAFCFA8E0B0E0E1E5FCE10C9478
:1038A0003A31DC0114962C91222309F420C18C01B9
:1038B00061E00E94A9107C01F801858190912602A7
:1038C000911137C18823A9F0E114F0E5FF0608F053
:1038D00081C0E11420E2F20608F096C0E11497E0FE
:1038E000F90639F0C8F59701205E31092830310515
:1038F000B8F5F9E7EF16FCE7FF0609F08BC0209159
:103900001A0230911B02232B09F4E1C0811146C039
:1039100086E0F801A9E0B2E001900D928A95E1F706
:10392000809108028093260289E092E00E944B1C5D
:1039300010922602F80185818111C9C0809112027E
:10394000882309F4C4C080959091A00389238093B3
:10395000A0030E942917BBC0E114BFE0FB0649F297
:10396000409162029091A0033091630229E0F80136
:10397000A3E1B2E001900D922A95E1F7F0921B02CB
:10398000E0921A021092A203942B932B90931202AE
:10399000B9E7EB16BCE7FB0609F055C781E00E94CA
:1039A000500690911202992339F08091A003892B3F
:1039B0008093A0030E94291789E0E3E1F2E0A9E0E7
:1039C000B2E001900D928A95E1F78091A203809375
:1039D00008029ECFE0EEEE16E2E5FE0668F4F0E6A1
:1039E000EF16F2E5FF0608F084CF97013255203438
:1039F000310508F0B5CF7DCF970127573C472430DC
:103A0000310508F0ADCF75CFD80116969C91907F07
:103A100009F0A6CFFAE7EF16FCE7FF0609F089C028
:103A2000882391F190911202892F807F20E109F47F
:103A300020E040911A0250911B02892F82958F70CD
:103A4000892B8F70F82EF22A411521E0520750F091
:103A5000411580E2580708F44EC0411590E559071A
:103A600008F44AC04F3F510509F008F446C090E001
:103A700080E027E0EDE1F2E0DF011D922A95E9F711
:103A80009093250280932402809124029091250234
:103A9000892BE9F0F8018581882339F08FEF0E94A6
:103AA00050068091A20380931C0286E0F801ADE1EC
:103AB000B2E001900D928A95E1F780911C0280930B
:103AC00026028DE192E00E944B1C1092260280910A
:103AD0005902877061F0D80115968C91882339F0CE
:103AE0008091CC0282FF03C082E00E94AA0D28963A
:103AF000EFE00C945631F52A5527E42E8F2D8D706A
:103B0000A1F06AE082E691E00E943D0690E0009715
:103B100051F44E2D66E184E491E00E943D0690E070
:103B2000009709F4A4CF9F29A4CF68E08AE591E02B
:103B3000EBCF882309F4DFC09701375720383105D0
:103B400008F027C6DE2CFFE0FE1508F4C0CF8FEF8B
:103B500093E00E94CA318111BACF6AE1E62E63E098
:103B6000F62ED1104FC04E0193E0890E911C86E0D5
:103B7000D4011D928A95E9F75AE0552E6701BFEFEF
:103B8000CB1ADB0AC7010E94CA3189831A828823B3
:103B900009F49DCF813009F06BC05701E2E0AE0E11
:103BA000B11CC6010E94CA318A83882309F48FCFD1
:103BB0009FEF980F9330A8F5F3E0EF0EF11CC501CD
:103BC0000E94CA318B83882309F481CF1C82CE01E5
:103BD00001966C01D6018C91882381F2813009F025
:103BE00087C011969C91119712968C91913009F093
:103BF00041C0B2E0CB0ED11C0E941A1BFFEFCF1ABE
:103C0000DF0AE8CFE11424E0F20609F460CFC7012F
:103C10000E94CA31811101C0DA948FEFE81AF80AC4
:103C2000A0CF7501843099F6340142E0C42ED12C26
:103C300075012FEFE21AF20AC5010E94CA31D301C1
:103C40008D933D01882309F442CF8C3741F4E2E0A3
:103C5000F0E0EC0FFD1FEC0DFD1D1082B8CFBFEFA3
:103C6000CB1ADB0A5701E7E0CE16D10409F72FCFB4
:103C70007601ADCF923031F4E2E0CE0ED11C0E943D
:103C8000AD1ABCCF933031F4F2E0CF0ED11C0E94BC
:103C90007A1AB4CF943021F02FEFC21AD20AAECFE5
:103CA00092E0C90ED11C30E020E0B6016F5F7F4F7B
:103CB000D60111964C918053990B8A30910568F08A
:103CC0002115310509F49ACFEFE9FFE03197F1F7BB
:103CD00000C0000021503109F3CF529EF001539EE5
:103CE000F00D11249C012E0F3F1F842F6B01DDCF9F
:103CF0000E94231B83CF22E4E2162EE7F20601F195
:103D0000A8F4A1E4EA16AEE7FA06D1F0F3E7EF165D
:103D1000FCE7FF06A9F4882309F4D9CE8091A1031A
:103D2000882309F45CC00E945B1AD1CEB3E4EB1681
:103D3000BEE7FB0629F0E4E4EE16EEE7FE0631F7F7
:103D40008091A103882369F1C0906202D090630240
:103D50000E94BC0588579C4E9093E4028093E30236
:103D6000D80115968C918823E1F08D2D8C298D79C1
:103D700009F0CBC0B0E4EB16B2E5FB0608F046C094
:103D8000E114E2E5FE0668F4E114F0E4FF06B8F59C
:103D9000E11420E2F20608F05CC086EEE816F104B9
:103DA00099F5F701E851FC47E730F10508F063C0E9
:103DB000E452F14E0C94B932B81FBC1FAD1FB41FB2
:103DC000C01FC41FC81F882309F4BACF82E791E03F
:103DD000EFC4882309F4B4CF8FE691E0E9C41092D0
:103DE00062020E94DB0C0E94BC0588579C4E909397
:103DF000E4028093E30281E08093A10368CEE114A2
:103E000090E5F90608F484C0C70189C0A0EEEA165F
:103E1000A2E5FA06C0F4B0ECEB16B2E5FB0608F03A
:103E2000C0CFE0E6EE16E2E5FE0670F3F0EAEF162C
:103E3000F2E5FF0608F4B5CF24EBE21622E5F20620
:103E400009F4AFCFE1CFC70187579C470297E0F64F
:103E5000A8CFD80116968C91807F09F05EC08F2D77
:103E60008F71823109F44FC008F047C0823009F4E5
:103E70004AC00E945B1AD80115968C91882309F4D8
:103E8000E9C410921304C7019057839708F0B5C492
:103E900084E090E00E94D8319093CC028093CB02D2
:103EA000F701E150F047E232F10508F074C0E55A3D
:103EB000F04E0C94B93205207A200D20D71FDB1F5D
:103EC0001120DF1F15202120EB1F7320EF1F25205D
:103ED000F31F29205120F71F2D205820FD1F3320CC
:103EE0003B20E31F1920E71F1D200120372047201A
:103EF00061207120D11F09208120843109F4BBCFBA
:103F0000863109F0B6CF1092A0030E945B1A49CF08
:103F1000F8018681807F09F4AECFC70199271092FE
:103F2000A0038832910548F48E31910560F404971E
:103F300060F382E08093A00306C08D329105C9F33F
:103F400028F48A9711F70E9429172BCF8C349105FA
:103F5000D1F38D329240B9F3D8CF26E241EE61EE33
:103F6000C8010E94DF1BB3CD27E245EE65EEF8CF16
:103F700026E241EE60EEF4CF27E245EE64EEF0CFAC
:103F800026E241EE62EEECCF27E245EE66EEE8CFA8
:103F900028E241E0EBCF8091CB0281608093CB029D
:103FA00095C08091CC0288608093CC028FC08091B4
:103FB000CB028260F3CF8091CB028460EFCF8091FF
:103FC000CB028860EBCF8091CC028160EDCF8091F5
:103FD000CC028260E9CF8091CB028061DFCF8091FB
:103FE000CB028062DBCF8091CB028064D7CF0E946E
:103FF00065178091CB028068D1CF8091CB02886019
:10400000DCCF8091CC028260E0CF8091CB028E7FAA
:10401000C5CF8091CC02877FC7CF8091CB028D7FA7
:10402000BDCF8091CB028B7FB9CF8091CB02877FB0
:10403000B5CF8091CC028E7FB7CF8091CC028D7F9F
:10404000B3CF8091CB028F7EA9CF8091CB028F7DA1
:10405000A5CF8091CB028F7BA1CF0E946517809165
:10406000CB028F779BCF8091CB02877FDCCF809173
:10407000CC028D7FE0CF8091CB0282FB992790F913
:1040800021E0922790FB82F990FB83F987CF809102
:10409000CC02982F909591708E7F892B90FB81F99F
:1040A00083CF9091CB02892F8F7B96FF806476CF50
:1040B0000E9465179091CB02892F97FB87F9805852
:1040C0006DCF61E08EE090E00E94EE316091CB0216
:1040D0007091CC0284E090E00E940C320E9465173F
:1040E000F6CC60E0EFCF9091CB02892F8F7E94FFCA
:1040F000806154CF9091CB02892F8E7F90FF816099
:104100004DCF9091CC02892F877F93FF88604CCF51
:104110008091270281110EC089E2E0E0F2E026E002
:1041200032E09281891301C0128231962E173F0727
:10413000C1F70FCC85E3F1CF8091900380FF1EC0C3
:10414000282F2E7F2093900330919103409192036A
:10415000509193036091940370919503809196031D
:10416000909197030E94BF110E94E00680910C037A
:10417000816080930C030E94E706A9CC8160809344
:104180009003869586950E943B13A1CC4FE353E1A3
:104190006AE473E10E94DA069ACC4AE453E16FE3E1
:1041A00073E1F8CF49EA52E163EB72E1F3CF43EBFD
:1041B00052E169EA72E1EECF4FE852E16CE972E157
:1041C000E9CF4CE952E16FE872E1E4CF45E752E113
:1041D00062E872E1DFCF42E852E165E772E1DACFEF
:1041E0004DEB52E167ED72E1D5CF47ED52E16DEB5A
:1041F00072E1D0CF81E0C7CF65E082E00E94561324
:1042000066CC68E086E0FACF6EE089E0F7CF64E143
:104210008FE0F4CF67E185E1F1CF88E1B4CF62E2CE
:1042200089E1ECCF83E2AFCF6AE285E2E7CFB7E77F
:10423000EB16BCE7FB0609F45EC0E8E7EE16ECE718
:10424000FE0609F45EC0F80187819085009709F4A5
:104250008CC00E94C50B7C01F801B580A680A29499
:104260003FE0A32280915902877009F1CB2CBB203B
:10427000F9F08F2D807F803469F080E28E0D8830D8
:10428000B0F08F2D807E803229F4F1E0FE1578F4B5
:10429000AA2069F08091CC0282FF09C082E00E94CE
:1042A000AA0D809159028770CC24C3948111C12C2E
:1042B000DF2CD2942FE0D2222BE02D1508F4CEC0B3
:1042C000ED2DF0E0EA59FE4D0C94B932CC21CC2111
:1042D00006220622A0222E222E222E22BF222D23AB
:1042E0004023402381E00E94C10D43E062E081E071
:1042F0000E947D0DECCB81E00E949D0DF6CF82E007
:10430000F2CF82E0F9CFABE5EA16ACE7FA0659F155
:10431000BCE5EB16BCE7FB06E1F0EAE5EE16ECE7E0
:10432000FE0609F090CF81E01BC00E946517FFEFE9
:1043300024E38CE0F15020408040E1F700C0000011
:104340000E94310E6FEF7FEF90E080E00E940C3210
:1043500078C28091CC0282FB882780F991E089277E
:104360000E94661370CF80E0FBCF8581E080F180F2
:10437000882369F0C7010E944410D82E682FC70116
:104380000E94600DB7018D2D0E94251062CFC701DC
:104390000E941A0DD82EF6CF8F2D8F70D82E8F2D0C
:1043A000807F19F0D29490EFD922BB20B9F0DD20A4
:1043B00069F080E28E0D883010F0E11009C0809124
:1043C0006202D82AD09262020E9429178E2D44C020
:1043D0008091A003D82AD092A003F6CF8E2D0E9400
:1043E0007A1ADD20D9F180E28E0D883010F0E110CC
:1043F00004C08D2D0E94E10C06C0D0948091A003D2
:10440000D822D092A0030E94291728C09F2D9F7008
:10441000D92E8F2D807F803219F0D29480EFD82250
:10442000EE2051F0A1E0EA1609F469C0BB2009F4BE
:1044300075C0AA20C9F1CACF8091CC0282FD30C0DC
:10444000BB2041F1DD2039F080916202D82AD09260
:1044500062020E94291780E00E94AD1ACC20A9F0C8
:104460008091590280FD11C0F801158286958695CC
:1044700086950E94C10DC8010E944B1C8091590273
:104480008695869586950E949D0D60E0C8010E94E4
:10449000A9102DCB80E00E947A1ADD20F9F2A9CF75
:1044A000BB2099F0A11004C08D2D0E94701AD6CFA8
:1044B000B1E0AB12D3CF809163029D2D9823D91622
:1044C00069F2D82AD0926302C9CFA110C7CF8D2D2F
:1044D0000E94691A909163028D2D892329F08D2DF8
:1044E0008095892380936302809128029D2D9823D3
:1044F00009F4B4CFD094D822D0922802AFCFBB20F9
:1045000029F0E5E0EA1508F4A9CFCECFF4E0FA15DA
:1045100008F4A4CF8D2D0E94691AA0CFAA20D1F350
:1045200029E3E21209C08FEF97EEA3E0815090409B
:10453000A040E1F700C000008E2D0E947A1A8ECFB5
:104540008F2D86958695837041F0813079F088EFC4
:104550008D0D843008F082CF3DC0C7019370B1103B
:1045600002C080E090E00E94070678CFC7019370F8
:10457000B11002C080E090E00E94E2056FCF8F2D65
:104580008370A9F5B11026C04E2D4295469547700F
:10459000440F440F8E2D8F70042E01C0880F0A9493
:1045A000EAF720E0E4FE07C02FE030E001C0220F70
:1045B0004A95EAF720953F2D36953695337032307F
:1045C00089F070F44091C902313049F0822B842384
:1045D0000E94CD0D0E942C060E94D00D3FCF842B4F
:1045E000822BF6CF282B8091C9028227F1CF8695A6
:1045F000BB2011F08F2D8170882361F34E2D4295E1
:1046000046954770440F440F8E2D8F70042E01C0C5
:10461000880F0A94EAF720E0E4FE07C02FE030E0BC
:1046200001C0220F4A95EAF720953F2D3695369521
:104630003370323069F050F44091CA02313029F0C1
:10464000822B84230E947A0DC5CF842B822BFACF34
:10465000282B8091CA028227F5CFBF2DBF70FB2E79
:10466000BB2039F08B2F0E94C10D8E2D0E94701A35
:10467000B1CF8E2D0E94691A8F2D0E949D0DAACF59
:10468000E2EFEE16E1F1EE1580F0F0EFEF16F1F04B
:1046900021EFE216A1F0BB2009F466C0AA2009F4BC
:1046A00060C08E2D0E94AD1A52CF83EFE81671F1D3
:1046B00094EFE912F0CF8091CC0282FD32C08F2DB1
:1046C0008F71BB2001F10E94C10D41CFBB2091F041
:1046D000A4E0AA1508F43BCF2F2D2F7181E090E0C4
:1046E00001C0880F2A95EAF79091CA0289270E9493
:1046F0007A0D2DCFB5E0BA1508F429CFEDCF8F2D67
:104700008F71BB2001F30E949D0D21CF80E0BB2063
:1047100071F39F2D9F7181E001C0880F9A95EAF790
:10472000E6CFBB2099F0EF2DEF71FE2E8E2F0E9469
:10473000C10D8091CC0282FF07C0F8E0FF9EC0014E
:1047400011248360809359028F2DBDCF81E00E9498
:10475000AA0D21E02A1508F0FACE82E00E94AA0DE7
:10476000F6CE8F2D8F71AFCFAA2081F089E3E812AA
:1047700009C09FEFA7EEB3E09150A040B040E1F731
:1047800000C000008E2D0E947A1AE1CE8F2D8F710D
:10479000BACF22E4E2162EE7F20609F414CB58F45D
:1047A000A1E4EA16AEE7FA0609F0B0CA8AE791E09A
:1047B0000E94821BC5CAB3E4EB16BEE7FB0609F4F0
:1047C00008CBE4E4EE16EEE7FE0609F09FCA882364
:1047D00009F4B6CA8CE691E0EBCF809162028A7A46
:1047E00091E009F490E09093270269E2811165E37A
:1047F00080E092E00E94C805ACC8F6E1EF16FCE745
:10480000FF0659F327E7E2162CE7F20609F46ACD12
:1048100088E7E8168CE7F80609F471CDF3E0EF16A7
:10482000FCE7FF0609F48ECD08F06DCDE1148CE7AE
:10483000F80609F47ACD91E0E9169CE7F90609F04B
:1048400002CD0E94451A9AE7E9169CE7F90609F09D
:1048500073C9E8C8A6E1EA16ACE7FA0609F458CC31
:10486000809162028272F701E052F847E531F1056A
:1048700008F0DDCCE25CFB4D0C94B9329C20C620E4
:10488000CD20D220D720DC20E120E620EB20F02034
:10489000F520FA20FC200121042107210A210D2105
:1048A0000F2112211421CF93DF9380915602807F34
:1048B00009F04DC080915502882309F448C0E09169
:1048C0000C045091C303C0915102D09150026091E9
:1048D00052027091530249E05E17C9F18E2F90E0A9
:1048E000E49FF0011124EC53FC4F2481222391F129
:1048F000489FF001499FF00D1124DF01AC53BC4FDC
:1049000011962C9111972C1325C02C912D1322C098
:1049100015962C91159721111DC012962D913C9141
:10492000261B370B283C3105A8F4809156028F7066
:10493000806180935602E653FC4F80818F708061C6
:10494000808380E592E00E944B1C0E94E90CDF917D
:10495000CF910895FC013196E770BECFA8E1B0E099
:10496000E4EBF4E20C943D318C0186E0F801DE01C9
:10497000539601900D928A95E1F7D80114968C9187
:1049800014971596EC90159790E5A92E92E0B92E04
:1049900090915402911128C0882319F1EE20F1F072
:1049A000C8010E948010F82E8823C1F089E0F80128
:1049B000D50101900D928A95E1F7809154028130E2
:1049C00031F480915002909151020E9473100E9424
:1049D00053248F2D6896ECE00C945931C8010E9445
:1049E0004B1CFF24F394F5CFF801D080C180828066
:1049F0009380F09055022091520230915302A4010D
:104A0000421B530BFF2009F4F4C0483C510508F049
:104A1000A5C08823F1F29091510280915602282F6F
:104A2000207F09F056C0C91215C090915002D912CA
:104A300011C0E11048C08F7080618093560280E5FC
:104A400092E00E944B1C80915602D80116968C93DE
:104A5000F12CBFCFE11037C06C2D8D2D0E94320498
:104A60006C2D8D2D0E943204E82E8111F1CFDB8A4E
:104A7000CC8A8B899C890E947310292F22952F70D4
:104A8000243058F49F70223080F0992391F0F8017F
:104A90009681907F71F4FE2C9CCF2A50223068F0D2
:104AA000C8010E944B1CEF2CF6CF992311F08823EC
:104AB00091F3805E8830A0F7EECF803F60F3815F96
:104AC000833070F7E8CF8091560281608093560260
:104AD000BFCFC91214C090915002D91210C0E1107A
:104AE0000EC016968C93C8010E944B1C89E0F801F9
:104AF000A0E5B2E001900D928A95E1F76ACFC80176
:104B00000E948010882309F469CFEE2009F466CF53
:104B1000809156028032B8F0FE013E9695E0DF01AA
:104B20001D929A95E9F720915002309151023B87EE
:104B30002A879D868C86909154029E87888BCE0111
:104B40000A960E944B1C89E0F801A0E5B2E00190B2
:104B50000D928A95E1F70E94532443CF909156021B
:104B6000292F207F51F480E592E00E944B1C89E0C0
:104B7000F50111928A95E9F76BCF882309F429CFC3
:104B8000809151028C1111C080915002D8120DC039
:104B9000E1100BC016969C93C8010E944B1C89E043
:104BA000F50111928A95E9F714CFC8010E9480108F
:104BB000882309F413CFEE2009F410CF8091560218
:104BC000803208F4C0CFFE01359695E0DF011D92DA
:104BD0009A95E9F720915002309151023A83298346
:104BE0009C828B82909154029D838F83CE0101968B
:104BF000A8CF483C510580F5882309F4F2CEFE2C5D
:104C0000EE2009F4EBCE809151028C1117C08091F7
:104C10005002D81213C08091560280FD67CF982FA2
:104C2000907F09F463CF8683903F09F45CCF982F7F
:104C3000907F905F8F70892B868355CFC8010E942B
:104C40008010811180CF809156028160809356023E
:104C5000C8010E944B1CBDCE89E0D5011D928A95EA
:104C6000E9F7B7CEA1E2B0E0E8E3F6E20C94463112
:104C70004C8F5D8F6E8F7F8F88A399A391111092B7
:104C8000A003198E1A8E1B8E86E0FE017C96DE0133
:104C9000539601900D928A95E1F78F89882329F028
:104CA00061E0CE0143960E94A91089E0FE0173964F
:104CB000DE011A9601900D928A95E1F7CE010A96CF
:104CC0000E94AE2481112AC089E0FE013A96DE01DD
:104CD000119601900D928A95E1F78E858823F1F067
:104CE0002091C30330E0C901019687709927409154
:104CF0000C044817190659F199E0929FD001939F2F
:104D0000B00D1124AC53BC4FFE01319601900D92B1
:104D10009A95E1F78093C3030E94E90C19E0809112
:104D20000C049091C3038917F9F0819FC0011124ED
:104D30008C539C4F0E94AE248823B1F080910C04C8
:104D400090E001968770992780930C04E8CF0E9429
:104D500065171092C30310920C0489E0E0E5F2E0BD
:104D6000DF011D928A95E9F7A196E3E00C94623188
:104D7000ACE0B0E0EEEBF6E20C94403180E00CEFFA
:104D800093E0F92EEE24E3942DEFD22E32E0C32EE1
:104D900090919B0320919A03291709F448C0E92FA9
:104DA000F0E0E456FC4F108117FBBB24B0F81F77EE
:104DB0009F5F937090939B03809199038F5F809383
:104DC0009903B11008C00E94BC051F8308879A8709
:104DD0008987FB8607C00E94BC051F83D8869A87F7
:104DE0008987CB86EC864F81588569857A858B8546
:104DF0009C850E943226BB2091F00E94BC0519833D
:104E0000DA829C838B83CD821E8249815A816B8199
:104E10007C818D819E810E94322681E0B9CF0E94E3
:104E2000BC0519830A839C838B83FD82EDCF2C966E
:104E3000E9E00C945C31A6E0B0E0E1E2F7E20C942A
:104E400045310E94BC058C018091640290916502FD
:104E50008017910781F019821A820E94BC05682F81
:104E600049815A81792F80E090E00E943226109388
:104E70006502009364022696E4E00C9461311F926F
:104E80000F920FB60F9211242F933F934F935F937E
:104E90006F937F938F939F93AF93BF93CF93EF9332
:104EA000FF93C091E900CF708091EC001092E9006F
:104EB0008091F000877F8093F00078940E947B17A8
:104EC0001092E9008091F00088608093F000C09318
:104ED000E900FF91EF91CF91BF91AF919F918F9199
:104EE0007F916F915F914F913F912F910F900FBEE6
:104EF0000F901F9018951F920F920FB60F921124CA
:104F00002F933F934F935F936F937F938F939F93D1
:104F1000AF93BF93EF93FF938091E10082FF09C0AD
:104F20008091E20082FF05C08091E1008B7F809339
:104F3000E1008091DA0080FF24C08091D80080FFDA
:104F400020C08091DA008E7F8093DA008091D900B2
:104F500080FF9BC080E189BD82E189BD09B400FE6C
:104F6000FDCF81E08093B9038091AC03811109C02A
:104F70000E9451040E94F0048091E20084608093BA
:104F8000E2008091E10080FF17C08091E20080FF85
:104F900013C08091E2008E7F8093E2008091E20056
:104FA00080618093E2008091D80080628093D80075
:104FB00019BC85E08093B9038091E10084FF29C08A
:104FC0008091E20084FF25C080E189BD82E189BD36
:104FD00009B400FEFDCF8091D8008F7D8093D8006A
:104FE0008091E1008F7E8093E1008091E2008F7ECE
:104FF0008093E2008091E20081608093E2008091E2
:10500000BA03882309F447C084E08093B9038091F0
:10501000B9038091E10083FF27C08091E20083FF04
:1050200023C08091E100877F8093E10082E080933C
:10503000B9031092BA038091E1008E7F8093E10062
:105040008091E2008E7F8093E2008091E200806197
:105050008093E20042E060E080E00E94BE04809124
:10506000F00088608093F000FF91EF91BF91AF91C5
:105070009F918F917F916F915F914F913F912F9170
:105080000F900FBE0F901F90189519BC1092B90386
:105090001092AC0376CF8091E30087FD02C081E0DF
:1050A000B4CF83E0B2CF78941F920F920FB60F92D5
:1050B00011248F939F93AF93BF9380910D04909190
:1050C0000E04A0910F04B09110040196A11DB11D12
:1050D00080930D0490930E04A0930F04B0931004DA
:1050E000BF91AF919F918F910F900FBE0F901F9026
:1050F00018951F920F920FB60F9211248F939F93C2
:10510000AF93BF938091AB03811113C080910D04C5
:1051100090910E04A0910F04B09110044196A11D2E
:10512000B11D80930D0490930E04A0930F04B093CF
:105130001004BF91AF919F918F910F900FBE0F9070
:105140001F901895A7E2B0E0E8EAF8E20C94373136
:1051500085B7806885BF85B7806885BF84B7877F3E
:1051600084BF0FB6F894A895809160008861809301
:105170006000109260000FBE80E890E00FB6F894D7
:1051800080936100909361000FBE80E99AE0909354
:10519000FF018093FE010E9451040E94F00480915F
:1051A000E20084608093E20078948091B9038823C0
:1051B00099F01091E9001F708091EC0080FF96C17A
:1051C00080E8182B1092E9008091E80083FD0E948E
:1051D0007B171F701093E90082E084BD93E095BDBA
:1051E0009AEF97BD80936E001092AF021092B002BA
:1051F0001092B1021092B2020E94A40F811102C05B
:105200000E948F0F8091D80080618093D8002AE19E
:105210002A95F1F700C08091D900182F117080FDF8
:1052200004C00E9451041092B9031093A3038798FD
:105230008F988FE891E00197F1F700C000008FB1DF
:10524000881F8827881F8093A40380934A0188239E
:1052500009F44EC11092630188E08093640180914B
:10526000A30381110E94D42FE8E9F3E088E0DF0175
:105270001D928A95E9F780914A0191E089278093F0
:10528000EA0280914A019093ED0280914A01809157
:105290004A01811106C086E98093680184E9809300
:1052A000690160E080E00E94930661E080E00E9476
:1052B0009306EFE8F1E03197F1F700C0000010E04D
:1052C0008091ED02181708F417C180914A018111ED
:1052D0002CC085E0EBE6F1E0DE01919601900D92A5
:1052E0008A95E1F789A1809345018AA180934601BF
:1052F0008BA1809347018CA1809348018DA180935D
:10530000490189E0E0E7F1E0DE01119601900D929C
:105310008A95E1F7FE013196ACE3B1E0CE010A9641
:1053200021912D93E817F907D9F780914A0190E070
:10533000811101C095E09093C80285E0891B80939C
:10534000C70205E411E0BAE4EB2EB1E0FB2ED80170
:105350008D918D018F3F11F00E94960AE016F106A3
:10536000B1F70CE311E0F80181918F018F3F11F04B
:105370000E94960AF1E005341F07A9F784E1E0EFE7
:10538000F2E0DF01282F1D922A95E9F7E3EBF2E026
:10539000DF011D928A95E9F7269A90E080E00E944D
:1053A000D831863E9E4F21F40E94A40F81117AC00D
:1053B00066EE7EEF90E080E00E940C3260E082E0DA
:1053C00090E00E94EE3181E08093C90261E083E0C9
:1053D00090E00E94EE3160E074E184E090E00E9491
:1053E0000C3260E086E090E00E94EE3160E087E001
:1053F00090E00E94EE3140E050E0BA0188E090E099
:105400000E94003260E084E290E00E94EE3160E0B1
:1054100087E190E00E94EE3160E08CE090E00E9435
:10542000EE3160E08DE090E00E94EE3119821A8248
:105430001B821C821D821E821F82188648E050E05B
:1054400068E170E0CE0101960E94DE3140E050E05C
:10545000BA0180E290E00E94003280E00E94B30E28
:105460000E948F0F809190038160809390038695B6
:1054700086950E943B1321E04FEF6FEF80E00E9482
:10548000E5118BE00E943B1340E050E0BA018FE051
:1054900090E00E94003240E050E0BA0183E190E0E9
:1054A0000E94003282E090E00E94CA318093CE02D6
:1054B00084E090E00E94D8319093CC028093CB029C
:1054C0000E943A15EFEBFAED3197F1F700C00000BA
:1054D0000E943A158091F00280FF20C06FEF7FEFAD
:1054E00090E080E00E940C320E94310E80E069CE94
:1054F00088E080936301B1CE60E0812F0E9477063F
:10550000082F61E0812F0E947706E12FF0E0E5513E
:10551000FD4F880F802B80831F5FD2CE83E090E009
:105520000E94CA310E94CD0D8091CD02811182C0AE
:1055300088E090E00E94D2314B015C0184E290E06F
:105540000E94CA31282F30E040E050E060E070E077
:1055500080E090E000E20E94D532282939294A29CA
:105560005B292093900330939103409392035093CF
:1055700093036093940370939503809396039093A1
:10558000970330910C03336030930C032C7F09F0A8
:1055900041C025E020939003109291033FEF309398
:1055A0009203309393031092940330E04FEF5FEF38
:1055B00060E00E94BF1188E090E00E94D2316B0150
:1055C0007C0184E290E00E94CA31282F30E040E064
:1055D00050E060E070E080E090E00E94D532B22FB1
:1055E000A32FF42FE52F5B0197018601BC29A12B86
:1055F000FE29E32BB0939003A0939103F0939203C1
:10560000E093930360939403B09295038093960381
:10561000909397030E946E070E94E006809190038A
:1056200080FF05C060E0869586950E94F11281E0BA
:105630008093CD028091A303811102C00E94D72FD5
:105640008BE491E09093A8038093A703F8E14F2E99
:10565000512CA4E06A2E712C8091B90300E112E173
:10566000853009F498C00E943A157FECA72E72E0AD
:10567000B72EE0EF8E2EE2E09E2E43EE52E0D401F4
:10568000F501219131918D919D914E175F0709F49C
:105690008EC028173907A9F34091A3034FA3312CDB
:1056A000D4010D911D914D01F501C190D1905F0183
:1056B000C016D10679F1212CEE24E394F12CC026FA
:1056C000D126C6018E219F21892BD1F0FFA1FF2376
:1056D000B9F029A23AA20E94BC059CA38BA321E0A9
:1056E0002DA391E098012E213F21232B09F490E076
:1056F0009EA349A15AA16BA17CA18DA10E94322633
:105700002394EE0CFF1C49E02412DBCFF501329705
:105710001183008333945AE03512C2CF0E94AD0A40
:105720004CC08091B903843029F180E00E94D00DF3
:105730001092AB03F0E40FB6F894A8954092600085
:105740000FBEF093600083B7817F846083BF83B70F
:10575000816083BF7894889583B78E7F83BF0FB6AF
:10576000F894A89580916000886180936000109201
:1057700060000FBE8091B803882369F00E943A153B
:10578000E0EFF2E081919191892B09F09FC323E032
:10579000E430F207B9F78091B903853009F4C1CF3D
:1057A0000E9465170E942C060E94D00D5CCF28171E
:1057B000390709F071CF0E941B278091A30388232A
:1057C00089F08091A103882369F00E94BC05209193
:1057D000E3023091E402821B930B8F3F9F4710F44A
:1057E0000E945B1A80910B03882309F465C08091A5
:1057F0000A03E0919003E695E695E81BE093060323
:10580000823009F0CBC0F0E0EE56FE4FE4910E2F4F
:1058100010E044E3C42E48E0D42E8091070388238F
:1058200061F0109207030E94C70A909305038093CA
:10583000040310920903109208030E94C70AE09122
:105840000403F09105039C012E1B3F0B2F3F3F47A4
:1058500098F52091E7022223B1F01092E7022091FF
:10586000E5023091E602821B930B8F3F9F4758F46D
:10587000205D3A483093E6022093E50280910C03C4
:10588000886080930C03E0900803F0900903E00F18
:10589000F11FF0930503E093040384E093E0F60125
:1058A00009958091080390910903892B29F4EF2829
:1058B00019F0F1E0F093E702E090A303EE2019F075
:1058C0000E94B826E82E8091EE02882351F01092B3
:1058D000EE0280919A0380939B03809198038093BA
:1058E0009903F12C8091ED02F81608F4C3C0809161
:1058F000A303882319F00E94B826E82AE1100E9429
:10590000AD0A0E942C06182F8091EF02181739F06B
:105910001093EF020E94B005812F0E94D00D80915C
:10592000B903843009F098CE83E08093E900809138
:10593000E80082FF91CE8091E80090E085FF06C0EC
:105940000E947004882309F4D1C091E08091E8009E
:105950008B778093E800992309F47ECE8981EFEF5D
:10596000E80FE53108F0E8C0F0E0E754F34D0C949F
:10597000B932922D962DEE2D192E212E2C2E2F2E52
:105980002F2E2F2E9C2D9C2DB02EB32EB62EDD2E1D
:10599000002F032F052F2B2F4D2F572F863059F413
:1059A000F0E0E157FE4FE4910E2F10E034E2C32EF9
:1059B00038E0D32E32CF893061F4E695F0E0E45739
:1059C000FE4FE4910E2F10E023E5C22E2AE0D22EE6
:1059D00024CF8F3061F4E695F0E0E757FE4FE49175
:1059E0000E2F10E09DECC92E99E0D92E16CF8531EF
:1059F00059F4F0E0EA57FE4FE4910E2F10E088E4EE
:105A0000C82E89E0D82E09CF08E210E0FEEBCF2E99
:105A1000F8E0DF2E883109F400CF833249F4E4E85E
:105A2000F1E005911491B5E8CB2EB8E0DB2EF5CE70
:105A30008432C9F000ED17E07AEAC72E75E0D72E60
:105A4000853209F0EACE8E2F63E00E948532E92F7D
:105A5000F0E0EF57FE4FE4910E2F10E0A9EDCA2EB3
:105A6000A0E1DA2EDACE04EF11E0E8E4CE2EE8E091
:105A7000DE2ED3CE61E08F2D0E947706182F60E0D6
:105A80008F2D0E947706E12FEE0F8E2B0F2D10E049
:105A9000D801A551BD4FEC919E2F9370891721F12C
:105AA000EE0FEE0FE82BEC938091EA028F0DEF7072
:105AB000F0E0EC54FE4F08511D4FD080D8019C916E
:105AC000D90EDC92B3E060E0BD1524F0EDEFDE16F8
:105AD0001CF461E00E94B6068D2DDD0C990BB3011C
