:100000000C94EF030C94462A0C940C040C940C04EE
:100010000C940C040C940C040C940C040C940C0420
:100020000C940C040C940C040C94740F0C94B60EE9
:100030000C9437230C940C040C940C040C940C04B6
:100040000C940C040C940C040C940C040C940C04F0
:100050000C940C040C944B100C940C040C940C0495
:100060000C940C040C940C040C940C040C940C04D0
:100070000C940C040C940C040C940C040C940C04C0
:100080000C940C040C940C040C940C040C940C04B0
:100090000C940C040C940C040C940C040C940C04A0
:1000A0000C940C040C940C040C940C043A06AE064C
:1000B00042060C06100646061306490654061E069E
:1000C000A4062206580626065C0686062A06600650
:1000D000900630066606700617064D061A0650068C
:1000E00035066B067C069C069E0608063E06B7068D
:1000F00010071607010707071C07220728071B0818
:100100001B084E084E08C908E708040A040AEC0850
:100110007A098B098B092E07310A360A3B0A400AF5
:10012000450A4A0A4F0A540A590A5E0A650A670ACA
:100130006A0A6D0A700A730A760A780A7B0A7F0ACD
:10014000D50CFC0C940EFC0C940E440D670D940E13
:10015000560E690E504F52514A4D4B4E2A4C2F307D
:10016000B6B7ABACBBBCA9AABDBECFD0CDCEDBDC95
:10017000D9DA0D0E0B0F1A0508050905071811131A
:100180000408120C05010902A10185020901A10060
:100190000509190129081500250195087501810235
:1001A0000501093009311581257F95027508810601
:1001B00009381581257F950175088106050C0A38D7
:1001C000021581257F950175088106C0C0050109CA
:1001D00080A101850319012AB700150126B70095F2
:1001E0000175108100C0050C0901A10185041901E8
:1001F0002AA002150126A002950175108100C005F4
:10020000010906A101050719E029E7150025019557
:1002100008750181029501750881010507190029FA
:10022000FF150026FF0095067508810005081901D5
:100230002905950575019102950175039101C00984
:10024000023B00020100A0FA0904000001030101C1
:100250000009211101000122400007058103080067
:10026000010904010001030000000921110100013E
:10027000227B00070582032000011201000200001A
:10028000000810CB571200010102000122035100A7
:10029000750065006600720065006E0063007900FD
:1002A00020005200650076002E0020003100000082
:1002B0000E034B0065006500620069006F000000DE
:1002C000040309041E0F0500047F3F1F64321464F9
:1002D0003214783C1E1E140A0535001E001F002033
:1002E0000021002200230000002B0014001A000847
:1002F0000015001700000000002921040016000767
:100300000009000A0000000000E10000001D001BC1
:10031000000600190005000000737CE30022520073
:1003200000E20000002C410000000000000000007E
:100330000000000000000000002400250026002727
:10034000002D002E0000002A001C0018000C0012D6
:100350000013002F00300031000B000D000E000FC5
:1003600000330034004E0028001100100036003722
:1003700000797C3800E500520000002C004F00227C
:100380005200070000500051000000000000000073
:100390000000000000A8004B0001003A003B003CB8
:1003A000003D003E003F000000010001000100523E
:1003B0000001000100000000000100010050005198
:1003C000004F0001000000000001000000010001DA
:1003D00000010001000100000035020100010000E1
:1003E000000100000001000000000000000000000B
:1003F00000000000000000000040004100420043F7
:10040000004400450000004C000100010001000113
:1004100000010001000100010001000100010001D4
:1004200000010001000100010001000100010001C4
:10043000007A7C01000100010001000100010001BF
:1004400000010001000100010000000000000000A8
:1004500000000000000100010001003A003B003CE8
:10046000003D003E003F000000010001000100527D
:1004700000010001000000000001000100500051D7
:10048000004F000100000000000100000001000119
:100490000001000100010000003502010001000020
:1004A000000100000001000000000000000000004A
:1004B0000000000000000000004000410042004336
:1004C00000440045000000635201000100010001EA
:1004D0000001000100010001000100010001000114
:1004E0000001000100010001000100010001000104
:1004F00000010001000100010001000100010001F4
:1005000000010001000100010000000000000000E7
:1005100000000000000100010001003A003B003C27
:10052000003D003E003F00000020782178010001DE
:100530000001000100000000000100010025780119
:1005400000010001000000000001000000010001A6
:1005500000010027780100000001000100010000F7
:100560000001000000010000000000000000000089
:100570000000000000000000004000410042004375
:1005800000440045000000010001000100010001DD
:1005900000010001000100010023780100010001B9
:1005A0000001000100027C010001000100010001C6
:1005B00000010001000100010001000100017C01B7
:1005C0000001000100010001000000000000000027
:1005D00000000000000100007C2223252628292A93
:1005E0002C2D2F3032333536383A3B3D3E40424396
:1005F0004547494A4C4E5051535557595A5C5E60D5
:1006000062646668696B6D6F71737577797B7D7FE6
:1006100081838587898A8C8E90929496989A9C9EE5
:100620009FA1A3A5A7A8AAACAEAFB1B3B4B6B8B901
:10063000BBBCBEBFC1C2C3C5C6C7C9CACBCCCDCE69
:10064000D0D1D2D2D3D4D5D6D7D7D8D9D9DADADB4C
:10065000DBDBDCDCDCDCDCDDDDDDDDDCDCDCDCDCD8
:10066000DBDBDBDADAD9D9D8D7D7D6D5D4D3D2D217
:10067000D1D0CECDCCCBCAC9C7C6C5C3C2C1BFBEFF
:10068000BCBBB9B8B6B4B3B1AFAEACAAA8A7A5A36A
:10069000A19F9E9C9A98969492908E8C8A89878529
:1006A00083817F7D7B79777573716F6D6B69686608
:1006B0006462605E5C5A5957555351504E4C4A49DA
:1006C00047454342403E3D3B3A3836353332302F82
:1006D0002D2C2A29282625232200010101010101B0
:1006E00001010102020202020202020203030303E9
:1006F00003030303040404040404040505050505B9
:100700000606060606070707070708080808090976
:1007100009090A0A0A0B0B0B0C0C0C0D0D0D0E0E21
:100720000E0F0F0F101011111112121313141415B4
:100730001516161717181819191A1A1B1B1C1D1D28
:100740001E1E1F202021222223242425262627287E
:1007500029292A2B2C2D2D2E2F30313232333435AE
:10076000363738393A3B3C3D3E3F404142434445B1
:10077000464748494A4C4D4E4F5051535455565890
:10078000595A5B5D5E5F616264656668696B6C6D3A
:100790006F7072737577787A7B7D7E8082838587B0
:1007A000888A8C8E8F91939596989A9C9EA0A2A3EE
:1007B000A5A7A9ABADAFB1B3B5B7BABCBEC0C2C4F3
:1007C000C6C9CBCDCFD1D4D6D8DBDDDFE2E4E7E9B3
:1007D000EBEEF0F3F5F8FAFDFFFFAA7F5540112488
:1007E0001FBECFEFDAE0DEBFCDBF11E0A0E0B1E089
:1007F000E4EBFAE502C005900D92A43CB107D9F7ED
:1008000023E0A4ECB1E001C01D92A43BB207E1F7E4
:100810000E94F9100C94582D0C940000A0E0B0E058
:10082000E4E1F4E00C94712BDC0114962C9122236A
:1008300009F476C67C0161E00E940628EC018091F3
:10084000E401811104C1F70125812223B1F1C11511
:10085000F0E5DF07B0F4C11580E2D80740F5C11517
:1008600097E0D90751F138F4CE01805E91090897DD
:1008700008F0AAC222C0C115BFE0DB0709F0A4C27C
:100880001CC0C03EE2E5DE0758F4C036F2E5DF07E3
:10089000A0F4CE0192558034910508F095C20DC0A8
:1008A000CE0189579C47029708F08EC206C0D70137
:1008B00016968C91807F09F087C2C937BCE7DB07A9
:1008C00009F046C08091D8019091D901892B09F493
:1008D000E6C22223D9F081E00E9477248091D001E2
:1008E000882339F090919A03892B80939A030E9470
:1008F000531B89E0E1EDF1E0A7ECB1E001900D922E
:100900008A95E1F780919C038093C60186E0F70108
:10091000A7ECB1E001900D928A95E1F78091C601B4
:100920008093E40187EC91E00E940E041092E401B0
:10093000F70185818111B3C28091D001882309F428
:10094000AEC2809590919A03892380939A0339C20D
:10095000CA37FCE7DF0709F07AC0222309F452C046
:10096000C091D801D091D9011091D001812F807F01
:1009700011F080E101C080E0912F92959F70192BBA
:100980001F70182BC11520E4D20750F4C11580E266
:10099000D80750F4C11591E0D90740F01D2B04C0D1
:1009A000C115A0E5DA0710F4DD2707C0CF3FD10558
:1009B00021F018F080E090E01AC0812F8D704C2F4C
:1009C00021F06AE08AE791E003C068E082E791E005
:1009D0000E94642490E0009749F44C2F6EE184E576
:1009E00091E00E94642490E0009721F3912BEBEDBD
:1009F000F1E029E0DF011D922A95E9F79093E301E8
:100A00008093E2018091E2019091E301892B09F446
:100A100046C2F7018581882339F08FEF0E94772441
:100A200080919C038093DA0186E0F701ABEDB1E0A1
:100A300001900D928A95E1F78091DA018093E401AB
:100A40008BED91E00E940E041092E40128C2C3379E
:100A5000FCE7DF07E9F4D70115968C91882309F4A8
:100A60001EC280919B03882319F00E94852417C21F
:100A7000109253020E9476190E948C1088579C4E47
:100A800090934E0280934D0281E080939B0307C2B6
:100A90001091540280915302182B80919B0388235C
:100AA00009F48CC00E948C1088579C4E90934E0283
:100AB00080934D02F7018581882309F47FC01D7959
:100AC00009F077C0C034F2E5DF07B8F4C11522E5BC
:100AD000D20708F073C0C11580E4D80748F4C115E7
:100AE00090E2D90740F5C63ED10509F041C066C085
:100AF000C115A0E5DA07A8F13BC0C03EB2E5DB07AF
:100B0000A0F4C03CE2E5DE0708F058C0C036F2E5CC
:100B1000DF0770F1C03A22E5D20708F44FC0C43BAA
:100B200082E5D80709F44AC023C0CE0187579C4705
:100B30000297F0F443C0D70116968C91807FA9F4F8
:100B40008D2F8F718231B1F028F4823091F581EED2
:100B500090E012C0843191F1863159F586EE92E130
:100B60000BC0F7018681807FB1F1CE01992704C0C7
:100B7000CE0102C085EE90E010929A038832910572
:100B800030F48E319105C0F4049798F00EC08D3288
:100B9000910559F018F48A9779F00BC08C349105BF
:100BA00059F08D32924041F004C082E080939A0364
:100BB00003C00E94852402C00E94531BFE01E8511D
:100BC000FC47E730F10508F418C1D70115968C9160
:100BD000882309F477C110929F03CE019057839721
:100BE00008F0DBC084E090E00E94082C9093320271
:100BF00080933102FE01E150F047E232F10520F42A
:100C0000EA5AFF4F0C94E92C809131028160ACC00C
:100C1000809132028860B4C0809131028260A4C0A9
:100C20008091310220C08091310288609DC0809106
:100C300032021EC0809132028260A2C080913102D5
:100C4000806192C08091310280628EC080913102B9
:100C500080648AC00E94AD1E80913102806884C089
:100C600080913102886084607FC08091320282600E
:100C7000816086C0809131028E7F76C08091320281
:100C8000877F7EC0809131028D7F6EC0809131025E
:100C900020C080913102877F67C0809132021EC0E0
:100CA000809132028D7F6CC0809131028F7E5CC05A
:100CB000809131028F7D58C0809131028F7B54C06A
:100CC0000E94AD1E809131028F774EC0809131021B
:100CD000877F8B7F49C0809132028D7F8E7F50C08D
:100CE0008091310282FB222720F991E0922790FB2C
:100CF00082F990FB83F938C080913202982F909549
:100D000091708E7F892B90FB81F93AC080913102DE
:100D100086FB222720F991E0922790FB86F924C0D8
:100D20000E94AD1E8091310287FB222720F991E0BD
:100D3000922790FB87F918C061E001C060E08EE067
:100D400090E00E941E2C1EC08091310284FB22275D
:100D500020F991E0922790FB84F906C0809131023E
:100D6000982F909590FB80F9809331020BC0809171
:100D7000320283FB222720F991E0922790FB83F92E
:100D800080933202609131027091320284E090E0EF
:100D90000E943C2C0E94AD1E82C0C631BCE7DB071E
:100DA00009F09FC0809153028A7A91E009F490E0A3
:100DB0009093E50181114AC369E282E792E00E94C3
:100DC0006D230E94531B6BC09091530240919A0374
:100DD0008091540239E0F701A1EDB1E001900D924C
:100DE0003A95E1F7D093D901C093D80110929C03B2
:100DF000942B892B8093D00160CDE858FF4F0C9441
:100E0000E92C06E221EE41EE6AE17CE705C007E24B
:100E100025EE45EE6BE17CE7C7010E94E2233FC06F
:100E200006E221EE40EE68E17CE7F6CF07E225EE30
:100E300044EE69E17CE7F0CF06E221EE42EE6CE1A0
:100E40007CE7EACF07E225EE46EE6DE17CE7E4CFF2
:100E500008E221E045EE6EE17CE7DECF809192036F
:100E600080FFFAC2282F2E7F2093920330919303A4
:100E7000409194035091950360919603709197036C
:100E800080919803909199030E9449250E94AD2476
:100E900080910E03816080930E030E94CF24809185
:100EA000FD02877009F43CC3D70115968C91882305
:100EB00009F436C38091320282FF32C382E00E947D
:100EC0006A1E2EC3C631ECE7DE0709F41DC380910C
:100ED00053028272FE01E052F847E531F10508F451
:100EE000B7C2F7018581882309F44AC0C330FCE703
:100EF000DF0791F140F4C1158CE7D80789F0C130C4
:100F0000DC4781F13DC0CB35ACE7DA07B1F1CC3538
:100F1000BCE7DB0751F1CA35DC4791F581E02EC013
:100F20000E94AD1EFFEF24E38CE0F1502040804092
:100F3000E1F700C0000087E797E7909301088093EE
:100F400000089AE088E10FB6F894A89580936000B5
:100F50000FBE90936000FFCF6FEF7FEF80E090E0D7
:100F60000E943C2C0E94BF289ACF8091320282FBC3
:100F7000882780F991E0892701C080E00E94811EC6
:100F8000D70117968D919C9118970097B9F4F701A6
:100F90008581C081D181882349F0CE010E94F21B56
:100FA000182F682FCE010E941F1E04C0CE010E9480
:100FB000EC1D182FBE01812F0E9496170E94B617B4
:100FC000D82FC92FD70115961C91159716960C91FD
:100FD00002950F708091FD028770E9F01123D9F01E
:100FE000892F807F803451F080E28D0F883098F017
:100FF000011104C0892F807E803269F08091320215
:1010000082FF09C082E00E946A1E8091FD02877003
:10101000DD24D3948111D12CCC2EC2948FE0C82230
:101020008C2D90E08C30910508F0EEC1FC01E15868
:10103000FF4F0C94E92C8C2F807FCF70882311F008
:10104000C295C07F1123B9F0CC2309F4CBC180E253
:101050008D0F883010F0D11106C090915302C92B2A
:10106000C093530205C090919A03C92BC0939A0371
:101070000E94531BB7C18D2F0E94E51ECC2309F49B
:10108000C3C180E28D0F883078F1DD2369F1C0950E
:1010900090919A03C923C0939A0329C08C2F807F13
:1010A000CF70803211F0C295C07FDD2321F0D130A6
:1010B00009F44CC055C08091320282FD1BC011233F
:1010C00069F0CC2339F090915302C92BC09353029D
:1010D0000E94531B80E00E94491F96C180E00E943D
:1010E000E51ECC2309F490C18C2F0E947C190E942C
:1010F000531B8AC1112381F00023B1F1013009F0A3
:1011000083C1909154028C2F8923C81709F47CC1A4
:10111000C92BC093540278C1011176C18C2F0E9453
:10112000D41E809154029C2F982329F09C2F9095D7
:101130008923809354029091E6018C2F892309F42E
:1011400063C1C095C923C093E6015EC1112321F09C
:10115000063008F059C108C0053008F055C115C067
:10116000112331F001113EC18C2F0E94DB1E4CC1B6
:10117000002359F0D93309F044C1BFEFE7EEF3E0A3
:10118000B150E040F040E1F73AC18C2F0E94D41EEC
:101190003BC18C2F86958695837019F0813061F064
:1011A00033C1112321F08D2F9C2F937002C080E05A
:1011B00090E00E94AC232EC1112321F08D2F9C2F93
:1011C000937002C080E090E00E94872323C1612FCA
:1011D0008D2F0E94D5281EC18C2F837009F041C02D
:1011E000111116C12D2F229526952770220F220F3F
:1011F0008D2F8F7090E0022E02C0880F991F0A94E5
:10120000E2F7D4FF0BC04FE050E002C0440F551F7F
:101210002A95E2F79A012095309502C020E030E04F
:10122000C695C695C370C23099F068F440915502D6
:1012300050915602C13029F0822B932B84239523A1
:1012400004C0842B952B822B932B0E94A81EE0C0F8
:10125000822B932B2091550230915602822793279F
:10126000F4CF112319F08C2F817001C0869588234B
:1012700009F4CEC02D2F229526952770220F220F1C
:101280008D2F8F7090E0022E02C0880F991F0A9454
:10129000E2F7D4FF0BC04FE050E002C0440F551FEF
:1012A0002A95E2F79A012095309502C020E030E0BF
:1012B000C695C695C370C23079F0B8F440912F023C
:1012C00050913002C13029F0822B932B8423952337
:1012D0000EC0842B952B09C0822B932B20912F02BB
:1012E000309130028227932702C0822B932B0E94D9
:1012F000531E8EC0CF70112339F08C2F0E94981E80
:101300008D2F0E94DB1E84C08D2F0E94D41E8C2F37
:101310000E94581E7DC0D23F61F128F4D03F41F0B9
:10132000D13F11F15BC0D33F59F1D43FC9F056C052
:10133000112391F0053008F067C0CF7181E090E093
:1013400002C0880F991FCA95E2F720912F023091B1
:1013500030028227932721C0063008F055C0EDCF18
:101360008091320282FD1CC0112329F08C2F8F71D5
:1013700029C01123D9F38C2F8F710E94581E44C0AD
:10138000112349F0CF7181E090E002C0880F991FCE
:10139000CA95E2F702C080E090E00E94531E34C07C
:1013A000112399F0CF718C2F0E94981E80913202E8
:1013B00082FF07C028E0C29FC00111248360809390
:1013C000FD028C2F0E94981E1FC081E00E946A1EA1
:1013D0000230D0F082E00E946A1E16C0112321F074
:1013E000002321F28D2F77CE002329F2D93349F43F
:1013F0008FEF97EEA3E081509040A040E1F700C04E
:1014000000008D2F0E94E51E88EF8C0D843010F4B3
:101410000E94D123DD20A9F08091FD0280FD11C042
:10142000F70115828695869586950E94981EC701BC
:101430000E940E048091FD028695869586950E94F5
:10144000581E60E0C7010E9406286AC065E3B5CC5B
:10145000E557FF4F0C94E92C8160809392038695A9
:101460004BC041EF57E26BEF77E22CC04BEF57E2F6
:1014700061EF77E227C045E257E26FE277E222C0F0
:101480004FE257E265E277E21DC04BE057E268E1C8
:1014900077E218C048E157E26BE077E213C041EF12
:1014A00056E26EEF76E20EC04EEF56E261EF76E264
:1014B00009C04FE655E269E875E204C049E855E223
:1014C0006FE675E20E94A624EACC81E015C065E0D3
:1014D00082E017C068E086E014C06EE089E011C0C9
:1014E00064E18FE00EC067E185E10BC088E104C0D4
:1014F00062E289E106C083E20E94ED27D0CC6AE275
:1015000085E20E949324CBCC8091E501811106C035
:1015100069E282E792E00E94602353CC65E3F9CF51
:10152000CDB7DEB7E8E00C948D2B2091E40030912C
:10153000E50095E64091EC00842F817040FF23C0C8
:101540008091E80080FD1DC08091F801882399F00A
:10155000853099F08091EB0085FD11C04091E40049
:101560005091E5002417350729F3915011F09A01A5
:10157000E1CF84E0089582E0089583E0089581E05A
:10158000089580E008954091E80042FFDDCF08957E
:101590008091FA0187FF11C08091E80082FD05C0AB
:1015A0008091F8018111F8CF11C08091E8008B770C
:1015B0000BC08091F801882349F08091E80080FFFA
:1015C000F8CF8091E8008E778093E8000895982FF7
:1015D000973068F59093E900981739F07091EC0016
:1015E0002091ED005091F00003C0242F762F50E0A1
:1015F00021FD02C09F5FECCF3091EB003E7F309326
:10160000EB003091ED003D7F3093ED003091EB0029
:1016100031603093EB007093EC002093ED00509319
:10162000F0002091EE0027FDE5CF80E008958F7057
:101630008093E90081E00895209100023091010239
:101640002617370748F06115710539F42091E80035
:101650002E772093E80001C0B901FC0120E061155C
:10166000710579F18091F8018823F1F18530F1F16C
:101670008091E80083FD3CC08091E80082FD2EC08F
:101680008091E80080FFEBCF2091F3008091F20081
:1016900090E0922B6115710551F08830910538F476
:1016A00021912093F100615071090196F3CF21E05F
:1016B000089709F020E08091E8008E778093E80099
:1016C000CECF2111CFCF0AC08091F801882361F0DD
:1016D000853061F08091E80083FD0AC08091E800C8
:1016E00082FFF2CF80E0089582E0089583E00895BC
:1016F00081E008958091ED0108950F931F93CF939A
:10170000DF938B01EA019091F801943079F58F70A5
:101710008093E9008FEF9091E800815095FD06C01D
:1017200095ED9A95F1F700008111F5CF8091E800D1
:1017300085FF1CC00E94950A882361F08091E80013
:101740008E778093E80012C0F80181918F01809319
:10175000F1002197209791F38091E80085FDF4CF67
:101760008091E8008E778093E800E4CFDF91CF91FD
:101770001F910F91089543E050E0BC0182E00E9468
:101780007D0B089546E050E0BC0182E00E947D0B95
:101790000895CF93DF93EC0148E050E0BC0181E075
:1017A0000E947D0B88E0FE01AEEEB1E001900D924B
:1017B0008A95E1F7DF91CF910895FC01AC014A5F72
:1017C0005F4F8FEF91E32191822728E030E087FF80
:1017D00003C0880F892701C0880F21503109B9F74C
:1017E000E417F50781F70895AAE2B0E0EAEFFBE01D
:1017F0000C94762BEAEFF1E082E092E02091F10088
:1018000021938E179F07D1F78091FB01833009F454
:1018100061C030F4813071F0823009F49BC0B2C0F5
:101820008A3009F487C08B3009F46CC0893009F024
:10183000A9C020C08091FA01813A09F0A3C080912B
:10184000E800877F8093E8008091FE019091FF017E
:10185000892B21F468E08EEE91E003C060E080E027
:1018600090E070E00E941C0B8091E8008B778093E1
:10187000E80088C08091FA01813209F083C080912C
:10188000FE019091FF01029708F07CC08091E80072
:10189000877F8093E8008091E80082FD05C08091F9
:1018A000F8018111F8CF6EC02091F3008091F20011
:1018B00090E0922B029731F48091F100813011F089
:1018C000863021F48091F1008093ED018091E80051
:1018D0008B7754C08091FA01813A09F053C080910E
:1018E000FE019091FF01892B09F04CC08091E80026
:1018F000877F8093E8008091E80080FFFCCF809193
:10190000040137C08091FA018132E1F58091FE0136
:101910009091FF01892BB1F58091E800877F80933A
:10192000E8000E94C80A8091FC01809304010E9493
:10193000AD1E28C08091FA01813221F58091E80026
:10194000877F8093E8000E94C80A8091FD01809300
:10195000EC0118C08091FA01813AA1F48091E8006D
:10196000877F8093E8008091E80080FFFCCF809122
:10197000EC018093F1008091E8008E778093E8007D
:101980000E94C80A8091E80083FFCEC18091FA01CD
:101990009091FB01492F50E04A30510508F0C4C135
:1019A000FA01E056FF4F0C94E92C803821F0823880
:1019B00009F0BAC108C08091F6019091F70199230E
:1019C00089F082600FC08091FE018F70873008F02F
:1019D000ABC18093E9008091EB0085FB882780F9FB
:1019E0001092E9009091E800977F9093E80080932F
:1019F000F1001092F10065C1282F2D7F09F094C1EC
:101A0000882319F0823061F08FC18091FC01813010
:101A100009F08AC1933009F080E08093F7012EC06D
:101A20008091FC0181112AC08091FE018F702FEFFF
:101A3000280F263008F078C18093E9002091EB0050
:101A400020FF1CC0933021F48091EB00806214C011
:101A50009091EB0090619093EB0021E030E0A901C0
:101A600002C0440F551F8A95E2F74093EA00109296
:101A7000EA008091EB0088608093EB001092E9000F
:101A80008091E800877F20C181114EC11091FC0137
:101A90001F778091E3008078812B8093E300809111
:101AA000E800877F8093E8000E94C80A8091E800E0
:101AB00080FFFCCF8091E30080688093E3001111E8
:101AC00002C082E001C083E08093F8012DC18058FC
:101AD000823008F029C18091FC019091FD018C3D7C
:101AE00053E0950779F583E08A838AE289834FB7CB
:101AF000F894DE01139620E03EE051E2E32FF0E09F
:101B000050935700E49120FF03C0E295EF703F5FD0
:101B1000EF708E2F90E0EA3010F0C79601C0C096AB
:101B20008D939D932F5F243149F74FBF8091E8003B
:101B3000877F8093E8006AE270E0CE0101960E9400
:101B40001C0BAEC04091FE015091FF01292F33279D
:101B500023303105A9F068F42130310509F4F3C0D0
:101B60002230310509F0E0C08BE390E0EFE3F2E0D2
:101B700044C02132310521F12232310571F1D4C046
:101B8000992781309105A1F058F0029709F0CCC057
:101B9000ECE8F2E0E4918E2F90E0ECE8F2E02AC06D
:101BA000E0ECF2E0E4918E2F90E0E0ECF2E022C075
:101BB000E0EBF2E0E4918E2F90E0E0EBF2E01AC06F
:101BC0004115510509F4C4C04130510509F0ACC0BC
:101BD00089E090E0EAE6F2E010C04115510509F411
:101BE000BCC04130510509F09FC08BE790E0E4E8AC
:101BF000F1E003C0009709F497C02091E800277F27
:101C00002093E8002091000230910102821793078F
:101C100008F49C0140E02115310589F18091F8011B
:101C2000882309F43DC08530D9F18091E80083FD17
:101C300037C08091E80082FD2FC08091E80080FFCE
:101C4000EACF4091F3008091F20090E0942B2115AF
:101C5000310559F08830910540F444914093F100EA
:101C60003196215031090196F2CF41E0089709F0F1
:101C700040E08091E8008E778093E800CCCF41115E
:101C8000CDCF0AC08091F801882351F0853041F012
:101C90008091E80083FD04C08091E80082FFF2CFCC
:101CA0008091E8008B778093E8003EC08038E1F5B2
:101CB0008091E800877F8093E8008091F90180930C
:101CC000F1008091E8008E778093E8000E94C80AB6
:101CD0002BC0811129C08091FC019091FD019927B1
:101CE000029714F58091E800877F8093E8001091B7
:101CF000FC011093F9010E94C80A111106C08091DD
:101D0000E30087FD02C081E001C084E08093F80118
:101D100042E061EC81E00E94E70A42E261EC82E08D
:101D20000E94E70A8091F8018091E80083FF1AC0C1
:101D30008091E800877F8093E8008091EB008062CB
:101D40008093EB000FC082E190E0EAE7F2E055CF2C
:101D500089E090E0E1E5F2E050CF80E490E0EFEF41
:101D6000F1E04BCFAA96E3E00C94922B1F920F92D6
:101D70000FB60F9211242F933F934F935F936F935E
:101D80007F938F939F93AF93BF93CF93DF93EF9303
:101D9000FF93C091E900CF708091EC00D82FD170F3
:101DA00080FDD0E81092E9008091F000877F809359
:101DB000F00078940E94F40B1092E9008091F000FA
:101DC00088608093F000CD2BCF70C093E900FF9125
:101DD000EF91DF91CF91BF91AF919F918F917F91C3
:101DE0006F915F914F913F912F910F900FBE0F9088
:101DF0001F901895E8EDF0E080818E7F808310922F
:101E0000E2001092DA001092E100A0EEB0E08C91B6
:101E100081608C9380818F77808319BCA7EDB0E0BF
:101E20008C918E7F8C9380818F7E80831092EB01CA
:101E30000895A0E0B0E0EFE1FFE00C94712BC8ED55
:101E4000D0E088818F7E8883E7EDF0E0808181603B
:101E5000808384E082BF81E08093EB0188818E7F64
:101E6000888302EE10E0F80110821092DA0081EE11
:101E7000C82ED12CF601108288818F7788838881C3
:101E80008068888388818F7D888319BC1092F801CF
:101E90001092F9011092F7011092F60190EEE92EDE
:101EA000F12CF70180818B7F80838881816088831A
:101EB00042E060E080E00E94E70AF60180818E7FC8
:101EC0008083F80180818160808380818860808345
:101ED000F70180818E7F8083888180618883CDB780
:101EE000DEB7E8E00C948D2B1F920F920FB60F9285
:101EF00011242F933F934F935F936F937F938F930F
:101F00009F93AF93BF93EF93FF938091E10082FF84
:101F100009C08091E20082FF05C08091E1008B7FC3
:101F20008093E1008091DA0080FF2AC08091D80080
:101F300080FF26C08091DA008E7F8093DA00809146
:101F4000D90080FF18C080E189BD82E189BD09B454
:101F500000FEFDCF81E08093F8018091EB018111BB
:101F60000FC00E94FA0E0E94190F8091E200846057
:101F70008093E20005C019BC1092F8011092EB01A9
:101F80008091E10080FF17C08091E20080FF13C0C4
:101F90008091E2008E7F8093E2008091E200806178
:101FA0008093E2008091D80080628093D80019BCB1
:101FB00085E08093F8018091E10084FF30C080913A
:101FC000E20084FF2CC080E189BD82E189BD09B4B3
:101FD00000FEFDCF8091D8008F7D8093D800809146
:101FE000E1008F7E8093E1008091E2008F7E8093FC
:101FF000E2008091E20081608093E2008091F9012B
:10200000882311F084E007C08091E30087FD02C0BF
:1020100081E001C083E08093F8018091F801809114
:10202000E10083FF27C08091E20083FF23C08091FD
:10203000E100877F8093E10082E08093F8011092B5
:10204000F9018091E1008E7F8093E1008091E200B0
:102050008E7F8093E2008091E20080618093E200B5
:1020600042E060E080E00E94E70A8091F000886032
:102070008093F000FF91EF91BF91AF919F918F916D
:102080007F916F915F914F913F912F910F900FBE74
:102090000F901F90189578941F920F920FB60F9281
:1020A00011248F939F93AF93BF938091E7019091F9
:1020B000E801A091E901B091EA010196A11DB11DCD
:1020C0008093E7019093E801A093E901B093EA01BE
:1020D000BF91AF919F918F910F900FBE0F901F9066
:1020E00018959C014FB7F8948091E7019091E80111
:1020F000A091E901B091EA014FBF821B930B0895B3
:102100002FB7F8946091E7017091E8018091E9019F
:102110009091EA012FBF08952FB7F8948091E701BD
:102120009091E801A091E901B091EA012FBF0895D3
:10213000ABE0B0E0EEE9F0E10C94772B88E0E2E967
:10214000F3E0DE01119601900D928A95E1F78091FE
:102150000C0390910D03A0910E0389879A87AB879A
:102160002B85409118025091190260911A027091CA
:102170001B023FB7F8948091E7019091E801A0918C
:10218000E901B091EA013FBF841B950BA60BB70B89
:1021900084369105A105B10510F4222319F180912F
:1021A0001E0190911F018E5F9D4F40911D0150E0D7
:1021B0004C30510510F04BE050E0BE016F5F7F4F97
:1021C0000E944F2D83E090E00E94EC2A882369F062
:1021D0000E948010609318027093190280931A0273
:1021E00090931B0210920E0381E02B96E2E00C9478
:1021F000932BAEE0B0E0EFEFF0E10C94672B85B7E6
:10220000806885BF85B7806885BF84B7877F84BFB6
:102210000FB6F894A8958091600088618093600063
:10222000109260000FBE90E080E80FB6F8948093A3
:102230006100909361000FBE8DE595E19093C5011B
:102240008093C4010E94FA0E0E94190F8091E2004F
:1022500084608093E20078948091F8018823A1F053
:102260001091E9001F709091EC00892F817090FD12
:1022700080E8182B1092E9008091E80083FD0E940D
:10228000F40B1F701093E90082E084BD93E095BDCC
:102290009AEF97BD80936E0010921D0210921E025D
:1022A00010921F021092200252985A988FE891E0E3
:1022B0000197F1F700C0000089B182FB882780F9FF
:1022C0008093330180913301882321F010924A01D9
:1022D00088E003C088E080934A0180934B010E940C
:1022E000E21681110E94012A80913301811127C0D9
:1022F00086E0EFE4F1E0DE01199601900D928A95F7
:10230000E1F7FE013996ADE2B1E0CE010F969F01F3
:1023100041914D938E179F07D9F788E0E5E5F1E0ED
:10232000DE01119601900D928A95E1F7FE0131963A
:10233000A5E2B1E081918D93E217F307D9F780917F
:102340003301811102C096E001C090E090932E020B
:1023500086E0891B80932D020DE211E093E3E92EC4
:1023600091E0F92ED8018D918D018F3F11F00E94DF
:102370000517E016F106B1F705E211E08DE2E82E4F
:1023800081E0F82EF80181918F018F3F11F00E94BA
:102390000517E016F106B1F78CE0E4E3F2E0DF01A7
:1023A000282F1D922A95E9F7E1E2F2E0DF011D9264
:1023B0008A95E9F780E090E00E94082C863E9E4FC7
:1023C00011F00E94F71882E090E00E94FA2B8093AF
:1023D000400284E090E00E94082C909332028093A7
:1023E000310283E090E00E94FA2B90E00E94A81E48
:1023F0008091330281117BC080E090E00E94082C24
:10240000863E9E4F21F00E94F7180E94A32588E087
:1024100090E00E94022C4B015C0184E290E00E945B
:10242000FA2B282F30E040E050E060E070E080E0E0
:1024300090E000E20E94FE2C282939294A295B29D4
:102440002093920330939303409394035093950306
:1024500060939603709397038093980390939903E6
:1024600080910E03836080930E032E7F89F50E9476
:10247000A32588E090E00E94022C6B017C0184E29D
:1024800090E00E94FA2B282F30E040E050E060E01E
:1024900070E080E090E00E94FE2CB22FA32FF42F7A
:1024A000E52F5B0197018601BC29A12BF22BE32BC1
:1024B000B0939203A0939303F0939403E093950356
:1024C00060939603B0929703809398039093990337
:1024D0000E9436250E94AD248091920380FF04C0A3
:1024E00060E086950E94A52781E0809333020E94D8
:1024F000E216811102C00E94042A84E391E09093C5
:10250000A3038093A20318E1C12ED12C00E4A02ED6
:1025100002E0B02EBDE46B2EB2E07B2E8091F8017C
:10252000853009F041C000E112E18091F801853069
:1025300009F036C08091F801843011F11092A603A1
:10254000F0E40FB6F894A895C09260000FBEF09327
:10255000600083B7817F846083BF83B7816083BF5E
:102560007894889583B78E7F83BF0FB6F894A8952B
:1025700080916000886180936000109260000FBEBF
:102580008091F701882309F4D0CF0E948319E4E3F6
:10259000F2E0819181113CC2AE16BF06D1F7C5CFE2
:1025A0000E94AD1E0E94D1230E94831901E412E013
:1025B000A4E3EA2EA2E0FA2ED701F80191918D91C1
:1025C00089276E167F0619F08823C1F305C0811193
:1025D00003C00E94D31837C00E94E216282E912C07
:1025E000D7013D907D01F8014080432421F1812CE9
:1025F00055245394842D8521B9F02220A9F0898691
:102600009A860E948C109C878B87F1E0FD8791E071
:10261000832D852109F490E09E8749855A856B8535
:102620007C858D850E9436288394550C28E0821283
:10263000E1CFD8013C9293940F5F1F4FBCE09B12F7
:10264000CFCF0E941C170E94E216882389F0809148
:102650009B03882369F00E948C1020914D023091D9
:102660004E02821B930B8F3F9F4710F40E948524DC
:1026700080910D03882309F4CFC080910C03E09171
:102680009203E695E81BE0930803823059F4F0E0EA
:10269000EB52FD4FE4910E2F10E0F3E2EF2EF3E248
:1026A000FF2E6BC0863059F4F0E0EE52FD4FE491FE
:1026B0000E2F10E0E3E1EE2EE3E2FE2E5EC0893045
:1026C00061F4E695F0E0E153FD4FE4910E2F10E048
:1026D0007FE9E72E72E2F72E50C08F3061F4E69565
:1026E000F0E0E453FD4FE4910E2F10E068E1E62E98
:1026F00062E2F62E42C0853159F4F0E0E753FD4F17
:10270000E4910E2F10E052E9E52E51E2F52E35C08E
:102710008831F9F0833249F4E7ECF2E00591149145
:1027200049EDE42E42E2F42E28C08432C9F085320D
:10273000F1F48E2F63E00E94B52CE92FF0E0EC530A
:10274000FD4FE4910E2F10E03FEEE32E3FE1F32E1C
:1027500014C008E210E02DE0E22E21E2F22E0DC0BE
:1027600004EF11E09EECE92E90E2F92E06C000ED98
:1027700017E08EEEE82E8FE1F82E80910903882372
:1027800061F0109209030E948B17909307038093C6
:10279000060310920B0310920A030E948B17E0911C
:1027A0000603F09107039C012E1B3F0B2F3F3F4771
:1027B00098F5209151022223B1F0109251022091FC
:1027C0004F0230915002821B930B8F3F9F4758F46A
:1027D000205D3A483093500220934F0280910E03BF
:1027E000886080930E0380900A0390900B030E0F75
:1027F0001F1F109307030093060386E093E0F70181
:10280000099580910A0390910B03892B29F489285B
:1028100019F081E08093510286E0EEEAF3E0DE01F8
:10282000119601900D928A95E1F71092B0031092E3
:10283000B1031092B2031092B3038B81811104C0D3
:102840008C81882309F453C08091AC039091AD032F
:102850000E9471109C019091A703992309F4EEC086
:102860002531310508F443C09F3F19F09F5F9093D5
:10287000A7031B81112361F00E948527111614F014
:102880009FEF01C091E0899F802D11248093B003B8
:102890001C81112361F00E948527111614F09FEF0F
:1028A00001C091E0899F802D11248093B103309164
:1028B000B0033323E1F02091B1032223C1F045EBB3
:1028C0003403C0011124992319F09093B00303C07D
:1028D00081E08093B00335EB2303C00111249923D9
:1028E00019F09093B10303C081E08093B1038D810F
:1028F000811104C08E81882309F453C08091AA03FA
:102900009091AB030E9471109C019091A8039923B0
:1029100009F499C02135310508F443C09F3F19F0EF
:102920009F5F9093A8031D81112361F00E9463278C
:10293000111614F09FEF01C091E0899F802D1124A2
:102940008093B2031E81112361F00E946327111648
:1029500014F09FEF01C091E0899F802D1124809396
:10296000B3033091B2033323E1F02091B303222368
:10297000C1F045EB3403C0011124992319F0909361
:10298000B20303C081E08093B20335EB2303C0019F
:102990001124992319F09093B30303C081E080932D
:1029A000B30346E050E0BE016F5F7F4F8EEA93E0D5
:1029B0000E94422D892BA9F48091B00381110FC090
:1029C0008091B10381110BC08091B203811107C0C6
:1029D00081E09091B303911103C080E001C081E0D8
:1029E00080FD0E94392786E0FE013196AEEAB3E011
:1029F00001900D928A95E1F70E94D12390915202A5
:102A0000891709F48BCD809352020E94801082CDE9
:102A100009BD19BD09B400FEFDCF8091D8008F7D9E
:102A20008093D8008091E00082608093E0008091E4
:102A3000E00081FDFCCF0E94AD1E77CD2B3031052B
:102A400008F014CF54CF2B30310508F069CFA9CF4F
:102A5000A0E0B0E0EEE2F5E10C946F2B7C015B01AD
:102A60006A0180911C028A3018F001E010E002C077
:102A70000AE010E0C1E0D0E0B501C701F601099518
:102A8000811115C021960C171D0794F0CC9F900161
:102A9000CD9F300D300D112480E090E045E34A9544
:102AA000F1F70000019682179307C1F7E5CF81E0A7
:102AB000CDB7DEB7EAE00C948B2B80E008959091BF
:102AC000310292FF0DC0282F2871283019F4877F1A
:102AD000846006C0282F2471243011F48B7F886015
:102AE00093FF0DC0282F2871283119F4877E846147
:102AF00006C0282F2471243111F48B7E8861209127
:102B0000320220FF0DC0382F3871383019F4877F1A
:102B1000816006C0382F3171313011F48E7F8860AA
:102B200021FF0DC0282F2871283119F4877E81617B
:102B300006C0282F2171213111F48E7E886194FD09
:102B4000877E08958238910569F1B0F4813391054B
:102B500009F475C048F48932910509F467C08A32D6
:102B6000910509F471C008958533910509F459C0A0
:102B700089339105B9F00895833E910589F138F4C0
:102B8000803E9105D1F0823E910529F10895863E5F
:102B90009105C9F1873E9105D9F1843E910509F06F
:102BA0006CC027C02091310220FD57C021FD55C0C7
:102BB0002091320223FD5BC008958091310280FD97
:102BC00048C08091320280FF48C08091310284FD6C
:102BD00046C083EE51C08091310282FF3CC0F5CFE8
:102BE0008091310282FD37C08091320280FD35C074
:102BF000ECCF8091320281FF36C08091310284FD9A
:102C00002EC087EE39C08091310283FF2AC0F5CFF4
:102C10008091310283FD25C08091320281FD23C065
:102C2000ECCF8091310285FD22C01FC0809131021E
:102C300085FD1BC08091320283FF19C00AC08091BC
:102C4000310286FD16C017C08091310286FD13C087
:102C500010C089E311C082EE0FC080EE0DC080E08D
:102C60000BC086EE09C084EE07C085E305C089E28B
:102C700003C08AE201C081E390E00895EF92FF92E1
:102C80001F93CF93DF93CDB7DEB727970FB6F89496
:102C9000DEBF0FBECDBF7B0180E090E00E94EC2A3A
:102CA000882309F463C04091080150E041155105A3
:102CB00011F041E050E06091090170910A016E5FEE
:102CC0007D4FCE0107960E944F2D40916A02509190
:102CD0006B0260916C0270916D022FB7F894809135
:102CE000E7019091E801A091E901B091EA012FBFBD
:102CF000841B950BA60BB70B84369105A105B10576
:102D000038F483E092E00E94DD0B9F81891781F106
:102D100081E090E00E94EC2A182F882391F04091E6
:102D2000100150E04730510510F046E050E060914E
:102D30001101709112016E5F7D4FCE0101960E94CC
:102D40004F2D83E092E00E94DD0B91E02F8128134C
:102D500090E0192311F10E94801060936A02709331
:102D60006B0280936C0290936D020CC010E001C066
:102D700011E086E0E3E0F2E0DE01119601900D92B1
:102D80008A95E1F7112349F086E0FE013196A4E629
:102D9000B2E001900D928A95E1F786E0E4E6F2E078
:102DA000D70101900D928A95E1F7812F27960FB6F2
:102DB000F894DEBF0FBECDBFDF91CF911F91FF9082
:102DC000EF90089580916302811118C08091D8001E
:102DD00080618093D8008AE18A95F1F700C08091E4
:102DE000D90080FD02C082E001C081E080936302CF
:102DF000823021F40E94FA0E1092F80181E0909145
:102E00006302913009F080E00895F894E82FE2958C
:102E1000EF70F0E031A1282F2F7081E090E001C029
:102E2000880F2A95EAF7982F9095932391A392A162
:102E3000892B82A3789408950F931F930E94E21622
:102E4000882319F00E9480100EC00E94801000910B
:102E50001D0210911E0220911F0230912002600F6E
:102E6000711F821F931F1F910F910895A4E0B0E07E
:102E7000ECE3F7E10C94772B40916E0250916F02D6
:102E800060917002709171022FB7F8948091E70100
:102E90009091E801A091E901B091EA012FBF841B54
:102EA000950BA60BB70B84369105A105B10570F102
:102EB0000E941C17DC01CB010296A11DB11D898364
:102EC0009A83AB83BC8380911601909117018E5F2A
:102ED0009D4F4091150150E04530510510F044E000
:102EE00050E0BE016F5F7F4F0E944F2D82E090E067
:102EF0000E94EC2A882359F00E94801060936E0291
:102F000070936F02809370029093710281E0249617
:102F1000E2E00C94932B0E94E216882319F00E94A1
:102F20008C1008950E941C17CB0108957C30C8F4C2
:102F30006830B8F48430B8F4E72FF0E09CE0899F63
:102F4000E00DF11D112483E0EE0FFF1F8A95E1F7DC
:102F5000E60FF11DEE0FFF1FE752FD4F8591949193
:102F6000089580E001C081E090E008951F93CF9321
:102F7000DF930E94A215EC01C11580E5D807E8F5A2
:102F8000C11590E4D90708F0A8C0C03ED10530F5BE
:102F9000CD3CD10508F094C0C83AD10578F4C53AC3
:102FA000D10508F083C0C130D10509F47CC008F414
:102FB000F2C0C430D10508F0F1C0EDC0C33CD1056A
:102FC00008F0E9C0C85AD0E0CC0FDD1FCE59DE4F63
:102FD0000990D881C02DCE019464E1C0C11580E272
:102FE000D80708F0CBC0C11591E0D90708F06BC035
:102FF000C83ED10508F4D2C0CEC0C03682E5D8079D
:1030000028F5C03492E5D90708F079C0C03282E5CE
:10301000D80708F06CC0C11592E5D90708F481C043
:103020004C2F4695469580E2489FA0011124C3701D
:1030300021E030E0C90102C0880F991FCA95E2F76C
:10304000EA01C82BD92BCE019D68A9C0C03A82E500
:10305000D807B8F48C2F8F71C03892E5D90708F0E3
:103060007BC08695869590E2899F90011124C3705C
:1030700081E090E002C0880F991FCA95E2F79A6834
:1030800068C0C03C82E5D80708F46DC0C03E92E538
:10309000D90708F080C0CF71DD27DC2FCC27CE0107
:1030A000806F906A7CC081E090E079C0C55AD0E022
:1030B000C15ADE4F8881C82FD0E0CE0190646FC026
:1030C000CE0190656CC08D2F0E945F15182FCE0128
:1030D00099270E94A2151F715CC0CE0199270E94FA
:1030E000A215CC27DF70D06A8C2B9D2B58C0CF71D6
:1030F000D0E0DC2FCC27CE01816F906A50C08C2F9E
:103100008F718695869590E2899F90011124C370F6
:1031100081E090E002C0880F991FCA95E2F79C6891
:1031200018C08C2F8F710E945F1595E0D695C795BA
:103130009A95E1F7CF70D0E0DC2FCC27282F30E034
:1031400084FF05C084E0220F331F8A95E1F7D06920
:10315000CE01822B932B23C090E0D82FCC27CE0119
:10316000846F906A1CC08C2F8F710E945F158F71C5
:1031700090E0D82FCC27CE01906211C08D2F8F7197
:103180000E945F15182FCE0199270E94A2151F716A
:103190009062912B04C080E090E001C0CE01DF91ED
:1031A000CF911F910895A6E0B0E0E9EDF8E10C940D
:1031B000752B0E948C108C018091570290915802BF
:1031C0000817190781F019821A820E948C10682F43
:1031D00049815A81792F80E090E00E94362810932F
:1031E0005802009357022696E4E00C94912BA8E035
:1031F000B0E0EDEFF8E10C94772B66EE7EEF80E027
:1032000090E00E943C2C60E082E090E00E941E2C46
:1032100060E083E090E00E941E2C10925602109213
:10322000550260E074E184E090E00E943C2C60E094
:1032300086E090E00E941E2C6FEF87E090E00E94F5
:103240001E2C40E050E0BA0188E090E00E94302C53
:1032500060E084E290E00E941E2C60E087E190E054
:103260000E941E2C60E08CE090E00E941E2C60E02A
:103270008DE090E00E941E2C19821A821B821C8213
:103280001D821E821F82188648E050E068E170E0CF
:10329000CE0101960E940E2C40E050E0BA0180E27F
:1032A00090E00E94302CE2E9F3E08081816080832D
:1032B00086950E94ED2721E04FEF6FEF80E00E949E
:1032C00062268BE00E94ED2740E050E0BA018FE0DB
:1032D00090E00E94302C40E050E0BA0183E190E0A1
:1032E0000E94302C2896E2E00C94932B809154029B
:1032F0008111109254020895809590915302892370
:10330000809353020895A2E1B0E0E9E8F9E10C945A
:103310006A2BAE014F5F5F4F7A018CE0DA011D929C
:103320008A95E9F70DE211E06A0183E3682E81E0F6
:10333000782EAA24A394B12C2DE2822E21E0922E85
:10334000F80180818F3F09F440C0F894E82FE2959E
:10335000EF70F0E021A18F70A50102C0440F551F4E
:103360008A95E2F7CA01922F982B91A392A180959A
:10337000892382A3789400C0E5E2F1E0512C31E08A
:1033800021912F3F89F0A22FA295AF70B0E09096C7
:103390008C9190E02F7002C0959587952A95E2F761
:1033A00080FD02C0832F01C080E0582A330F8E16A3
:1033B0009F0631F7D8018C918F3F11F00E940517BD
:1033C000B0EABA95F1F7F60150820F5F1F4FFFEF99
:1033D000CF1ADF0A6016710609F0B2CF4CE050E058
:1033E000B70181E292E00E94422D009741F02CE06B
:1033F000F701A1E2B2E001900D922A95E1F7009168
:103400002E02892B49F081E080935B020E948C1090
:1034100090935A028093590280915B02811102C0FD
:10342000D12C22C08091590290915A020E947110B1
:103430000597B0F310E00C5C1D4F46E050E061E2F0
:1034400072E0C8010E94422D892B59F086E0E1E22A
:10345000F2E0D80101900D928A95E1F7DD24D39432
:1034600001C0D12C10925B020E94E216E0912E0264
:10347000882309F471C07E012DE0E20EF11C86E084
:10348000D7011D928A95E9F70E2F10E00C5C1D4FB5
:1034900080911C028A3048F44EE356E1B701C8011E
:1034A0000E942815882369F10AC080915C029091DE
:1034B0005D020E947110843F914070F733C046E373
:1034C00057E1B701C8010E9428158823D1F048E9C7
:1034D00050E1B701C8010E942815882391F010928D
:1034E0001C0280912D0290E046E050E0B7018C5C18
:1034F0009D4F0E94422D21E020936202892BF1F41E
:10350000ACC080911C028F3F19F08F5F80931C022A
:1035100080911C028A3028F30E948C1090935D02E7
:1035200080935C0280916202882309F496C086E051
:10353000F70111928A95E9F710926202A0912D028B
:10354000B0E0AC5CBD4F86E0FE013D9601900D926F
:103550008A95E1F781E082C0F0E0EC5CFD4F86E007
:10356000A3E0B2E001900D928A95E1F783E092E04A
:103570000E94DD0B809302028090090290900A0263
:10358000A0900B02B0900C0280915E0290915F02BD
:10359000A0916002B091610288169906AA06BB0646
:1035A000D1F080925E0290925F02A0926002B0928F
:1035B00061020E94E21681110EC00E948010861ADC
:1035C000970AA80AB90A80921D0290921E02A09240
:1035D0001F02B092200280910D02282F2170869543
:1035E000F0900E02E0900F02C090100200911602BF
:1035F0001091170210921702112379F110FF17C0D2
:1036000090919203222339F091609093920360E0AD
:103610000E94A5270CC09E7F909392030E94AD2428
:1036200080910E03816080930E030E94CF2411FFCE
:1036300006C020E04C2D6E2D8F2D0E94622612FFB9
:1036400007C0002319F00E94B42402C00E94AD24D8
:1036500013FF03C081E08093090380E08D29629607
:10366000EFE00C94862B2091FC029091B30259E07C
:103670002917A9F030E0529FF001539FF00D11245B
:10368000EC54FD4F7181761306C07081781303C02E
:103690007581741306C02F5F3F4F2770E9CF80E01C
:1036A000089581E008959091530280919A03982B98
:1036B0009093720280915402882389F0892B809321
:1036C0007202E4E7F2E097E080E0915029F0219166
:1036D0002223D9F38F5FF9CF81110E94761948E038
:1036E00050E06EEF72E082E792E00E94422D892B5B
:1036F000A9F088E0E2E7F2E0AEEFB2E001900D92CF
:103700008A95E1F7E091A203F091A303309731F09D
:103710000280F381E02D82E792E00995089580917F
:10372000FC029091B302891719F08F5F8770FBCF6D
:103730000895CF93DF938091B00282958F7009F046
:103740004EC08091AF02882309F449C08091FC02E9
:103750004091B3025091AB026091AA02C091AC02B9
:10376000D091AD0279E08417D1F190E0789FF0011B
:10377000799FF00D1124DF01AC54BD4F14962C91AC
:103780001497222349F111962C911197251324C0E7
:103790002C91261321C015962C91159721111CC030
:1037A00012962D913C9113972C1B3D0B283C310513
:1037B00098F48091B0028F7080618093B002E654DB
:1037C000FD4F80818F70806180838AEA92E00E9441
:1037D0000E040E948F1B03C001968770C4CFDF9137
:1037E000CF910895A0E0B0E0E8EFFBE10C94702BDE
:1037F0007C0100912F02109130028091550290912E
:103800005602082B192BCFE0D0E0CC24C394D12C46
:10381000C6010C2E02C0880F991F0A94E2F780237C
:103820009123892B21F4219798F7B12C09C0BC2E44
:10383000B7018C2F0E9496170E94B617019799F333
:103840008B2DCDB7DEB7E9E00C948C2BCF93DF93B3
:10385000EC010E94F21BBE010E9496170E94B6174F
:10386000DF91CF910895FC012481222311F18781FA
:103870009085009719F00E94B61704C0808191814D
:103880000E94261C92959F70963079F010F4925009
:1038900001C09A50923068F4803F69F018F4883E75
:1038A00040F409C0843F29F406C0883E20F0813FDF
:1038B00011F080E0089581E00895A8E1B0E0E3E62A
:1038C000FCE10C946D2B8C0186E0F801DE0153962F
:1038D00001900D928A95E1F7F8018481E5809AEADA
:1038E000892E92E0992E9091AE02911120C08823EA
:1038F00009F46BC1EE2009F442C0C8010E94331CD8
:10390000F82E8823E1F189E0F801D40101900D92AD
:103910008A95E1F78091AE02813031F48091AA025C
:103920009091AB020E94261C0E94991B50C1F80185
:10393000D080C180A280B380F090AF022091AC0211
:103940003091AD02FF2009F4EFC0A501421B530BDB
:10395000483C510508F0A1C0882309F438C1809182
:10396000B002282F207F9091AB02222361F09C159A
:1039700009F460C0C8010E94331C811163C0C801F2
:103980000E940E0422C19C1113C09091AA029D11A5
:103990000FC0E1100DC08F7080618093B0028AEA81
:1039A00092E00E940E048091B002F80186830BC160
:1039B000E1103AC040E06C2D8D2D0E94331B40E099
:1039C0006C2D8D2D0E94331BE82E8111FCC0DB8AEB
:1039D000CC8A8B899C890E94261C292F22952F70C6
:1039E000243020F49F70223028F009C02A50223061
:1039F00080F014C0992349F0811107C013C09923A6
:103A000021F0F8019681907F69F0805E883030F473
:103A100009C0803F38F0815F833020F0C8010E94E8
:103A20000E04EF2CFE2CD3C08091B00281608093F5
:103A3000B002C9C09091AA029D119CCFE1109ACF0B
:103A4000F801A0C0EE2009F49ACF2091B002822F95
:103A500082958F7090E00297ACF0CE010A9639E023
:103A6000FC0111923A95E9F74091AA025091AB02FC
:103A70005B874A87BD86AC863091AE023E87288B35
:103A80000E940E0489E0F801AAEAB2E001900D92CA
:103A90008A95E1F70E94991B98C09091B002292F56
:103AA000207F51F48AEA92E00E940E0489E0F4013A
:103AB00011928A95E9F787C0882309F488C080911C
:103AC000AB028C110CC08091AA028D1108C0E110CC
:103AD00006C0F8019683C8010E940E046EC0C8019A
:103AE0000E94331C882309F44ACFEE2009F447CF03
:103AF0002091B002822F82958F7090E0029714F28D
:103B0000CE01019639E0FC0111923A95E9F7409116
:103B1000AA025091AB025A834983BC82AB82309196
:103B2000AE023D832F83ACCFA21AB30AF8ECAF16D6
:103B3000B10408F042C0882309F447C0FE2CEE20EF
:103B400009F41DCF8091AB028C1129C08091AA028B
:103B50008D1125C09091B00290FD18C0892F8295DB
:103B60008F70282F30E02115310581F0F801968300
:103B70002F30310541F08F5F982F9295907F86818D
:103B80008F70892B8683C8010E940E0489E0F8019A
:103B9000AAEAB2E001900D928A95E1F718C0C80137
:103BA0000E94331C81116ECF8091B002816080939E
:103BB000B002C8010E940E040AC089E0F40111920B
:103BC0008A95E9F704C0F12C02C0FF24F3948F2DED
:103BD0006896ECE00C94892B9C3078F5883068F579
:103BE000E82FF0E088E0989FE00DF11D11249E2F52
:103BF000977083E0F695E7958A95E1F7EE0FFF1F42
:103C0000EE0FFF1FE658FD4F40E050E080E02191AD
:103C100030E0092E02C0369527950A94E2F721700C
:103C20003327042E01C0220F0A94EAF7822B4F5F3C
:103C30005F4F4430510559F7089580E008959C3056
:103C400088F5883078F5E82FF0E088E0989FE00D5F
:103C5000F11D11248E2F877051E001C0550F8A95F8
:103C6000EAF783E0F695E7958A95E1F7EE0FFF1FF7
:103C7000EE0FFF1FE658FD4F20E030E070E040817E
:103C8000CB01022E02C0969587950A94E2F78170C7
:103C9000819584278523842781932F5F3F4F24308C
:103CA000310569F708959093300280932F020895AB
:103CB00021E030E002C0220F331F8A95E2F7209501
:103CC000309580912F0290913002822393230E949D
:103CD000531E08959091FD02809589238093FD02E3
:103CE000282F277069F4981759F09091320292FFAB
:103CF00007C08695869586950E94581E1092FD02F3
:103D000008959091320292FB222720F9281779F02A
:103D100080FB92F9909332026091310270913202ED
:103D200084E090E00E943C2C82E00E946A1E08958C
:103D300021E030E002C0220F331F8A95E2F7809124
:103D40002F0290913002822B932B0E94531E0895D4
:103D500090935602809355020895CF931092530288
:103D6000C6E0E4E7F2E0DF018C2F1D928A95E9F7C7
:103D700080E090E00E94AC2380E090E00E948723E6
:103D800010929A030E94531BEEEAF3E0DF011D92AA
:103D9000CA95E9F71092A7031092A8031092A903FD
:103DA0000E943927CF910895882321F00E947C1921
:103DB0000E94531B0895882339F090915302892B58
:103DC000809353020E94531B0895882309F460C016
:103DD000823869F40E94D12381FF5AC069E382E7E7
:103DE00092E00E946D230E94531B69E30EC083384A
:103DF00099F40E94D12380FF4BC063E582E792E0F3
:103E00000E946D230E94531B63E582E792E00E94AB
:103E100060230E94531B0895843869F40E94D123C3
:103E200082FF36C067E482E792E00E946D230E9421
:103E3000531B67E4EACF9CEF980F913A10F4682F78
:103E4000E4CF90E2980F983050F4877091E001C071
:103E5000990F8A95EAF7892F0E947C19DACF9BE5A2
:103E6000980F933028F480E090E00E94AC230895EE
:103E700098E5980F9B3128F480E090E00E9487231A
:103E8000089593E3980F933118F460E00E94D528C9
:103E90000895CF93882309F49FC0C82F8238B1F4C6
:103EA0000E94D12381FD98C069E382E792E00E94DD
:103EB0006D230E94531B2FEF87EE93E0215080402B
:103EC0009040E1F700C0000069E317C08338E1F4D7
:103ED0000E94D12380FD80C063E582E792E00E94CA
:103EE0006D230E94531B2FEF81EE94E02150804000
:103EF0009040E1F700C0000063E582E792E00E9495
:103F000060230E94531B68C08438B1F40E94D123FF
:103F100082FD62C067E482E792E00E946D230E9406
:103F2000531B2FEF81EE94E0215080409040E1F749
:103F300000C0000067E4E1CF8CEF8C0F813A80F481
:103F4000E4E7F2E08AE792E02191C217E9F18E17E7
:103F50009F07D1F76C2F82E792E00E946D23D1CFAB
:103F600080E28C0F883068F4C77081E090E001C077
:103F7000880FCA95EAF790915302892B80935302D8
:103F8000C0CFEBE5EC0FE33040F4F0E0E15AFE4F38
:103F9000808190E00E94AC231FC0E8E5EC0FEB317C
:103FA00050F4F0E0EE0FFF1FEE59FE4F808191813B
:103FB0000E94872311C083E38C0F833168F461E092
:103FC0008C2F0E94D52808C06C2F82E792E00E94B7
:103FD00060230E94531BBECFCF91089508952F9266
:103FE0003F925F926F927F928F929F92AF92BF9219
:103FF000CF92DF92EF92FF920F931F93CF93DF93B5
:10400000FC016280548081E08483E9EDF5E07490E6
:10401000E8E5F6E0E491C0919503C695C158D0E07B
:10402000CC0FDD1F2D2E3324812C75E0972EAA2472
:10403000AA94B12CE719EE2EF12C80914E0188162E
:1040400008F098C0C82CD12C22E0261568F09C9C62
:10405000F0019D9CF00D1124EE5BFC4F80919303C9
:10406000808380919403818351100AC09C9CF0014D
:104070009D9CF00D1124EE5BFC4F1382128260C0F8
:104080009C9C80019D9C100D1124E801CE5BDC4FAF
:104090008B818823F9F081508B832FEF829FC001A1
:1040A00011246C8170E00E94C12CFB01FF27E752B4
:1040B000FA4F8491E82FE7192FEFE29FC0011124F6
:1040C000B7010E94C12C80919503689FB001112413
:1040D0007A8336C00E94EA2BB5010E94D52C821546
:1040E000930574F582E0861588F40E94EA2BB501E9
:1040F0000E94D52C88830E94EA2B20919403269558
:10410000622F70E00E94D52C280F29839C9CF0011F
:104110009D9CF00D1124EE5BFC4F12828091950363
:10412000843120F0893C18F088EC01C084E19C9C2B
:10413000F0019D9CF00D1124EE5BFC4F8483838382
:1041400080914C019601280F311DC901880F991FDC
:10415000280F391F2E5E3C4F9C9CF0019D9CF00D5A
:104160001124EE5BFC4F4281618180810E94BE255B
:10417000839463CF0E94CF24DF91CF911F910F9141
:10418000FF90EF90DF90CF90BF90AF909F908F9077
:104190007F906F905F903F902F9008950F931F93A3
:1041A000CF93DF93EC0100E010E080914E01282FC7
:1041B00030E00217130724F590914C019801290F64
:1041C000311DA901440F551F240F351F2E5E3C4F92
:1041D000869590E04C81081719071CF4442331F0B0
:1041E00002C0411103C04091950301C040E06091BD
:1041F0009403809193030E94BE250F5F1F4FD5CF7C
:104200000E94CF248C8190E00196817099278C8345
:10421000DF91CF911F910F910895A0E0B0E0E3E10D
:10422000F1E20C946D2B8C01FC014481C42FD0E091
:104230009E01DE010E94A62C9B01AC010E94712C04
:104240006B017C01E0E2F0E0EC1BFD0BA5E5B0E0CA
:104250009B01AC010E94712C4B015C019F01DF01AD
:104260000E94EF2C9B01AC010E947C2C9B01AC01B5
:104270002C0D3D1D4E1D5F1DC501B4010E94842CF7
:10428000C22FD22F2A3228F4F3E02F9F900111245D
:104290000DC025E530E02C1B3109C901880F991F9D
:1042A000280F391F37FF02C02F5F3F4F35952795E5
:1042B000C22FC095F12C85E5E82EED1A80914E01B4
:1042C000F816C8F4F1FC02C08E2D01C08D2F90911C
:1042D0004C012F2D30E0290F311DA901440F551F2E
:1042E000240F351F2E5E3C4F4C2F609194030E948B
:1042F000BE25F394E3CF0E94CF24F801848181117D
:1043000002C091E003C0803219F49FEF90934901FD
:1043100090914901890FF8018483CDB7DEB7ECE0B5
:104320000C94892B1F93CF93DF93EC018C81811127
:1043300009C081E08C831092100392E090934801B1
:104340008093470180914C0190914D01891770F441
:10435000E82FF0E09F01220F331FE20FF31FEE5E04
:10436000FC4F1182108212828F5FF0CF10E06091BB
:104370004E011617C0F5E12FF0E070E0CF010E946A
:10438000D52C20914C01820F20911003022E000C9D
:10439000330B90E0E217F307CCF020914801022E96
:1043A000000C330B2E173F078CF09C01220F331F9C
:1043B000820F931F9C012E5E3C4F409195036091AC
:1043C0009403809193030E94BE250BC0FC01EE0F65
:1043D000FF1F8E0F9F1FFC01EE5EFC4F11821082AB
:1043E00012821F5FC4CF0E94CF2480914701209189
:1043F0001003280F2093100390914801980F909379
:10440000480119165CF4022E000C330B40914E014A
:1044100050E0415051092417350734F081958093BD
:104420004701813009F41C82DF91CF911F910895DB
:10443000A0E0B0E0EEE1F2E20C946D2BEC018A8199
:1044400080FF03C0BB24BA9402C0BB24B3948C8108
:1044500081110DC081E0B81206C080914E018150DB
:1044600080930F0302C010920F0381E08C83A12C74
:1044700090904E01A91408F03EC080914C01CA2CC6
:10448000D12C8601080F111DC801880F991F080F34
:10449000191F0E5E1C4FF80111821082128234E047
:1044A000E32EF12C812C80910F03880D813114F0C3
:1044B0008F7002C087FD890D082E000C990BC8165D
:1044C000D90691F4809195038E9DA0018F9D500D8A
:1044D00011245595479555954795980160919403FA
:1044E000809193030E94BE258B0CF1E0EF1AF10836
:1044F000D1F6A394BDCF0E94CF2480910F0391E009
:10450000B9120EC0811107C080914E018150809375
:104510000F031C820FC0815080930F03BC820AC01E
:1045200090E0019660914E0170E00E94D52C80933E
:104530000F038C83CDB7DEB7ECE00C94892BFF9290
:104540000F931F93CF93DF93EC01F12C0FEF10E04B
:1045500060914E01F616F0F480914C012F2D30E061
:10456000280F311DC901880F991F280F391F2E5E92
:104570003C4F70E0C8010E94D52C962F8C81409151
:10458000950360919403F99E800D11240E94BE252D
:10459000F394DECF0E94CF249A818C8190FF02C0D9
:1045A0008F5F01C081508C83CDB7DEB7E5E00C94FE
:1045B000902BA3E0B0E0EFEDF2E20C94752B8C01B0
:1045C0008091110381110AC09E012F5F3F4F4FEF71
:1045D0006FEF0E94BE258A8180931103F8018481C8
:1045E000813051F028F0823061F4409111030AC00B
:1045F0008091110340E007C06091110340E080E02A
:1046000003C040E080E060E00E941B25F801848147
:1046100090E0019663E070E00E94D52C848323969D
:10462000E4E00C94912BCF93DF93EC01E2E9F3E00B
:10463000438162818C810E944A268C818F5F8C83AA
:10464000DF91CF910895CF93DF93EC01EC81F0E0FF
:10465000E752FA4F4491E2E9F3E0628181810E94DE
:104660004A268C818F5F8C83DF91CF9108951F92B2
:104670000F920FB60F9211248F939F93AF93BF9316
:104680008091A603811113C08091E7019091E80108
:10469000A091E901B091EA014196A11DB11D80935D
:1046A000E7019093E801A093E901B093EA01BF917B
:1046B000AF919F918F910F900FBE0F901F90189503
:1046C0009C012A5F3F4FFC014281461301C01282C8
:1046D000019682179307B9F708959C01FC01329661
:1046E0009FEF80E04191461789F09F3F19F44111F7
:1046F00001C0982F8F5F8630A9F79F3F39F0F901ED
:10470000E90FF11D97FDFA95628308950895A3E0DE
:10471000B0E0EDE8F3E20C94772B2091A403309104
:10472000A50328173907A1F09093A5038093A4034C
:10473000E091A203F091A303309751F024E0298384
:104740009B838A830680F781E02DCE01019609952F
:104750002396E2E00C94932BA3E0B0E0E2EBF3E2CB
:104760000C94772B2091A0033091A10328173907CF
:10477000A1F09093A1038093A003E091A203F09194
:10478000A303309751F023E029839B838A8306801B
:10479000F781E02DCE01019609952396E2E00C9475
:1047A000932B0E94E216882359F0E091A203F09126
:1047B000A303309729F00190F081E02D0995089529
:1047C00080E00895EF92FF920F93CF93DF93C42F71
:1047D000D22FFC0185818823B1F040939F030E9472
:1047E0008C1090939E0380939D0380E28C0F883001
:1047F00008F064C0C77081E001C0880FCA95EAF76D
:104800000E94DB1E5BC080919F0348134BC08091C8
:104810009D0390919E030E947110883C910508F0C1
:1048200041C0CD17C9F080E28C0F883040F4C770CA
:1048300081E001C0880FCA95EAF70E94D41E80E289
:104840008D0F883048F481E09D2F977001C0880F4C
:104850009A95EAF70E94DB1E093319F0E12CF12C3E
:1048600003C080E5E82EF12C802F0E94491FE1143F
:10487000F10451F08FE99FE00197F1F700C00000CB
:1048800091E0E91AF108F3CF802F0E94E51E80E243
:104890008D0F883098F4D77081E001C0880FDA95C9
:1048A000EAF70AC080E28C0F883040F4C77081E0DC
:1048B00001C0880FCA95EAF70E94D41EDF91CF91FC
:1048C0000F91FF90EF900895FC0120E0261769F00A
:1048D00034913196341307C031E02327FC01E20FF5
:1048E000F11D849108952F5FF1CF80E0089590919C
:1048F0009C0389029001112437FD04C02F37310534
:104900001CF4890F80939C03089580919B03882356
:1049100049F080919A038D7D80939A030E94531BE6
:1049200010929B0308959091920390FF04C0969576
:10493000981748F003C0811106C090E0961718F44C
:104940000E94FB2708950E94ED270895882311F007
:10495000FA0101C0FB0109950895ECE0F3E0118232
:10496000828184608283089560919203669570E0ED
:104970004BE050E08CE391E00E94352D892B19F437
:1049800081E080930D030E948B179093070380931F
:10499000060380910E03846080930E030895309186
:1049A0004B018091920380FF16C0E0914A0163E0C1
:1049B000E69FF0011124EE5EFC4F539A8BB1877F86
:1049C0009BB198602FB7F894AF0163E0369F400D1C
:1049D000511D112414C080914C0190914D018917F3
:1049E00020F7E82FF0E0AF01440F551FE40FF51F4B
:1049F000EE5EFC4F1182108212828F5FF0CFE417BF
:104A0000F50789F0319168E09BB9000000C037FFDD
:104A10008BB9330F000000C000C000C08BB900C0CC
:104A20006A9591F7ECCF2FBF8FE594E00197F1F7EE
:104A300000C0000008959091920390FF16C09091DD
:104A40004C0120914D01921770F4E92FF0E0DF0145
:104A5000AA0FBB1FEA0FFB1FEE5EFC4F8183608332
:104A600042839F5FF0CF0E94CF24089580919203EC
:104A7000282F269530E02115310519F481708260C8
:104A800005C02B32310524F0817084658093920338
:104A90000895A0E0B0E0EFE4F5E20C946D2B49013D
:104AA0005A016B017C010E9436258401A4016A2D04
:104AB0007B2D88E090E00E94302C94014A2D5B2DE4
:104AC000B601C70100E20E94192D622F84E290E036
:104AD0000E941E2CCDB7DEB7ECE00C94892B8091A0
:104AE0009603882319F081508093960320919203B6
:104AF00030919303409194035091950360919603F4
:104B00007091970380919803909199030E94492591
:104B1000089580919603833018F48F5F80939603F5
:104B20002091920330919303409194035091950307
:104B300060919603709197038091980390919903E7
:104B40000E9449250895E2E9F3E023E020831182E1
:104B50008FEF828383831482ACE0B3E012968C9152
:104B60001297836012968C93758130E04FEF5FEF60
:104B700060E0868197810E9449250895A0E0B0E019
:104B8000E4ECF5E20C946F2BE82EF62EE901E42F0D
:104B9000F0E0611106C0E752F94FE4914E2F2E2F3D
:104BA00071C0062F10E0E752F94F4491F42FC42E44
:104BB000D12C26E0829FC00111242FEF30E0B901F3
:104BC0000E94C12C5BEA5603C001579F900D11242F
:104BD0008E0D911D8E0D911D582F550F580FD90117
:104BE000A01BB10BAC9DC001AD9D900DBC9D900D67
:104BF0001124E92FF59ED0011124AB2FBB27790199
:104C0000EA1AFB0AEC9CD001ED9CB00DFC9CB00DA7
:104C100011245901A51AB108A09E7001A19EF00CA3
:104C2000B09EF00C1124EF2CFF242E193F092C9D6F
:104C300080012D9D100D3C9D100D1124212F6230FF
:104C4000710591F048F461157105E1F0613071056D
:104C5000B9F4242F4B2F16C06430710569F040F071
:104C60006630710579F00CC0242F492FE12F0AC05E
:104C7000492FEF2F2B2F06C0292FE42F412F02C0E1
:104C8000292FEB2F49832883EA83CDB7DEB7EAE0EB
:104C90000C948B2BA3E0B0E0E0E5F6E20C94772BCC
:104CA0009091920390FF0AC09E012F5F3F4F0E9498
:104CB000BE254B8169818A810E941B252396E2E0F3
:104CC0000C94932BA3E0B0E0E8E6F6E20C94702B92
:104CD000082FE62EF42ED22E9091920390FF7DC0E5
:104CE00020919303281308C080919403861304C075
:104CF00080919503841729F080910E038260809340
:104D00000E03E92FE695AE2FB0E0A856BE4F8C916A
:104D100080930C039E7F923071F49E012F5F3F4F72
:104D20004F2D6E2D802F0E94BE254B8169818A8177
:104D30000E941B253CC0823019F4F090950337C0C7
:104D40008630A1F1893091F1893189F5E9518E2FB1
:104D50008170C82EE695F0E0E752F84F1491B12C1F
:104D600060914E01B616F8F4B19EC001112470E0B6
:104D70000E94C12C802FC11002C0860F01C0861B6B
:104D800090914C012B2D30E0290F311DA901440FCA
:104D9000551F240F351F2E5E3C4F4F2D6E2D0E9448
:104DA000BE25B394DDCF0E94CF2401C0022F009313
:104DB0009303E0929403F0929503DD2071F020912B
:104DC00092036091960370919703302FA701809111
:104DD0009803909199030E9449252396E9E00C9449
:104DE0008C2BE2E9F3E0438121E1421B08F440E02F
:104DF00021E0628181810E9462260895E2E9F3E068
:104E0000438121E1420F08F44FEF21E0628181816B
:104E10000E9462260895E2E9F3E0628121E1621BCB
:104E200008F460E021E0438181810E9462260895B8
:104E3000E2E9F3E0628121E1620F08F46FEF21E023
:104E4000438181810E9462260895E2E9F3E0818135
:104E500021E04381628188500E9462260895E2E940
:104E6000F3E0818121E043816281885F0E946226B4
:104E700008950E948C102091B003211104C020914C
:104E8000B103222321F09093AD038093AC032091D2
:104E9000B203211104C02091B303222321F0909387
:104EA000AB038093AA03E091A203F091A303309790
:104EB00049F082E08093AE030480F581E02D8EEA14
:104EC00093E0099508958091A90380FD16C081FDA6
:104ED00016C082FD18C08091A803882391F0883203
:104EE00090F428E0829FC001112468E270E00E94E3
:104EF000D52C862F672B29F007C082E0089584E027
:104F0000089581E0089588E008958091A90380FDC7
:104F100014C081FD14C082FD16C08091A7038823B0
:104F200081F08E3180F420E5829FC00111246EE172
:104F300070E00E94D52C862F089584E1089588E2C0
:104F4000089588E0089580E508959091920390FF78
:104F500043C09170811102C0926006C08B3210F084
:104F6000946502C0880F982B9093920380910E0352
:104F7000816080930E03662391F02091920330911B
:104F8000930340919403509195036091960370911F
:104F9000970380919803909199030E94492560910D
:104FA0009203669570E04BE050E08CE391E00E9444
:104FB000352D892B19F00E94AD2402C00E94B42423
:104FC00081E08093090320E0409195036091940370
:104FD000809193030E946226089561E00E94A527B4
:104FE0000895809192038695815009F48AE261E0E8
:104FF0000E94A52708958091920386958F5F8B323A
:1050000008F081E061E00E94A5270895A6E0B0E0E5
:10501000ECE0F8E20C94762BFC01878190850097F8
:1050200009F5CF0126E0DE01119601900D922A9537
:10503000E1F7FC01258189819A81222359F06623B9
:1050400049F00E94F21B182F682F89819A810E94D3
:105050001F1E03C00E94EC1D182F69817A81812FC9
:105060000E9496172696E3E00C94922BA1E2B0E002
:10507000ECE3F8E20C94762B4C8F5D8F6E8F7F8F74
:1050800088A399A3911110929A03CE01439629E027
:10509000DC011D922A95E9F726E0FE017C96DC01F1
:1050A00001900D922A95E1F72F89222319F061E0F2
:1050B0000E94062889E0FE017396DE011A9601908F
:1050C0000D928A95E1F7CE010A960E945D1C81112E
:1050D0002CC089E0FE013A96DE01119601900D92F6
:1050E0008A95E1F76E85662301F12091B30230E0E5
:1050F000C9010196877099274091FC0250E08417FE
:10510000950761F16D8399E0929FD001939FB00D57
:105110001124AC54BD4FFE01319601900D929A9529
:10512000E1F78093B3020E948F1B19E08091FC028B
:105130009091B3028917F9F0189FC00111248C5483
:105140009D4F0E945D1C8823B1F08091FC0290E08D
:105150000196877099278093FC02E8CF0E94AD1ECC
:105160001092B3021092FC02EAEAF2E089E0DF0159
:105170001D928A95E9F7A196E3E00C94922B0E9488
:10518000AD1E2FEF84E39CE0215080409040E1F77A
:1051900000C000009AE088E10FB6F894A8958093CB
:1051A00060000FBE90936000FFCF662309F45CC0DF
:1051B0008D3C21F40E948527819504C08E3C29F402
:1051C0000E9485278093B103C5C08F3C21F40E94C3
:1051D0008527819504C0803D29F40E94852780930E
:1051E000B003B8C0893D19F40E94632705C08A3D09
:1051F00031F40E94632781958093B203ABC08B3D4D
:1052000021F40E946327819504C08C3D29F40E94FB
:1052100063278093B3039EC09FE2980F983078F481
:1052200021E030E0A90102C0440F551F9A95E2F732
:10523000CA019091AF03892B8093AF038BC08D3D42
:1052400021F48091A90381600CC08E3D21F48091EE
:10525000A903826006C08F3D09F07CC08091A9033C
:1052600084608093A90376C08D3C39F49091B1039A
:1052700097FF35C01092B10359C08E3C29F490912C
:10528000B1031916BCF32BC09091B0038F3C29F4E5
:1052900097FF25C01092B00349C0803D19F419163C
:1052A000CCF31DC09091B203893D29F41916BCF4CA
:1052B0001092B2033BC08A3D19F497FF10C0F8CF9B
:1052C0008B3D39F49091B30397FF09C01092B3035B
:1052D0002DC08C3D21F49091B3031916BCF39FE2CD
:1052E000980F983080F421E030E0A90102C0440F0B
:1052F000551F9A95E2F7CA0180959091AF038923D3
:105300008093AF0313C08D3D21F48091A9038E7F5C
:105310000BC08E3D21F48091A9038D7F05C08F3D88
:1053200029F48091A9038B7F8093A9038091B00316
:10533000811106C08091B103811102C01092A703B0
:105340008091B203811106C08091B303811102C024
:105350001092A8030E94392708958EE1489B02C04D
:105360008150E1F7489BFECF0895589880E28A95D6
:10537000F1F7589A0895FC012AE02A95F1F728E000
:1053800090E080E031E040E14A95F1F7880F489BDA
:1053900002C08160932700C0000040E14A95F1F708
:1053A000215089F720E12A95F1F729B100C00000CA
:1053B00030E13A95F1F7217092272081920F908386
:1053C0000895A1E0B0E0E7EEF9E20C94732B1982A6
:1053D0008C017C01E60EF11C0E151F0551F00E9498
:1053E000AD29CE0101960E94BB29F80181938F015E
:1053F000F3CF81E09981911180E02196E6E00C9451
:105400008F2B509A589A08955098589AE89AE9E63E
:10541000F0E080818C7F80830895615091E001C02D
:10542000990F6A95EAF720E031E0992361F0492F5E
:10543000482319F0589A232701C0589840E24A950A
:10544000F1F79695F2CF222311F0589A01C058989F
:1054500080E28A95F1F758980895FF920F931F9371
:10546000CF93DF93EC018C01060F111DC017D107FC
:1054700041F0F9900E94B52968E08F2D0E940D2A15
:10548000F5CFCDB7DEB7E5E00C94902B1F920F92CD
:105490000FB60F9211240F931F932F933F934F93A7
:1054A0005F936F937F938F939F93AF93BF93EF938C
:1054B000FF93CF93DF931F92CDB7DEB719820E947F
:1054C000AD29CE0101960E94BB29082F06950695AD
:1054D0000695902F96959570202F2570920F292F65
:1054E000237096959695920F877089135FC0898176
:1054F00081115CC0053008F059C080E18A95F1F750
:10550000589A509A82E08A95F1F700C0589888E03E
:10551000089F80011124D801AB5FBE4F1696ED9114
:10552000FC9117973097A9F060915D0170915E0131
:1055300014962D913C911597260F371F11968D913A
:105540009C911297680F791F13964C9113978C9129
:105550000995F801EB5FFE4F6381662351F080915E
:105560005D0190915E0124813581820F931F0E941D
:105570002D2A0E94B52980E18A95F1F75898509814
:10558000589A80E18A95F1F7F801EB5FFE4F608150
:10559000662351F080915D0190915E0121813281FD
:1055A000820F931F0E94E1290E94AD290F90DF9185
:1055B000CF91FF91EF91BF91AF919F918F917F918B
:1055C0006F915F914F913F912F911F910F910F908C
:1055D0000FBE0F901F9018950F931F93CF93DF93DB
:1055E000853091050CF06DC0EC01F894509A5898F4
:1055F00085E08A95F1F700009C2F969595702C2FE9
:105600002570920F892F83709695969523E0CC0F85
:10561000DD1F2A95E1F7980F8E01092B0E94B5290D
:1056200084E08A95F1F700C068E0802F0E940D2A7F
:1056300080E18A95F1F75098589A489902C000C0C5
:10564000FCCF87E090E0489B08C0019721F4509A76
:10565000589A789436C000C0F6CFFE01EB5FFE4F3B
:105660006381662381F080915D0190915E012481C8
:105670003581820F931F0E94E129811104C0509A45
:10568000589A78941FC00E94AD2980E28A95F1F75C
:105690005898509A80E18A95F1F7CB5FDE4F688188
:1056A000662351F080915D0190915E0129813A81DC
:1056B000820F931F0E942D2A0E94B529789481E0C1
:1056C00001C080E0DF91CF911F910F9108952F923B
:1056D0003F924F925F926F927F928F929F92AF9282
:1056E000BF92CF92DF92EF92FF920F931F93CF93CF
:1056F000DF93CDB7DEB7CA1BDB0B0FB6F894DEBF66
:105700000FBECDBF09942A88398848885F846E848B
:105710007D848C849B84AA84B984C884DF80EE80D5
:10572000FD800C811B81AA81B981CE0FD11D0FB6DE
:10573000F894DEBF0FBECDBFED0108958F929F920A
:10574000AF92BF92CF92DF92EF92FF92CF93DF930F
:10575000EC01688179818A819B81611571058105E0
:10576000910521F464E279ED8BE597E02DE133EFCB
:1057700041E050E00E94522C49015A019B01AC01CA
:10578000A7EAB1E40E94712C6B017C01ACEEB4EF8E
:10579000A50194010E947F2CDC01CB018C0D9D1D85
:1057A000AE1DBF1DB7FF03C00197A109B048888394
:1057B0009983AA83BB839F77DF91CF91FF90EF906E
:1057C000DF90CF90BF90AF909F908F9008950E94F0
:1057D0009E2B089580E091E00E949E2B0895A0E00A
:1057E000B0E08093000190930101A0930201B09377
:1057F00003010895F999FECF92BD81BDF89A9927CA
:1058000080B50895A6E1B0E044E050E00C94442C4B
:10581000A8E1B0E042E050E00C94442CDC01A40F7D
:10582000B51F4150504048F0CB01840F951F2E9179
:105830000E941F2C41505040D0F70895262FF9990F
:10584000FECF92BD81BDF89A019700B4021639F0DF
:105850001FBA20BD0FB6F894FA9AF99A0FBE0895B0
:105860000396272F0E941F2C0E941E2C252F0E947A
:105870001F2C242F0C941F2C0196272F0E941F2CC5
:105880000C941E2CDC01CB01FC01F999FECF06C063
:10589000F2BDE1BDF89A319600B40D9241505040EE
:1058A000B8F70895052E97FB1EF400940E94692C0A
:1058B00057FD07D00E94842C07FC03D04EF40C94B3
:1058C000692C50954095309521953F4F4F4F5F4F34
:1058D000089590958095709561957F4F8F4F9F4F5C
:1058E00008950E94A62CA59F900DB49F900DA49F93
:1058F000800D911D11240895B7FF0C94712C0E9406
:10590000712C821B930B0895A1E21A2EAA1BBB1BBC
:10591000FD010DC0AA1FBB1FEE1FFF1FA217B3077B
:10592000E407F50720F0A21BB30BE40BF50B661F91
:10593000771F881F991F1A9469F760957095809555
:1059400090959B01AC01BD01CF010895A29FB001CC
:10595000B39FC001A39F700D811D1124911DB29FA3
:10596000700D811D1124911D0895991B79E004C0CB
:10597000991F961708F0961B881F7A95C9F780958E
:105980000895AA1BBB1B51E107C0AA1FBB1FA61786
:10599000B70710F0A61BB70B881F991F5A95A9F7D8
:1059A00080959095BC01CD01089597FB072E16F4C4
:1059B000009407D077FD09D00E94C12C07FC05D0C8
:1059C0003EF4909581959F4F0895709561957F4F16
:1059D0000895EE0FFF1F0590F491E02D09940E94A9
:1059E000A62C332312F48A1B9B0B0C94F92C0E94D7
:1059F000A62CB7FF0895821B930B08950F930830D0
:105A000090F0982F872F762F652F542F432F322F0A
:105A100022270850F4CF220F331F441F551F661F43
:105A2000771F881F991F0A95B2F70F91089597FB6A
:105A300010F8169400080F93083098F00850232FA0
:105A4000342F452F562F672F782F892F902DF4CF85
:105A500005949795879577956795579547953795C9
:105A600027950A95AAF70F910895FC0141505040DF
:105A700030F001900616D1F73197CF0108958827AD
:105A800099270895FB01DC0104C08D9101908019D4
:105A900021F441505040C8F7881B990B0895FB0131
:105AA000DC0102C001900D9241505040D8F708959A
:045AB000F894FFCF98
:105AB40001000000010000000100000000000000DF
:105AC400060100000004070000000000000B0B00AA
:105AD4000000000000F5F6F73133323635F49497C0
