:100000000C947B040C94B3040C94B3040C94B304CC
:100010000C94B3040C94B3040C94B3040C94B30484
:100020000C94B3040C94B3040C9400180C94BB16F9
:100030000C940F1A0C94B3040C94B3040C94B304F2
:100040000C94B3040C94B3040C94B3040C94B30454
:100050000C94B3040C94C2190C94B3040C94B30420
:100060000C94B3040C94B3040C94B3040C94B30434
:100070000C94B3040C94B3040C94B3040C94B30424
:100080000C94B3040C94B3040C94B3040C94B30414
:100090000C94B3040C94B3040C94B3040C94B30404
:1000A0000C94B3040C94B3040C94B3040E078207AD
:1000B0001607E006E4061A07E7061D072807F206FA
:1000C0007807F6062C07FA0630075A07FE063407AB
:1000D000640704073A074407EB062107EE062407E6
:1000E00009073F07500770077207DC0612078B07E6
:1000F000B407BA07A507AB07C007C607CC07A70810
:10010000A708DA08DA0859097A0A7A0A7A0A77090E
:10011000EB09FC09FC09B00ABE0AC30AC80ACD0AE9
:10012000D20AD70ADC0AE10AE60AEB0AF20AF50A61
:10013000F80AFB0A0706070607060706070607066A
:10014000A30EA60EE20EF20EF80E030F060F060F18
:10015000060F33103310880F8A0F8E0FB10FD10F97
:10016000D40FD70FFA0F1910241030275727002962
:1001700057270029A327C6270029BB28CB28000022
:10018000000000000000000000000000000000006F
:10019000000000000000000000000000000000005F
:1001A00000007E0F00D4FFFFFFC7000000780000B2
:1001B0000000000000002A2B2800000000000000C2
:1001C00000000000000000000029000000002C1EBC
:1001D0003420212224342627252E362D3738271E79
:1001E0001F202122232425263333362E37381F049F
:1001F00005060708090A0B0C0D0E0F101112131437
:1002000015161718191A1B1C1D2F3130232D3504F4
:1002100005060708090A0B0C0D0E0F101112131416
:1002200015161718191A1B1C1D2F3130354C2900B3
:10023000010402040304040405040604070408047A
:1002400009040004010001006800A80035001E0038
:100250001F0020002100220023002400250026008A
:1002600027002D002E002A00000F2B0014001A007A
:100270000800150017001C0018000C0012001300E5
:100280002F0030003100000729210400160007006C
:1002900009000A000B000D000E000F0033003400AF
:1002A00028000000AA00E1001D001B000600190044
:1002B000050011001000360037003800E50052003C
:1002C0000000A900737CE300E200000000002C00A5
:1002D00000000000000022522152500051004F0047
:1002E0000000010001000100010001000100010007
:1002F0000100010001000100010001000100635242
:1003000001000100010001000100010001000100E5
:1003100001000100010001000100010001000100D5
:1003200001000100010001000100010001000100C5
:1003300001000100010001000100010001000100B5
:1003400001000100010001000100010001000100A5
:100350000100010001000000010001000100010096
:100360000100010001000100010001000100010085
:100370000100010000000100010001000100000077
:100380000000010000000000000001000100010069
:100390000100010000000100010001000100010056
:1003A0000100010001000100010001000100010045
:1003B0000100635201000100010001000100010081
:1003C0000100010001000100010001000100010025
:1003D0000100010001000100010001000100010015
:1003E0000100010001000100010001000100010005
:1003F00001000100010001000100010001000100F5
:1004000001000100010001000100000001000100E5
:1004100001000100010001000100010001000100D4
:1004200001000100010001000000010001000100C5
:1004300001000000000001000000000000000100B9
:1004400001000100010001000000010000000100A6
:100450000200030004000500060007000800090070
:1004600001000100010001000100217823782478B7
:1004700025782678277828780100010001000100FE
:100480000100010001000100010001000100010064
:100490000100010001000100010001000100010054
:1004A0000100010001000100010001000100010044
:1004B0000100010001000100010001000100000035
:1004C0000100010001000100010001000100010024
:1004D0000100010001000100010001000000010015
:1004E0000100010001000000000001000000000008
:1004F0000000010001000100010001000000A9004E
:10050000AA004E004B00010001000A000B0044004D
:10051000C103BCE0420B34C1C412ACA1461A248210
:10052000C8219C624A291443CC308C234E380404E1
:10053000D03F50308104C810030C40F18413B8D16F
:10054000061B30B28822A8920A2A38D00003B0B025
:10055000820A28910412A07186191852082190323B
:100560008A2808130C3080F38D37F8D30F3F5C6076
:100570004105D440C30C4C214514C401C71B3CE2C7
:100580004823B4C2CA2A2CA04002A480C2091C611C
:1005900044119441C6180C2248208402CA27FCE268
:1005A0004B2F74C3CD36ECA34F3E68900106E0702C
:1005B000830D58510515D031871C48120924C0F20B
:1005C0008A2B207080019850020910318410881104
:1005D000061800F2871F78D20927F0B28B2E689395
:1005E0000D36E0738F3D74C0C106ECA0430E6481EC
:1005F000C515DC61471D1440C0008C204208040171
:10060000C40F7CE14517F4C1C71E6CA24926E482E1
:10061000CB2D5C634D35D443CF3C40F49043648490
:10062000D14588141248ACA4524A0810000080F04A
:100630008107F8D0030F6072892550338D34C813B9
:100640000F3C4C24514470B491469444D2485854C1
:1006500011457CE45147A0749249C404D34BE894FB
:10066000134E0C25545030B594525445D55478D57A
:100670001557B8D4124BDC64534D00F5934F2485C5
:10068000D451481515546CA55556D034934CF4C428
:10069000D34E1855145105010980A1018503190194
:1006A0002AB700150126B700950175108100C00515
:1006B0000C0901A101850419012AA002150126A037
:1006C00002950175108100C005010906A10185068A
:1006D000050719E029E71500250195087501810234
:1006E0000507190029EF1500250195F07501810214
:1006F00005081901290595057501910295017503F4
:100700009101C00660FF0961A1010962150026FF81
:10071000009520750881020963150026FF009520C9
:1007200075089102C005010906A101050719E02914
:10073000E71500250195087501810295017508816D
:10074000010507190029FF150026FF009506750809
:10075000810005081901290595057501910295018A
:1007600075039101C009025B00030100A0FA0904AE
:1007700000000103010100092111010001224000D4
:1007800007058103080001090401000203000000BD
:100790000921110100012222000705820320000126
:1007A0000705030320000109040200010300000003
:1007B000092111010001226D0007058403200001B9
:1007C00012010002000000084B5411000100010258
:1007D0000001140350006F00720074006900630090
:1007E0006F00370035000000080354004B00430041
:1007F00000000403090400010101010101010101DC
:1008000002020202020202020203030303030303C1
:10081000030404040404040405050505050606068E
:100820000606070707070708080808090909090A4B
:100830000A0A0B0B0B0C0C0C0D0D0D0E0E0E0F0FF0
:100840000F1010111111121213131414151516167E
:100850001717181819191A1A1B1B1C1D1D1E1E1FED
:100860002020212222232424252626272829292A3C
:100870002B2C2D2D2E2F3031323233343536373864
:10088000393A3B3C3D3E3F40414243444546474860
:10089000494A4C4D4E4F50515354555658595A5B36
:1008A0005D5E5F616264656668696B6C6D6F7072D6
:1008B000737577787A7B7D7E8082838587888A8C42
:1008C0008E8F91939596989A9C9EA0A2A3A5A7A976
:1008D000ABADAFB1B3B5B7BABCBEC0C2C4C6C9CB6D
:1008E000CDCFD1D4D6D8DBDDDFE2E4E7E9EBEEF023
:1008F000F3F5F8FAFDFF11241FBECFEFDAE0DEBFFB
:10090000CDBF04B603FE18C0809198089091990855
:10091000A0919A08B0919B088730904BA740B04BAC
:1009200059F4109298081092990810929A0810920F
:100930009B08E0E0F8E3099513E0A0E0B1E0E0E413
:10094000F2E602C005900D92AE31B107D9F728E06A
:10095000AEE1B3E001C01D92A839B207E1F70E94F1
:10096000200B0C941E310C940000A8E0B0E0EBEBDF
:10097000F4E00C945530FC018481882309F45CC6B2
:100980007F0121E0408151816281738195810E94C4
:10099000B22C8C01F7018581882309F44AC1C80172
:1009A00097578038910508F027C1003108F02FC112
:1009B0008FEF93E00E94A530811129C139E0A32E69
:1009C00033E0B32E002379F0A114F4E0BF0609F45C
:1009D0001EC1C5010E94A530811101C001502FEF39
:1009E000A21AB20AEFCFCE0101962C0188E0F201E3
:1009F00011928A95E9F72AE0322E85010F5F1F4F89
:100A0000C5010E94A53089831A82882309F4FFC09A
:100A1000813009F041C06501F2E0CF0ED11CC80160
:100A20000E94A5308A83882309F4F1C09FEF980FB4
:100A3000933060F423E0A20EB11CC6010E94A530E1
:100A40008B83882309F4E3C01C8229C0843031F5EC
:100A50004E0133E0830E911C02E010E056018FEF4F
:100A6000A81AB80AC6010E94A530F40181934F016B
:100A7000882309F4CCC08C3741F4E2E0F0E0EC0FBD
:100A8000FD1FE00FF11F10820AC00F5F1F4F6501AD
:100A90000730110519F7BBC0580101C0560182018A
:100AA000F8012081222309F4A8CF213009F04CC09D
:100AB0008181813049F46801F2E0CF0ED11CF80148
:100AC00082810E94932C0AC0823051F46801F2E0C6
:100AD000CF0ED11CF80182810E94242C860189C08E
:100AE000833049F46801F2E0CF0ED11CF801828115
:100AF0000E94F82BF3CF843019F00F5F1F4F79C09D
:100B0000F80122810E5F1F4F80E090E030E020531B
:100B100031092A30310568F4389EA001399E500D04
:100B20001124C901840F951F0F5F1F4FF801208109
:100B3000EDCF009709F45DC0EFE9FFE03197F1F7E1
:100B400000C000000197F5CFE22FF0E0E255FE4F24
:100B50002490822F86958695869590E0FC01E2563A
:100B6000FE4F64902770712C022E02C0759467941A
:100B70000A94E2F7F1E06F227724FC01E257FE4F7E
:100B80008490912C022E02C0959487940A94E2F7E7
:100B900031E083229924FC01E258FE4FC490D12C0D
:100BA00002C0D594C7942A95E2F781E0C822DD24DB
:100BB0006114710419F081EE0E94242C81149104B7
:100BC00019F086EE0E94242C822D0E94932C811411
:100BD000910419F086EE0E94F82B6114710419F04B
:100BE00081EE0E94F82BC114D10419F08CE20E940E
:100BF000932C0F5F1F4F54CF03372CE71207E9F4F4
:100C00008091AC07882309F4CDC10E941A1E8091FF
:100C10000E08877009F410C5F7018581882309F44F
:100C20000BC58091BA0482FF07C582E00E94502361
:100C300003C50337FCE71F0751F38091AC078823F6
:100C400009F491C0D0902F08C09030080E94031A78
:100C500088579C4E90933D0380933C03F701858118
:100C6000882309F480C08C2D8D298D7909F076C0F8
:100C70000034F2E51F07B8F4011522E5120708F069
:100C800072C0011530E4130748F4011580E218071B
:100C900040F5063E110509F040C065C0011590E51C
:100CA0001907A0F13AC0003EE2E51E07A0F4003C9F
:100CB000F2E51F0708F057C0003622E5120768F179
:100CC000003A32E5130708F44EC0043B82E51807EA
:100CD00009F449C022C0C80187579C470297E8F42D
:100CE00042C0F7018681807FA9F4812F8F71823104
:100CF000B1F028F4823091F581EE90E012C0843199
:100D000091F1863159F586EE92E10BC0F7018681AB
:100D1000807FA9F1C801992704C0C80102C085EEEF
:100D200090E01092AB078832910530F48E31910536
:100D3000C0F4049798F00EC08D32910559F018F464
:100D40008A9779F00BC08C34910559F08D3292401E
:100D500041F004C082E08093AB0703C00E941A1EDA
:100D600002C00E94FB22F801E851FC47E730F10580
:100D700008F4E7C0F7018581882309F437C1109290
:100D8000AD04C8019057839708F01CC184E090E03F
:100D90000E94AD309093BA048093B904F801E150F9
:100DA000F047E232F10520F4EA5AFF4F0C94FB3091
:100DB0008091B9048160ACC08091BA048860B4C0ED
:100DC0008091B9048260A4C08091B90420C0809150
:100DD000B90488609DC08091BA041EC08091BA0495
:100DE0008260A2C08091B904806192C08091B904F0
:100DF00080628EC08091B90480648AC00E94C72B33
:100E00008091B904806884C08091B904886084604E
:100E10007FC08091BA048260816086C08091B904ED
:100E20008E7F76C08091BA04877F7EC08091B9049E
:100E30008D7F6EC08091B90420C08091B904877FF6
:100E400067C08091BA041EC08091BA048D7F6CC0C7
:100E50008091B9048F7E5CC08091B9048F7D58C0A9
:100E60008091B9048F7B54C00E94C72B8091B90434
:100E70008F774EC08091B904877F8B7F49C0809166
:100E8000BA048D7F8E7F50C08091B90482FB2227E7
:100E900020F991E0922790FB82F990FB83F938C00A
:100EA0008091BA04982F909591708E7F892B90FB3A
:100EB00081F93AC08091B90486FB222720F991E09C
:100EC000922790FB86F924C00E94C72B8091B90419
:100ED00087FB222720F991E0922790FB87F918C021
:100EE00061E001C060E08EE090E00E94C3301EC06F
:100EF0008091B90484FB222720F991E0922790FB8E
:100F000084F906C08091B904982F909590FB80F9E0
:100F10008093B9040BC08091BA0483FB222720F987
:100F200091E0922790FB83F98093BA046091B90411
:100F30007091BA0484E090E00E94E1300E94C72BD7
:100F400066CEE858FF4F0C94FB3006E221EE41EEEE
:100F50006AE17CE705C007E225EE45EE6BE17CE740
:100F6000C7010E94EC1A53CE06E221EE40EE68E182
:100F70007CE7F6CF07E225EE44EE69E17CE7F0CFAF
:100F800006E221EE42EE6CE17CE7EACF07E225EED5
:100F900046EE6DE17CE7E4CF08E221E045EE6EE14C
:100FA0007CE7DECF10922F080E94EE220E94031AE7
:100FB00088579C4E90933D0380933C0381E080933F
:100FC000AC0725CE06313CE7130719F580912F08B1
:100FD0008A7A91E009F490E090932003811117C080
:100FE00069E28DEA97E00E94601A0EC00631ECE7D4
:100FF0001E0709F0A7C28091200381110CC369E28A
:101000008DEA97E00E94381A0E94FB2200CE65E329
:10101000E8CF07378CE7180709F4FFC208379CE7C9
:10102000190709F400C3F70185818823E9F103302A
:10103000FCE71F0729F148F401153CE7130791F07D
:1010400001308CE7180711F12FC00B359CE7190709
:1010500041F10C35ECE71E07E1F00A351C4721F59C
:1010600081E020C00E94C72B2FEF34E38CE0215099
:1010700030408040E1F700C000000E949E19C7CDBB
:101080006FEF7FEF80E090E00E94E1300E94672DDB
:10109000BECD8091BA0482FB882780F991E0892730
:1010A00001C080E00E946723F701858100811181E2
:1010B000882349F0C8010E946D29D82E682FC801E5
:1010C0000E946C2B04C0C8010E94532BD82EB8017B
:1010D0008D2D0E9434210E945421D82E192FA82E24
:1010E000F7010581C680C2949FE0C92280910E0855
:1010F0008770E9F00023D9F0812F807F803451F090
:1011000080E28D0D883098F0C11004C0812F807E60
:10111000803269F08091BA0482FF09C082E00E94A7
:10112000502380910E088770BB24B3948111B12C99
:10113000912E92948FE09822892D90E08C30910529
:1011400008F0D8C1FC01E158FF4F0C94FB30812F0F
:10115000807F1F70882311F01295107F0023B9F053
:10116000112309F4B5C180E28D0D883010F0A11073
:1011700006C090912F08192B10932F0805C090914D
:10118000AB07192B1093AB070E94FB22A1C18D2D39
:101190000E94F82B112309F4ADC180E28D0D883037
:1011A00088F1AA2079F110959091AB07192310933B
:1011B000AB072BC0812F807F1F70803211F01295FA
:1011C000107F8D2DAA2029F0F1E0AF1609F44CC054
:1011D00057C08091BA0482FD1BC0002369F011231F
:1011E00039F090912F08192B10932F080E94FB22A1
:1011F00080E00E94242C7EC180E00E94F82B112305
:1012000009F478C1812F0E94F4220E94FB2272C14E
:10121000002381F0CC20C1F121E0C2126BC190917A
:101220003008812F8923181709F464C1192B1093F2
:10123000300860C1C1105EC1812F0E94E72B8091F0
:101240003008912F982329F0912F9095892380932E
:10125000300880912103912F982309F44BC11095F8
:1012600081238093210346C1002329F035E03C15FA
:1012700008F440C109C084E08C1508F43BC115C0D6
:10128000002331F0C11024C1812F0E94EE2B32C106
:10129000CC2059F0893309F02AC19FEFE7EEF3E043
:1012A0009150E040F040E1F720C1812F0E94E72BF0
:1012B00021C1812F86958695837019F0813061F068
:1012C00019C1002321F08D2D912F937002C080E071
:1012D00090E00E94BA1A14C1002321F08D2D912FA5
:1012E000937002C080E090E00E94951A09C1812F9E
:1012F0008370A9F5011102C14D2D429546954770A5
:10130000440F440F8D2D8F7090E09C01042E01C07E
:10131000220F0A94EAF7D4FE08C08FE090E001C0E3
:10132000880F4A95EAF7809501C080E016951695DA
:101330001370123069F088F490913108113019F06F
:10134000822B892302C0922B892B0E94C42BD6C0EA
:10135000822B909131088927F8CF822BF6CF00237A
:1013600019F0812F817001C08695882309F4C6C0C9
:101370004D2D429546954770440F440F8D2D8F702B
:1013800090E09C01042E01C0220F0A94EAF7D4FEDB
:1013900008C08FE090E001C0880F4A95EAF7809579
:1013A00001C080E0169516951370123059F078F44C
:1013B00090912E03113019F0822B892309C0922BB2
:1013C000892B06C0822B90912E03892701C0822B86
:1013D0000E94862B93C01F70002339F0812F0E943A
:1013E000B82B8D2D0E94EE2B89C08D2D0E94E72BEE
:1013F000812F0E94AB2B82C08D2D22EFA21681F18E
:101400002A1538F030EFA31659F091EFA91619F10B
:101410005BC0E3EFAE1659F1F4EFAF16C1F054C064
:10142000002381F024E02C1508F464C01F7181E0D2
:1014300090E0012E01C0880F0A94EAF790912E03E4
:10144000892720C035E03C1508F454C0EFCF8091C7
:10145000BA0482FD1AC0002329F0812F8F7127C0A2
:101460000023D9F3812F8F710E94AB2B43C000233F
:1014700041F01F7181E0012E01C0880F0A94EAF744
:1014800001C080E00E94862B35C0002399F01F71B7
:10149000812F0E94B82B8091BA0482FF07C0E8E038
:1014A0001E9FC0011124836080930E08812F0E942B
:1014B000B82B20C081E00E945023F1E0FC15D0F44D
:1014C00082E00E94502316C0002321F0CC2029F294
:1014D0008D2D8FCECC2031F2893349F42FEF37EEAA
:1014E00083E0215030408040E1F700C000008D2DA6
:1014F0000E94F82B88EF890D843010F40E94DF1AC7
:10150000BB20A9F080910E0880FD11C0F701158263
:101510008695869586950E94B82BC7010E94B504D2
:1015200080910E088695869586950E94AB2B20E0CB
:10153000F7014081518162817381848195810E948C
:10154000B22C7AC080912F088272F801E052F847DD
:10155000E531F10508F054C0E557FF4F0C94FB301E
:101560009091690881E089278093690810920A01A7
:101570008091EA0481608093EA0449CB45E55FE10C
:1015800060E67FE12CC040E65FE165E57FE127C0D2
:1015900046E25FE161E37FE122C041E35FE166E2B1
:1015A0007FE11DC04AE05FE168E17FE118C048E1EA
:1015B0005FE16AE07FE113C04EEE5EE16CEF7EE139
:1015C0000EC04CEF5EE16EEE7EE109C040EB5BE1E8
:1015D0006EEB7BE104C04EEB5BE160EB7BE10E94D4
:1015E000751E15CB61E081E008C061E084E005C0B4
:1015F00061E089E002C061E08EE00E943C1F07CB01
:101600000737FCE71F0759F008372CE7120709F0E6
:101610000ACD82E005C065E3F3CC81E005C081E03E
:101620000E94AB2B03C082E00E94B82B43E062E033
:1016300081E00E94892BEBCA2896E2E10C9471307C
:10164000A5E4B0E0E6E2FBE00C94553085B7806895
:1016500085BF85B7806885BF84B7877F84BF0FB695
:10166000F894A89580916000886180936000109242
:1016700060000FBE90E080E80FB6F89480936100A0
:10168000909361000FBE8CE390E290931F038093D0
:101690001E030E94FF160E94A5178091E20084603D
:1016A0008093E200789480915B088823A1F01091E8
:1016B000E9001F709091EC00892F817090FD80E807
:1016C000182B1092E9008091E80083FD0E944D26BE
:1016D0001F701093E90082E084BD93E095BD9AEFFE
:1016E00097BD80936E000E945C1E811102C00E9413
:1016F0004C1E81E0809340032198299A22982A9ACF
:101700008FE891E00197F1F700C0000030914003AD
:10171000E1E4F3E020E0231761F083B18695817066
:101720001A9B02C092E001C090E0892B81932F5F49
:10173000F2CF08E211E07EE2E72E71E0F72ED80149
:101740008D918D018F3F11F00E941D21E016F10651
:10175000B1F70EE211E06DE3E62E61E0F62EF8013E
:1017600081918F018F3F11F00E941D21E016F1063B
:10177000B1F78CE0E3E4F3E0DF01282F1D922A9516
:10178000E9F7E2E2F3E0DF011D928A95E9F70E94B2
:101790007122811102C00E947D2282E090E00E94AD
:1017A000A53080932F0384E090E00E94AD309093A9
:1017B000BA048093B9040E942524EFEBFDE531972C
:1017C000F1F700C000000E9425248091430380FFB0
:1017D00008C06FEF7FEF80E090E00E94E1300E9450
:1017E0009E1983E090E00E94A5300E94C42B0E94C5
:1017F000AB1C1092BC04E5EDF4E085EE94E02FEF15
:101800003FEF219331938E179F07D9F70E947122E2
:10181000811104C00E947D220E949C1681E0809369
:10182000EA0448E050E068E170E089E698E00E9450
:1018300095301092EA04809169088C7F11F40E941F
:101840009C1680E091E09093B1048093B0049E01D7
:101850002F5F3F4F790180915B08853009F062C0AE
:1018600000E4DD24D39453E0C52E10E180915B08A1
:10187000853009F051C080915B08843009F438C08C
:101880000E946C1F8091E90481110DC00E946D11AE
:1018900010920901809169088370809308010E9469
:1018A0004E1CC0920A01D092E9041092B40488E15F
:1018B00090E00FB6F894A895809360000FBE009357
:1018C000600083B7817F846083BF83B7816083BFFB
:1018D0007894889583B78E7F83BF0FB6F894A895C8
:1018E00080916000886180936000109260000FBE5C
:1018F00080915A08882309F4B9CF0E942524E3E493
:10190000F3E081919191892B09F0B6C3AFE4B3E084
:10191000AE17BF07B1F7AACF0E94C72B0E94DF1AEC
:101920001092E9040E942524E0E3F3E02196FFAF42
:10193000EEAF219723E433E024963FAF2EAF2497F8
:101940002CE333E0A3E4B3E0419151918D919D915B
:10195000842795272E173F0719F0892BA9F305C077
:10196000892B19F40E940124E4C045E9242E41E0AA
:10197000342E512C2496AEADBFAD24976D907D9042
:101980002496BFAFAEAF24972196EEADFFAD219761
:101990008081918193012827392726963FAF2EAF6A
:1019A0002697232B09F4B3C0C12CD12CAA24A394CD
:1019B000B12C26968EAD9FAD26978A219B21892B2F
:1019C00009F495C0850106211721C9AE5AAE0E94BF
:1019D000031A9CAF8BAF31E03DAF91E001151105CB
:1019E00009F490E09EAF49AD5AAD6BAD7CAD8DADC5
:1019F0000E94D72C012B61F0F101EC0DFD1D8081BF
:101A00008F3F31F022968FAF22974424439401C038
:101A1000412C042D10E08091BC04D801A80FB11D09
:101A20001997ACF188E0882E912C801A910AB801A0
:101A30006F5F7F4F64547B4FA4018DEB94E00E9455
:101A40001531B801675F7F4F64547B4FA40185EC6B
:101A500094E00E941531A401440F551FB801660F90
:101A6000771F675E7F4F64547B4F85ED94E00E9443
:101A70001531B8016F5E7F4F64547B4FA4018DEC2C
:101A800094E00E94153188E084198093BC04809111
:101A9000BC0490E02296EFAD2297AE2FB0E09D01FE
:101AA000220F331F21513E4FAA0FBB1FBD016051B2
:101AB0007E4F41E0480F9415C0F490E0FC01E454DF
:101AC000FB4FD9015C915183DB015C9151872296D8
:101AD000BFAD2297B18B880F991FFC01E454FB4FD7
:101AE000128E118E91E0842FE4CF8093BC04AA0C57
:101AF000BB1CEFEFCE1ADE0AFFE0CF16D10409F0CF
:101B000058CF2196AEADBFAD21976D927C92539484
:101B10002196EEADFFAD219732962196FFAFEEAF45
:101B20002197FFE02F0E311C26E0521223CF0E9496
:101B3000F7198091AC07882369F00E94031A20915D
:101B40003C0330913D03821B930B8F3F9F4710F462
:101B50000E941A1E0E946C1F10E000E062E0962EA8
:101B60007DEF872E77247394ECEF6E2EF3E05F2EDB
:101B700080914003181708F090C0C12ED12CE3B11A
:101B8000E695E1701A9B02C092E001C090E08E2FB2
:101B9000892BD601AF5BBC4FEC912E2F237030E028
:101BA000482F082E000C550B2417350709F473C075
:101BB000EE0FEE0FE82BEC93EF70F0E0E35CFE4FDE
:101BC000C601815C9C4F5C019081D5018C91890F8D
:101BD0008C93823044F1F601E25CFC4F80818F5F90
:101BE00080830E94031A1DA76EA6682F8FA798AB4B
:101BF00059AA7AAA412F5CEF792F83E091E00E94E5
:101C0000D72C0E94031A1BAB6CAA682F8DAB9EAB1E
:101C10005FAA18AE412F5CEF792F83E090E00E941D
:101C2000D72C21E001C020E0F50180818F3F3CF5F9
:101C3000F601E25CFC4F8081815080830E94031A90
:101C400019A38AA2682F8BA39CA39DA27EA2412FD9
:101C50005DEF792F82E091E00E94D72C0E94031A59
:101C60001FA388A6682F89A79AA79BA61CA6412F09
:101C70005DEF792F82E090E00E94D72C21E0D50122
:101C80008C91082E000C990B62E070E00E94E73006
:101C9000F5018083022B1F5F6BCF01110E94F719A2
:101CA0000E94DF1A90914203891721F0809342032A
:101CB0000E94F71980915B08843009F0CCCD83E055
:101CC0008093E9008091E80082FFC5CD8091E80013
:101CD00085FF23C00E941E1781111DC050E2C52E32
:101CE000D12C8E010F5F1F4F09C08091F100D801E8
:101CF0008D938D01B1E0CB1AD10869F08091E80095
:101D000085FDF3CF8091E8008B778093E8000E94F7
:101D10001E17882399F391E001C090E08091E800BC
:101D20008B778093E800992309F495CD2981822F40
:101D300090E0FC013197E531F10508F094C1E056DF
:101D4000FF4F0C94FB301A828CE0E6C08A8182300F
:101D500009F4A9C150F4813009F085C10E94F71936
:101D60009B838C837D836E8380C1833041F084307C
:101D700009F079C11B821C821D821E8276C16B8193
:101D8000DE01119680E090E0262F30E0A901480F97
:101D9000591F4630510508F068C1E62FE80FF0E002
:101DA000EE0FFF1FED5BFC4F4081518113965C935A
:101DB000139714964C931497019612968E309105B2
:101DC00029F753C18A81823021F0853009F44DC151
:101DD0004AC16B817C818D819E810E9401310E946C
:101DE000281E43C14C816B818A810E94EC1D2AC14F
:101DF0002D813E813227232732274C816B818A81B6
:101E00000E94C51D32C10E94651B2FC18A8183308B
:101E100009F029C1283009F443C0293009F46DC004
:101E20008B818230D1F070F4813009F01EC14C8179
:101E300028EC429F412D112480916A0820E0609196
:101E40006B082AC0833021F1843009F00EC18C81E7
:101E500020E040916C086D811FC08C8190916908D1
:101E6000811109C0892F837011F010920A019C7FA3
:101E700090936908FAC0292F237011F410920A0177
:101E80009C7F91609093690860E00E943C1FEDC0C8
:101E90008C8180936D08E9C090E00E94DB1EE5C054
:101EA0008B818230E1F078F4813009F0DEC08091DE
:101EB0006C08EFEF8E9FC001112468EC70E00E9467
:101EC00041306C83D2C08330A1F0843009F0CDC0A2
:101ED00080916A088C8380916B088D83C6C0809145
:101EE0006908982F937019F08695869504C080E054
:101EF00002C080916D088C83B8C048E050E068E172
:101F000070E089E698E00E94B3301092EA04ADC018
:101F100080E14BC01A8287EF8B83A7C00A811B81A7
:101F2000102701271027CC80D12C5701C801875FCB
:101F30009C4F95012E193F092C153D0508F095C0C1
:101F4000073F110530F40E94A530D50114968C93FB
:101F500002C0F50114820F5F1F4FFFEFAF1ABF0AD7
:101F6000E5CF0A811B81102701271027CC80D12CB7
:101F70005701C801875F9C4F95012E193F092C1509
:101F80003D0508F072C0073F110528F4D5011496ED
:101F90006C910E94C3300F5F1F4FBFEFAB1ABB0A9B
:101FA000E8CF0E94551B61C084E08A835EC00A812D
:101FB0001B81102701271027CC80D12C5701C80185
:101FC000899695012E193F092C153D0508F04DC045
:101FD000003DE2E01E0730F40E94A530D5011496C2
:101FE0008C9302C0F50114820F5F1F4FFFEFAF1AF1
:101FF000BF0AE5CF0A811B81102701271027CC805B
:10200000D12C5701C801899695012E193F092C152D
:102010003D0558F5003D22E0120728F4D50114963D
:102020006C910E94C3300F5F1F4FBFEFAB1ABB0A0A
:10203000E9CF41E08C81811101C040E06B818A8150
:102040000E94911D9D8336C02D813E81322723271A
:10205000322741E08C81811101C040E06B818A818F
:102060000E94641D02C08FEF898340E250E0B701F7
:1020700082E00E943519EFCB19BD82E189BD09B418
:1020800000FEFDCF8091D8008F7D8093D800809195
:10209000E00082608093E0008091E00081FDFCCF51
:1020A0000E94C72BE3CB88E290E00E94A5301B8200
:1020B0001C821D828E83D9CFE42FF0E0EE0FFF1F2C
:1020C000E151FE4F9081921B97FD9195292F38E1A8
:1020D000239F212D1124620F08950F931F9310E069
:1020E000F801EE0FFF1FE151FE4F9081905797FDD1
:1020F0009195000F111FF801E051FE4FE081F0E0D3
:10210000B097DF01AA0FBB1F8D010E0F1F1F200309
:10211000D001219FB00D1124E8E3F0E0E91BF109A3
:1021200097FDF3959F01220F331F89010E0F1F1F8B
:1021300040039001419F300D11242A0F3B1F37FFB0
:1021400002C021583F4F220F232F221F330B620F53
:102150001F910F9108950F931F93522F10E0F801D4
:10216000EE0FFF1FE051FE4FE081F0E0B097EE0F61
:10217000FF1F9F015203D001539FB00D1124000F88
:10218000111FF801E151FE4F008110E000571109C5
:10219000000F111F40039001419F300D11242A0FA1
:1021A0003B1F37FF02C021583F4F220F232F221F12
:1021B000330B620F1F910F9108950F931F93522FAE
:1021C00010E0F801EE0FFF1FE051FE4FE081F0E05C
:1021D000B0979F015203D001539FB00D1124000FFF
:1021E000111FF801E151FE4F008110E00057110965
:1021F00040039001419F300D11242A0F3B1F37FFF0
:1022000002C021583F4F220F232F221F330B620F92
:102210001F910F9108950E94351C089520916D081B
:1022200030E1230F08F42FEF60E1822F90E00E944D
:102230006E2FBC0188EB9BE00E94413080E090E073
:1022400008950F931F93CF93DF93D62F072F182F47
:10225000C42F822F0E94DE2EEC2FF0E0EE0FFF1F26
:10226000E151FE4F90819058890F87FD8195880F2D
:10227000682F2CE0629F612D11246D0F702F812F2C
:10228000DF91CF911F910F910895EF920F93CF930C
:10229000DF93D72FC82FC9010E19BA010E94712EE2
:1022A000602F681B7D2F8C2FDF91CF910F91EF90C6
:1022B00008950F93CF93DF93D72FC82FC901BA0189
:1022C0000E94712E682F600F7D2F8C2FDF91CF9190
:1022D0000F9108950E94CC1B0895A4E0B0E0E3E7BD
:1022E000F1E10C945730782E8091090187110DC0CF
:1022F00020916908237030E04091080150E081E0AE
:102300002417350719F480E001C081E081708093C3
:10231000220180916E0890912101981739F08093E5
:10232000210140E060E080E00E940B11EDE07E12B0
:102330004EC085E49FE20E94EC258A8333C0309131
:102340002001330F330F3983132F1C5F133608F02E
:1023500012E680912201811142C260916D0820E154
:10236000620F08F46FEF80916508909166080E94F3
:102370006E2F6AE070E00E944130892B71F40E9458
:10238000FF2E92E6899F9001112460912101832FF5
:10239000932F990F990B0E94A01E91E09A831236F9
:1023A00008F0A3C0809120018F5F809320019A8163
:1023B0009111BEC482E080930A01809122018111B3
:1023C000B7C47110B5C483E080930A01B1C4E715A6
:1023D00008F450C0F6E07F1203C080EC9EE2ABCF61
:1023E000F71508F471C122E0721271C0309120011A
:1023F000330F330F39833C5F3B83333610F082E673
:102400008B8300916B0810916C08F0906A086F2D17
:10241000702F812F0E947D2DE62ED72EC82E609121
:102420006D086F0D702F812F0E947D2D162F072FA5
:10243000F82E29813B812317D0F4E9818E2F90E07B
:10244000FC01ED54FD4F308120912101232359F0EF
:1024500030FF04C02F2D412F602F03C02C2D4E2D97
:102460006D2D0E946A11F981FF5FF983E2CF81E04F
:102470008A8329C034E1731609F444C1371508F082
:102480008CC128E172128FC030912001330F330FBD
:102490003C5F3B83409165085091660860916708F6
:1024A0007091680880914F0390915003A09151035F
:1024B000B091520384179507A607B70708F4A9C17E
:1024C00021E02A833B81323608F46CCF0EC02715F9
:1024D00008F43FC071100BC080912201882329F0BD
:1024E00040E060E080E00E940B111A825BCF31E097
:1024F000731267C020912001220F220F29832C5FC5
:102500002B83233610F032E63B8360916A0870918A
:102510006B0880916C080E947D2D162F072FF82ED6
:10252000E981FB81EF17C8F58981E82FF0E0DF0131
:10253000AD54BD4F8C9190912101982331F02F2DF6
:10254000412F602FCF010E946A1199819F5F99836B
:10255000E7CF84E0781609F43AC0871508F4A9C0DB
:1025600090912001990F990F99839C5F9B839336DB
:1025700010F0E2E6EB83E0906B08D0906C082091BD
:102580006D0880E4F82E3F2D329F312D1124F32E5B
:10259000E981FB81EF1708F462C021E02A83F2365B
:1025A00008F400CFA2CF271508F089C18AE1781678
:1025B00009F4DAC1781608F49FC29FEF791609F47E
:1025C00086C3809120018F5F80932001F3CE3091EC
:1025D0002001330F330F39833C5F3B83333610F0D8
:1025E00082E68B8300916A0810916B08F0906C086A
:1025F00060916D08669566956695809165089091E5
:1026000066080E946E2F0E94DE2E805887FD8195FD
:10261000880F282F3F2D239F212D1124822FB801B1
:102620000E947D2D162F072FF82EE981FB81EF17D1
:1026300008F0B3CF8981E82FF0E0DF01AD54BD4F42
:102640008C9190912101982331F02F2D412F602FF3
:10265000CF010E946A1199819F5F9983E6CF89819A
:10266000082F10E0F801ED54FD4F90818091210179
:102670008923D9F0F801EE0FFF1FE151FE4F608171
:10268000F69EB0011124B5E075956795BA95E1F70E
:1026900080916A08680F7E2D8D2D0E947D2D462F1A
:1026A000282F672FC8010E946A1199819F5F998323
:1026B0006FCF85E49EE205C0F8E07F1282CF83E40D
:1026C0009EE20E94D72439CE99E0791203C08AE3B2
:1026D0009EE2F7CF971558F0E7E07E12EDCF84EA3F
:1026E0009EE202C087E09EE20E94722526CE2BE089
:1026F000721203C086E19EE2E4CF271598F381E3CE
:102700009EE2DFCF80912201811122C060916D088D
:1027100020E1620F08F46FEF8091650890916608E0
:102720000E946E2F65E070E00E944130892B09F015
:10273000DCCE0E94FF2EE2E68E9F90011124609174
:102740002101832F932F990F990B0E947C1ECDCED0
:10275000F0912001FF0FFF0FF9831F2F1C5F13362D
:1027600008F012E63981232F30E03C832B83E12EE1
:10277000F12CEB81FC81EE15FF0564F460912101E1
:102780008B819C810E947C1E8B819C8101969C8305
:102790008B83EFCFF1E0FA8302CE80E178120BC099
:1027A0008DED90E105C0F71508F4C9CD8BEA90E1F5
:1027B0000E941F25C2CD871560F09EE0791203C0EC
:1027C00089E591E1B8CDEFE07E12FBCE85E491E1A1
:1027D0008BCFF2E17F12E7CF8DE690E1E9CFF9816F
:1027E000EF2FF0E0FC83EB83E12EF12C8B819C81B9
:1027F0008E159F050CF0D1CD609121018B819C81BC
:102800000E94A01E2B813C812F5F3F4F3C832B8376
:10281000EDCF0E94FF2EE2E68E9FC0011124092F0A
:10282000112707FD1A95F801ED54FD4F9081809115
:102830002101892309F444CE0E94FF2E81FF04C0A8
:1028400020E040E060E013C00E94FF2E89830E94D8
:10285000FF2EF0E88F9FC00111247FE7790F698177
:1028600080916C080E947D2D462F282F672FC8016C
:102870000E946A1120916D0830E1230F08F42FEFB8
:1028800060E1822F90E00E946E2FBC0184EF91E006
:102890000E9441308091650890916608A091670878
:1028A000B0916808860F971FA11DB11D80934F033B
:1028B00090935003A0935103B093520301CE36E19D
:1028C000731203C081E291E1FCCE371508F449C0D0
:1028D00020912001220F220F29832C5F2B83233686
:1028E00010F032E63B8300916B0810916C08F09079
:1028F0006A0860916D086695669566958091650891
:10290000909166080E946E2F0E94DE2E805887FDEF
:102910008195880F682F2CE0629F612D11246F0D27
:10292000702F812F0E947D2D162F072FF82EE98101
:10293000FB81EF1708F031CE8981E82FF0E0DF014D
:10294000AD54BD4F8C9190912101982331F02F2DE2
:10295000412F602FCF010E946A1199819F5F998357
:10296000E6CF8CE590E1ADCE80912201882329F05D
:1029700040E060E080E00E940B1180912001880F10
:10298000880F8C5F8983409165085091660860913B
:102990006708709168088091A7049091A804A0919D
:1029A000A904B091AA0484179507A607B70708F0F1
:1029B0009CC060916A0870916B0880916C080E94BD
:1029C0007D2D662E572E482E0DE714E025E931E0C7
:1029D0003C832B833FEE832E31E0932EAB80BC8073
:1029E0006801E12CF12CF6018081EB81FC81EE0D78
:1029F000FF1D882369F08081242D462D652D90E0F0
:102A00000E946A11F5018685242D462D652D0CC086
:102A1000808120E040E060E090E00E946A11F501D2
:102A2000868520E040E060E090E00E946A11F601B7
:102A3000818181936F01FFEFEF1AFF0A21E0A21A53
:102A4000B10836E0E316F10471F6F8018681EB81F6
:102A5000FC81882371F08681242D462D652D90E020
:102A60000E946A11EB81FC818085242D462D652D05
:102A70000DC0868120E040E060E090E00E946A1195
:102A8000EB81FC81808520E040E060E090E00E94E6
:102A90006A110E94FF2E837091E009F090E0F80126
:102AA0009683095F1F4F2B813C81215F3F4F3C8301
:102AB0002B838216930609F091CF0E940E1100918C
:102AC0006508109166082091670830916808DC015C
:102AD000CB01800F911FA21FB31F8093A704909377
:102AE000A804A093A904B093AA0431E03A83898191
:102AF000823608F457CCF9CC4091790450917A048D
:102B000060917B0470917C048091650890916608C7
:102B1000A0916708B091680884179507A607B707C2
:102B200008F4E3CC8091220181110CC08091200136
:102B3000880F880F8983082F0C5F033608F45AC06A
:102B400002E658C040E060E080E00E940B1103E51F
:102B500013E01C821B820E94FF2E81FF05C0F8013A
:102B600010821182128220C00E94FF2ED82E0E9455
:102B7000FF2EF0E88F9FC00111247FE7790FEB80D3
:102B8000FC80EE0CFF1C8B819C818E0D9F1D9C0197
:102B90002D5A3C4F79016D2D80916C080E947D2D3E
:102BA000F7016083718382832B813C812F5F3F4FCC
:102BB0003C832B830D5F1F4F2236310561F6B6CF64
:102BC0003981832F90E0FC01ED54FD4F308120913D
:102BD0002101232361F0FC01EE0FFF1FE80FF91F15
:102BE000ED5AFC4F2281408161810E946A118981E6
:102BF0008F5F89839981901718F3E1E0EA830236A9
:102C000008F01A82023608F4CDCB20E010E0015023
:102C10001109822F90E080179107C4F4DC01AA0FFC
:102C2000BB1FA80FB91FAD5ABC4F0196FC01EE0F98
:102C3000FF1F8E0F9F1FFC01ED5AFC4FC080D180FB
:102C4000E280CD92DD92EC922F5FE3CF0E94FF2EC7
:102C50007801EE0CFF1C81FF09C00E0D1F1DF8014D
:102C6000ED5AFC4F10821182128218C00E94FF2E72
:102C700089830E94FF2EF0E88F9FC00111247FE717
:102C8000790F0E0D1F1D0D5A1C4F698180916C0824
:102C90000E947D2DF8016083718382830E940E1152
:102CA00000916508109166082091670830916808C6
:102CB000DC01CB01800F911FA21FB31F8093790409
:102CC00090937A04A0937B04B0937C046BCB8091A7
:102CD000650890916608A0916708B09168088827F8
:102CE0009C70AA27BB272AE0B695A795979587954C
:102CF0002A95D1F782309105A105B10571F0833095
:102D00009105A105B10569F040E00197A105B10564
:102D100011F060E008C064E102C044E160E080E0DE
:102D200003C044E164E184E10E940B1182E04CCBDA
:102D30002496E0E10C947330E9E6F8E085E28083C4
:102D40008091250190912601A09127018183928392
:102D5000A3838FE784838FEF858348E050E068E1A9
:102D600070E0CF010E94B3301092EA0408950895F4
:102D70008091380808951F920F920FB60F92112478
:102D80002F933F934F935F936F937F938F939F9373
:102D9000AF93BF93CF93DF93EF93FF93C091E9007D
:102DA000CF708091EC00D82FD17080FDD0E81092C8
:102DB000E9008091F000877F8093F00078940E9472
:102DC0004D261092E9008091F00088608093F00019
:102DD000CD2BCF70C093E900FF91EF91DF91CF91A0
:102DE000BF91AF919F918F917F916F915F914F9123
:102DF0003F912F910F900FBE0F901F901895E8ED07
:102E0000F0E080818E7F80831092E2001092DA00E1
:102E10001092E100A0EEB0E08C9181608C938081F3
:102E20008F77808319BCA7EDB0E08C918E7F8C9357
:102E300080818F7E80831092BB0408952091E400EE
:102E40003091E50095E64091EC00842F817040FFC1
:102E500023C08091E80080FD1DC080915B0888231D
:102E600099F0853099F08091EB0085FD11C040917B
:102E7000E4005091E5002417350729F3915011F033
:102E80009A01E1CF84E0089582E0089583E00895F7
:102E900081E0089580E008954091E80042FFDDCF91
:102EA000089580915D0887FF11C08091E80082FD40
:102EB00005C080915B088111F8CF11C08091E800B6
:102EC0008B770BC080915B08882349F08091E800E4
:102ED00080FFF8CF8091E8008E778093E800089516
:102EE000982F973068F59093E900981739F0709112
:102EF000EC002091ED005091F00003C0242F762FBC
:102F000050E021FD02C09F5FECCF3091EB003E7F8F
:102F10003093EB003091ED003D7F3093ED00309128
:102F2000EB0031603093EB007093EC002093ED00E8
:102F30005093F0002091EE0027FDE5CF80E008954A
:102F40008F708093E90081E00895A0E0B0E0EBEAA3
:102F5000F7E10C945F30C8EDD0E088818F7E8883E4
:102F6000E7EDF0E080818160808384E082BF81E0D2
:102F70008093BB0488818E7F888302EE10E0F80185
:102F800010821092DA0081EEC82ED12CF601108248
:102F900088818F77888388818068888388818F7D06
:102FA000888319BC10925B0810925C0810925A0832
:102FB0001092590890EEE92EF12CF70180818B7F59
:102FC000808388818160888342E060E080E00E94A5
:102FD0007017F60180818E7F8083F8018081816087
:102FE0008083808188608083F70180818E7F8083E9
:102FF000888180618883CDB7DEB7E8E00C947B30B0
:103000001F920F920FB60F9211242F933F934F935D
:103010005F936F937F938F939F93AF93BF93EF9340
:10302000FF938091E10082FF09C08091E20082FF5E
:1030300005C08091E1008B7F8093E1008091DA00F0
:1030400080FF2AC08091D80080FF26C08091DA00DE
:103050008E7F8093DA008091D90080FF18C080E1D4
:1030600089BD82E189BD09B400FEFDCF81E0809376
:103070005B088091BB0481110FC00E94FF160E9463
:10308000A5178091E20084608093E20005C019BC1E
:1030900010925B081092BB048091E10080FF17C082
:1030A0008091E20080FF13C08091E2008E7F8093C8
:1030B000E2008091E20080618093E2008091D8007C
:1030C00080628093D80019BC85E080935B08809172
:1030D000E10084FF30C08091E20084FF2CC080E1D9
:1030E00089BD82E189BD09B400FEFDCF8091D80081
:1030F0008F7D8093D8008091E1008F7E8093E100E6
:103100008091E2008F7E8093E2008091E2008160F6
:103110008093E20080915C08882311F084E007C06E
:103120008091E30087FD02C081E001C083E08093CD
:103130005B0880915B088091E10083FF27C080914C
:10314000E20083FF23C08091E100877F8093E1004C
:1031500082E080935B0810925C088091E1008E7F92
:103160008093E1008091E2008E7F8093E200809165
:10317000E20080618093E20042E060E080E00E9433
:1031800070178091F00088608093F000FF91EF91BC
:10319000BF91AF919F918F917F916F915F914F916F
:1031A0003F912F910F900FBE0F901F901895209177
:1031B0006308309164082617370748F061157105D8
:1031C00039F42091E8002E772093E80001C0B9017E
:1031D000FC0120E06115710579F180915B0888237D
:1031E000F1F18530F1F18091E80083FD3CC08091E0
:1031F000E80082FD2EC08091E80080FFEBCF209197
:10320000F3008091F20090E0922B6115710551F06E
:103210008830910538F421912093F10061507109B3
:103220000196F3CF21E0089709F020E08091E800B3
:103230008E778093E800CECF2111CFCF0AC0809146
:103240005B08882361F0853061F08091E80083FDA0
:103250000AC08091E80082FFF2CF80E0089582E00A
:10326000089583E0089581E008950F931F93CF930D
:10327000DF938B01EA0190915B08943079F58F70B0
:103280008093E9008FEF9091E800815095FD06C092
:1032900095ED9A95F1F700008111F5CF8091E80046
:1032A00085FF1CC00E941E17882361F08091E800F2
:1032B0008E778093E80012C0F80181918F0180938E
:1032C000F1002197209791F38091E80085FDF4CFDC
:1032D0008091E8008E778093E800E4CFDF91CF9172
:1032E0001F910F91089543E050E0BC0184E00E94DB
:1032F00035190895CF93DF93EC0180910B01811173
:1033000005C048E050E0BE0181E00BC08091B904E7
:1033100087FF03C040E284E002C048E081E050E063
:10332000BE010E94351980E2FE01A9E3B8E00190D8
:103330000D928A95E1F7DF91CF91089581E0809316
:10334000E00080E28093D8001092C9008FE19EE4F3
:103350000197F1F700C0000087E090EBDC0180935B
:10336000980890939908A0939A08B0939B089CE0C2
:1033700088E10FB6F894A895809360000FBE9093F3
:103380006000FFCF78941F920F920FB60F92112416
:103390008F939F93AF93BF938091B5049091B604A0
:1033A000A091B704B091B8040196A11DB11D8093FE
:1033B000B5049093B604A093B704B093B804BF913A
:1033C000AF919F918F910F900FBE0F901F90189506
:1033D0009C014FB7F8948091B5049091B604A091E8
:1033E000B704B091B8044FBF821B930B08952FB759
:1033F000F8946091B5047091B6048091B7049091EF
:10340000B8042FBF08952FB7F8948091B504909118
:10341000B604A091B704B091B8042FBF08951F92CD
:103420000F920FB60F9211248F939F93AF93BF9378
:103430008091B404811113C08091B5049091B604B9
:10344000A091B704B091B8044196A11DB11D80931D
:10345000B5049093B604A093B704B093B804BF9199
:10346000AF919F918F910F900FBE0F901F90189565
:1034700020910B012223C9F02091B90427FF15C028
:10348000262F2695269526952E31C8F4FC01E20FAD
:10349000F11D677081E090E001C0880F6A95EAF73E
:1034A00080959281892382830895FC01069622816A
:1034B000621301C012823196E817F907C1F7089527
:1034C00020910B012223C1F02091B90427FF14C0E1
:1034D000262F2695269526952E3130F5FC01E20FF4
:1034E000F11D677081E090E001C0880F6A95EAF7EE
:1034F0009281892B82830895FC0132962FEF30E070
:103500004191641789F02F3F19F4411101C0232F15
:103510003F5F3630A9F72F3F39F0FC01E20FF11D74
:1035200027FDFA95628308950895A3E0B0E0EBE9E2
:10353000FAE10C9465302091B2043091B30428175D
:103540003907A1F09093B3048093B204E091B004E2
:10355000F091B104309751F024E029839B838A8352
:103560000680F781E02DCE01019609952396E2E0D1
:103570000C948130A3E0B0E0E0ECFAE10C9465300B
:103580002091AE043091AF0428173907A1F0909331
:10359000AF048093AE04E091B004F091B104309791
:1035A00051F023E029839B838A830680F781E02DF5
:1035B000CE01019609952396E2E00C948130E091CA
:1035C000B004F091B104309729F00190F081E02D22
:1035D0000995089580E008950F931F93CF93DF938B
:1035E000C42FD22FFC0185818823B1F04093AD0414
:1035F0000E94031A9093AC048093AB0480E28C0F7A
:10360000883008F04DC0C77081E001C0880FCA95AE
:10361000EAF70E94EE2B44C08091AD04481330C0FD
:103620008091AB049091AC040E94E819883C91050C
:1036300038F510E21D0FCD17B9F080E28C0F8830FD
:1036400040F4C77081E001C0880FCA95EAF70E9474
:10365000E72B183010F581E09D2F977001C0880F7F
:103660009A95EAF70E94EE2B802F0E94932C183037
:10367000B8F4D77081E001C0880FDA95EAF70AC084
:1036800080E28C0F883060F4C77081E001C0880F41
:10369000CA95EAF70E94E72B03C0802F0E94932C63
:1036A000DF91CF911F910F910895CF93DF93C9E0E0
:1036B000D3E060E0CE010E94C3302196C11584E0C2
:1036C000D807B9F7DF91CF910895A0E0B0E0EBE61D
:1036D000FBE10C945B300EEF14E0C12CD12C912C4B
:1036E000812CE12CF12CC0E0D0E05601AE0CBF1CC7
:1036F000FE01EE0FFF1FEA0DFB1DE25DFD4F259160
:1037000034914C2F682D892D0E94C51D2196CF30F4
:10371000D10571F78EE1E80EF11C839486E08812E2
:10372000E2CFF8012591349141E060E0892D0E94BB
:10373000641DF80132962591349140E060E0892DB6
:103740000E94641D0C5F1F4F939484EBC80ED11C24
:1037500084E09812C5CFCDB7DEB7ECE00C9477309B
:10376000E9E6F8E0248130E1231B08F420E024831B
:103770008091EA0481608093EA040895E9E6F8E024
:10378000248130E1230F08F42FEF24838091EA0491
:1037900081608093EA040895A4E0B0E0E2EDFBE1EB
:1037A0000C9462308236910508F05BC0122F042F12
:1037B000F62EBC01660F771F660F771F625F7A4F88
:1037C00044E050E0CE0101960E948C302981822F86
:1037D000837090E0269526957A81372F3295330FA6
:1037E000330F307CE32FE22B272F26952695F22FDF
:1037F000F3702FE531E0829FA001839F500D929FCF
:10380000500D11249A01245B394FE20FF31FF0820F
:1038100072957F706B81E62FE295E07F4E2F472BEC
:10382000762F72957F70572F5370F901E40FF51FB3
:10383000008362956695669563707C81E72FEE0F35
:10384000EE0F4E2F462B572F529556955695537087
:10385000F901E40FF51F1083FC01E55BF94F21E04E
:1038600020832496E5E00C947E30FF920F931F9303
:10387000CF93DF93182F062FF42EC0E0D0E02F2D2A
:10388000402F612FCE010E94CC1B2196C236D1055C
:10389000B1F7CDB7DEB7E5E00C947E300F931F9300
:1038A000CF93DF9380914B06882309F44DC065ECDC
:1038B0008EEF0E94402660E08DEF0E944026C0E01F
:1038C000D0E004EB10E0CE01B8010E94E730809315
:1038D0000C0182E1FE01E45BF94FADE0B1E0019043
:1038E0000D928A95E1F724E630E043E150E06CE088
:1038F00071E080E60E942030892B31F56296C63552
:1039000081E0D80761F0C43BD105E9F665EC8EEFA4
:103910000E94402661E08DEF0E944026D4CF82EACB
:1039200080930C0189E0E2EAF7E0ADE0B1E00190BC
:103930000D928A95E1F724E630E04AE050E06CE031
:1039400071E080E60E94203010924B06DF91CF910B
:103950001F910F910895A4E0B0E0E1EBFCE10C941D
:103960005F300E94782F65EC8EEF0E94402664E065
:103970008DEF0E94402661E080E00E9440266FEFBC
:1039800081E00E94402667E782E00E9440268FE3A4
:103990009CE90197F1F700C000000EE015E02FE56B
:1039A000E22EFF24F394DD24DA94CC24C39444E083
:1039B00050E0B801CE0101960E948C302981822FFF
:1039C000837090E0269526956A81362F3295330FC5
:1039D000330F307CE32FE22B262F26952695F22FEE
:1039E000F3708E9D90018F9D300D9E9D300D1124A2
:1039F000A90145515B4FE40FF51FD082762F7295D8
:103A00007F706B81E62FE295E07F2E2F272B762F9C
:103A100072957F70372F3370FA01E20FF31FD08257
:103A200062956695669563707C81E72FEE0FEE0FC9
:103A30002E2F262B372F3295369536953370FA0177
:103A4000E20FF31FD082FC01E65BF94FC0820C5FEE
:103A50001F4F96E00639190709F0A9CF80914A0651
:103A6000882371F165EC8EEF0E94402662E08DEFB5
:103A70000E9440269BEEE92E94E0F92E10E0F7011B
:103A800061917F01812F0E9440261F5F143BB9F78F
:103A900065EC8EEF0E94402663E08DEF0E94402689
:103AA0008FE9E82E85E0F82E10E0F70161917F01A3
:103AB000812F0E9440261F5F1B3AB9F710924A06D9
:103AC0002496E8E00C947B300F931F93CF93DF9301
:103AD000843010F5611120C094E0899FE001112429
:103AE000C750DD4F411103C082E090E002C080E08A
:103AF00090E0632F022F142F8C0F9D1F0E94C33064
:103B0000111103C083E090E002C081E090E0602FDB
:103B10008C0F9D1F0E94C330DF91CF911F910F9199
:103B20000895FF920F931F93CF93DF93843030F566
:103B3000611124C024E0829F8001112407501D4F91
:103B4000411103C082E090E002C080E090E0F42EDA
:103B5000800F911F0E94A53090E0D82FCC27F11044
:103B600003C083E090E002C081E090E0800F911FED
:103B70000E94A5309E01282BC90102C080E090E080
:103B8000CDB7DEB7E5E00C947E301F93CF93DF9383
:103B9000962F8430E8F46630D8F44F30C8F4632FA1
:103BA000122FC42FD0E0CC0FDD1F2EE1929FC00D4D
:103BB000D11D112494EB899FC00DD11D1124CE017C
:103BC00089960E94C330612FCE018A960E94C3302D
:103BD000DF91CF911F9108950F931F93CF93DF93A0
:103BE000843008F56630F8F44F30E8F4C42FD0E0A4
:103BF000CC0FDD1F2EE1629FC00DD11D112434EBCF
:103C0000839FC00DD11D1124CE0189960E94A5303D
:103C100090E0182F0027CE018A960E94A5309801C7
:103C2000282BC90102C080E090E0DF91CF911F9165
:103C30000F9108958091AC07882349F08091AB07DC
:103C40008D7D8093AB070E94FB221092AC070895F4
:103C500088E290E00E94C3300895CF93C82F81116D
:103C600002C06FEF01C063E285E290E00E94C330C2
:103C7000C11102C06FEF01C069E086E290E00E94CE
:103C8000C330C11102C06FEF01C063E287E290E070
:103C90000E94C330CF91089580E00E942D1E60E005
:103CA00070E0CB010E94281E0E94651B0E94551BDC
:103CB00081E00E942D1E089585E290E00E94A530CB
:103CC000833281F486E290E00E94A530893051F47D
:103CD00087E290E00E94A53091E0833209F090E005
:103CE000892F01C080E081700895882311F0FA01C6
:103CF00001C0FB01099508951F93CF93DF93FC0149
:103D0000ED54FD4F20816223B9F0EC010E94FF2E9B
:103D1000182F0E94FF2E20E8829FC00111247FE708
:103D2000790F612F80916C080E947D2D462F282FDE
:103D3000672FCE010E946A11DF91CF911F910895E4
:103D4000A0E0B0E0E6EAFEE10C946030EC01FC019A
:103D5000ED54FD4F9081692349F1D0906B0800919B
:103D60006C0810916A08E12EF12C0E94FF2E282F7A
:103D7000C7018C549F4F68E671E00E94E7308E19AE
:103D80009F0997FD0396959587959595879523703F
:103D9000612F289F600D11247D2D802F0E947D2D85
:103DA000462F282F672FCE010E946A11CDB7DEB7AC
:103DB000E7E00C947C3090916908937071F08093E7
:103DC0006A0860936B08493C08F048EC40936C0823
:103DD0008091EA04282B2093EA040895E9E6F8E0AC
:103DE000438120E1421B08F440E0818121E06281AF
:103DF00090E00E94DB1E0895E9E6F8E0438120E1AF
:103E0000420F08F44FEF818121E0628190E00E942F
:103E1000DB1E0895E9E6F8E0628120E1621B08F408
:103E200060E0818121E0438190E00E94DB1E0895E3
:103E3000E9E6F8E0628120E1620F08F46FEF81812A
:103E400021E0438190E00E94DB1E0895E9E6F8E05E
:103E5000818190E021E04381628108970E94DB1E0E
:103E60000895E9E6F8E0818190E021E043816281F4
:103E700008960E94DB1E0895909169089370A1F046
:103E8000811102C0946007C08B3110F0986603C0A6
:103E9000880F880F982B9093690810920A018091DF
:103EA000EA04682B6093EA04089580916908869576
:103EB0008695815009F48AE161E00E943C1F0895D3
:103EC00080916908869586958F5F8B3108F081E037
:103ED00061E00E943C1F08954F925F926F927F9223
:103EE0008F929F92AF92BF92CF92DF92EF92FF920A
:103EF000CF938091E5049091E604A091E704B091FE
:103F0000E8042FB7F894C090B504D090B604E090C0
:103F1000B704F090B8042FBFC81AD90AEA0AFB0AFE
:103F20000E94F7194B015C016093E5047093E6046D
:103F30008093E7049093E804A091BC04ECEBF4E0D8
:103F40008A2F90E04FEF5FEF60E070E04C195D0961
:103F50006E097F09A91799F0218D328D2901612CF5
:103F6000712C441555056605770510F4815004C081
:103F70002C0D3D1D328F218F9F5F3296EBCF8093AA
:103F8000BC048091E904811108C0C09169088C2F9C
:103F9000837019F0C695C69501C0C0E080910A01F2
:103FA000813091F028F0823009F1833061F156C000
:103FB000109220018092650890926608A09267088E
:103FC000B092680881E01CC08C2F0E946D11CC2338
:103FD00009F444C00E94DF1A81FF40C02FEF4FEF69
:103FE0006FEF8DE290E00E946A1138C0C093090122
:103FF000809169088370809308010E944E1C83E0C1
:1040000080930A012BC08091EA04882351F048E094
:1040100050E068E170E089E698E00E94B3301092C9
:10402000EA044091650850916608609167087091B4
:1040300068082FB7F8948091B5049091B604A091C8
:10404000B704B091B8042FBF841B950BA60BB70B18
:104050004A97A105B10510F010920A01CF91FF9087
:10406000EF90DF90CF90BF90AF909F908F907F9018
:104070006F905F904F90089580E008959091B904FB
:1040800092FF0DC0282F2871283019F4877F846093
:1040900006C0282F2471243011F48B7F886093FF91
:1040A0000DC0282F2871283119F4877E846106C03D
:1040B000282F2471243111F48B7E88612091BA0459
:1040C00020FF0DC0382F3871383019F4877F816098
:1040D00006C0382F3171313011F48E7F886021FF96
:1040E0000DC0282F2871283119F4877E816106C000
:1040F000282F2171213111F48E7E886194FD877EF5
:1041000008958238910569F1B0F48133910509F47D
:1041100075C048F48932910509F467C08A32910567
:1041200009F471C008958533910509F459C08933A4
:104130009105B9F00895833E910589F138F4803EE8
:104140009105D1F0823E910529F10895863E9105B1
:10415000C9F1873E9105D9F1843E910509F06CC003
:1041600027C02091B90420FD57C021FD55C02091E2
:10417000BA0423FD5BC008958091B90480FD48C056
:104180008091BA0480FF48C08091B90484FD46C084
:1041900083EE51C08091B90482FF3CC0F5CF80917D
:1041A000B90482FD37C08091BA0480FD35C0ECCFE0
:1041B0008091BA0481FF36C08091B90484FD2EC07D
:1041C00087EE39C08091B90483FF2AC0F5CF809172
:1041D000B90483FD25C08091BA0481FD23C0ECCFD2
:1041E0008091B90485FD22C01FC08091B90485FD6E
:1041F0001BC08091BA0483FF19C00AC08091B90422
:1042000086FD16C017C08091B90486FD13C010C08A
:1042100089E311C082EE0FC080EE0DC080E00BC0BC
:1042200086EE09C084EE07C085E305C089E203C0BD
:104230008AE201C081E390E00895F894E82FE295C6
:10424000EF70F0E031A1282F2F7081E090E001C0E5
:10425000880F2A95EAF7982F9095932391A392A11E
:10426000892B82A378940895462F672F763038F4EF
:104270004F30B8F48430A8F40E94EC1D08957D3FBF
:1042800031F441110EC0843060F441E006C07C3F3F
:1042900041F4411106C0843020F460E00E94911D79
:1042A000089580E090E008951F93CF93DF930E94DC
:1042B0008120EC01C11580E5D807E8F5C11590E42F
:1042C000D90708F0A8C0C03ED10530F5CD3CD105D6
:1042D00008F094C0C83AD10578F4C53AD10508F081
:1042E00083C0C130D10509F47CC008F4F2C0C430E9
:1042F000D10508F0F1C0EDC0C33CD10508F0E9C01C
:10430000C85AD0E0CC0FDD1FC05BDE4F0990D881CA
:10431000C02DCE019464E1C0C11580E2D80708F039
:10432000CBC0C11591E0D90708F06BC0C83ED105DC
:1043300008F4D2C0CEC0C03682E5D80728F5C03414
:1043400092E5D90708F079C0C03282E5D80708F0B5
:104350006CC0C11592E5D90708F481C04C2F469571
:10436000469580E2489FA0011124C37021E030E00F
:10437000C90102C0880F991FCA95E2F7EA01C82B4C
:10438000D92BCE019D68A9C0C03A82E5D807B8F400
:104390008C2F8F71C03892E5D90708F07BC08695C5
:1043A000869590E2899F90011124C37081E090E08E
:1043B00002C0880F991FCA95E2F79A6868C0C03C8E
:1043C00082E5D80708F46DC0C03E92E5D90708F031
:1043D00080C0CF71DD27DC2FCC27CE01806F906AA3
:1043E0007CC081E090E079C0C55AD0E0C35BDE4F6D
:1043F0008881C82FD0E0CE0190646FC0CE01906557
:104400006CC08D2F0E943E20182FCE0199270E944C
:1044100081201F715CC0CE0199270E948120CC278A
:10442000DF70D06A8C2B9D2B58C0CF71D0E0DC2F71
:10443000CC27CE01816F906A50C08C2F8F718695EA
:10444000869590E2899F90011124C37081E090E0ED
:1044500002C0880F991FCA95E2F79C6818C08C2F7C
:104460008F710E943E2095E0D695C7959A95E1F709
:10447000CF70D0E0DC2FCC27282F30E084FF05C0A0
:1044800084E0220F331F8A95E1F7D069CE01822B99
:10449000932B23C090E0D82FCC27CE01846F906A55
:1044A0001CC08C2F8F710E943E208F7190E0D82FFE
:1044B000CC27CE01906211C08D2F8F710E943E20BB
:1044C000182FCE0199270E9481201F719062912B95
:1044D00004C080E090E001C0CE01DF91CF911F9138
:1044E000089580E090E00E94AD30863E9E4F19F422
:1044F0000E945C1E089580E00895A8E0B0E0E3E823
:10450000F2E20C94653066EE7EEF80E090E00E946F
:10451000E13060E082E090E00E94C33060E083E040
:1045200090E00E94C3301092310860E074E184E0B2
:1045300090E00E94E13060E086E090E00E94C330AD
:104540006FEF87E090E00E94C33040E050E0BA0196
:1045500088E090E00E94D53060E084E290E00E9424
:10456000C33060E087E190E00E94C33060E08CE0FF
:1045700090E00E94C33060E08DE090E00E94C33084
:1045800019821A821B821C821D821E821F8218863B
:1045900048E050E068E170E0CE0101960E94B3303F
:1045A00040E050E0BA0180E290E00E94D53080E027
:1045B0000E942D1E0E944C1E40E050E0BA018FE088
:1045C00090E00E94D53040E050E0BA0183E190E0F5
:1045D0000E94D5302896E2E00C948130809130081A
:1045E0008111109230080895809590912F088923A9
:1045F00080932F08089590912F088091AB07982BF6
:104600009093AD07809130088823D9F0892B80934F
:10461000AD0780910B01882331F08091B90487FFA9
:1046200002C08EE101C086E0EFEAF7E090E0815041
:1046300028F021912223D9F39F5FF9CF91110E9495
:10464000EE2240E250E06FE078E08DEA97E00E94D1
:104650000831892B21F180E2EDEAF7E0AFE0B8E024
:1046600001900D928A95E1F7E091B004F091B104C8
:104670003097A9F080910B01882359F08091B904FB
:1046800087FF07C08091AD078093AE0786E08093D7
:10469000AD070280F381E02D8DEA97E0099508953A
:1046A00090910E088095892380930E08282F2770FB
:1046B00069F4981759F09091BA0492FF07C0869553
:1046C000869586950E94AB2B10920E0808959091C6
:1046D000BA0492FB222720F9281779F080FB92F97F
:1046E0009093BA046091B9047091BA0484E090E0A8
:1046F0000E94E13082E00E945023089520910D082D
:104700009091D40757E02917A9F030E0529FF001AB
:10471000539FF00D1124EB52F84F7181761306C0B0
:104720007081781303C07581741306C02F5F3F4FEB
:104730002770E9CF80E0089581E0089580910D0809
:104740009091D407891719F08F5F8770FBCF089578
:10475000CF93DF938091D30782958F7009F04EC07D
:104760008091D207882309F449C080910D084091B7
:10477000D4075091CE076091CD07C091CF07D0915B
:10478000D00777E08417D1F190E0789FF001799F0E
:10479000F00D1124DF01AB52B84F14962C911497F1
:1047A000222349F111962C911197251324C02C91A5
:1047B000261321C015962C91159721111CC0129615
:1047C0002D913C9113972C1B3D0B283C310598F4FF
:1047D0008091D3078F7080618093D307E552F84FA3
:1047E00080818F70806180838DEC97E00E94B5049A
:1047F0000E949E2303C001968770C4CFDF91CF91A2
:104800000895A6E0B0E0E7E0F4E20C9463300E9483
:10481000031A8C0180913208909133080817190708
:1048200081F019821A820E94031A682F49815A81E5
:10483000792F80E090E00E94D72C109333080093EA
:1048400032082696E4E00C947F30ACE0B0E0EBE276
:10485000F4E20C945930AE014F5F5F4F7A018CE067
:10486000FA0111928A95E9F708E211E06A019EE2E5
:10487000692E91E0792E88248394912CF80180810F
:104880008F3F09F447C0F894E82FE295EF70F0E00D
:1048900021A18F70A40102C0440F551F8A95E2F731
:1048A000CA01922F982B91A392A18095892382A36C
:1048B000789400C0EEE2F1E021E030E0A12CB12CD0
:1048C00041914F3F89F0A42FA295AF70B0E0909630
:1048D0008C9190E04F7002C0959587954A95E2F7CC
:1048E00080FD02C0C90102C080E090E0A82AB92A78
:1048F000220F331F51E0ED33F50711F7F8018081E6
:104900008F3F11F00E941D21F0EAFA95F1F7F601B0
:10491000B182A0820F5F1F4FF2E0CF0ED11C601654
:10492000710609F0ABCF4CE050E0B70182E293E0B2
:104930000E940831892B89F08CE0F701A2E2B3E0F4
:1049400001900D928A95E1F781E0809336080E94EC
:10495000031A9093350880933408809136088111AA
:1049600002C080E020C080913408909135080E94F8
:10497000E8190397B0F34CE050E062E273E083E49F
:1049800093E00E940831892B59F08CE0E2E2F3E0D9
:10499000A3E4B3E001900D928A95E1F781E001C0B4
:1049A00080E0109236082C96EEE00C947530A0E072
:1049B000B0E0EDEDF4E20C9460308C01C091200188
:1049C000CC0FCC0FD4E0DC0FD33608F0D2E66091E8
:1049D0006D086695669521E0620F08F46FEF80918F
:1049E0006508909166080E946E2FD82ECD17F0F4BE
:1049F000EC2EF12CF701ED54FD4F908180912101B7
:104A0000892391F060916A0870916B0880916C081D
:104A10002D2D4C2FF80109950E947D2D462F282F12
:104A2000672FC7010E946A11CF5FE0CF81E0D236C5
:104A300008F080E0CDB7DEB7E7E00C947C30A0E072
:104A4000B0E0E5E2F5E20C945C306C01C09120012D
:104A5000CC0FCC0FD4E0DC0FD33608F0D2E6609157
:104A60006D086695669580916508909166080E942C
:104A70006E2F182F80E4810F0E94DE2E90E8F92E11
:104A8000F80E812F0E94DE2E20E8922E980ECD1770
:104A900000F5AC2EB12CF501ED54FD4F90818091C5
:104AA00021018923A1F060916A0870916B088091BF
:104AB0006C08E12E0C2F292D4F2DF60109950E942F
:104AC0007D2D462F282F672FC5010E946A11CF5FC9
:104AD000DECF81E0D23608F080E0CDB7DEB7EBE084
:104AE0000C9478306F927F928F929F92AF92BF9288
:104AF000CF92DF92EF920F931F93CF93DF933C01FE
:104B0000C0912001CC0FCC0FD4E0DC0FD33608F0DD
:104B1000D2E660916D08669580916508909166086F
:104B20000E946E2F182FCD1708F044C08C2E912CA8
:104B3000F401ED54FD4F9081809121018923C1F151
:104B4000F401EE0FFF1FE151FE4FC080D12C80E732
:104B5000C81AD108F401EE0FFF1FE051FE4FA080EC
:104B6000B12CE0E2AE1AB108CC9C9001CD9C300D86
:104B7000300D1124AA9CC001AB9C900D900D112406
:104B8000820F931F0E94142F082F60916A08709162
:104B90006B0880916C08E12E9501A601F30109953F
:104BA0000E947D2D462F282F672FC4010E946A1175
:104BB000CF5FB9CF81E0D23608F080E0DF91CF91AE
:104BC0001F910F91EF90DF90CF90BF90AF909F908B
:104BD0008F907F906F900895A0E0B0E0E2EFF5E253
:104BE0000C945F306C01C0912001CC0FCC0FD4E04D
:104BF000DC0FD33608F0D2E660916D08669580919F
:104C00006508909166080E946E2F182FCD1778F5D1
:104C1000EC2EF12CF701ED54FD4F90818091210194
:104C2000892319F1F701EE0FFF1FE051FE4F20819C
:104C300030E020523109F701EE0FFF1FE151FE4F26
:104C4000408150E04057510960916A0870916B08AB
:104C500080916C08012FF60109950E947D2D462F49
:104C6000282F672FC7010E946A11CF5FCFCF81E045
:104C7000D23608F080E0CDB7DEB7E8E00C947B30A8
:104C8000ECE0F1E08083618324E630E042E050E034
:104C9000BF0180E60E9420300895AAE2B0E0E3E57B
:104CA000F6E20C946430EDE5F8E085E698E02091BA
:104CB000F10021938E179F07D1F780915E08833012
:104CC00009F463C030F4813071F0823009F49DC082
:104CD000B4C08A3009F489C08B3009F46EC08930C1
:104CE00009F0ABC020C080915D08813A09F0A5C0F1
:104CF0008091E800877F8093E8008091610890911F
:104D00006208892B21F460E289E398E003C060E047
:104D100080E090E070E00E94D7188091E8008B77E7
:104D20008093E8008AC080915D08813209F085C0D7
:104D30008091610890916208009719F0029709F03C
:104D40007CC08091E800877F8093E8008091E80034
:104D500082FD05C080915B088111F8CF6EC0209163
:104D6000F3008091F20090E0922B029731F4809151
:104D7000F100813011F0863021F48091F1008093B0
:104D800038088091E8008B7754C080915D08813AA3
:104D900009F053C08091610890916208892B09F055
:104DA0004CC08091E800877F8093E8008091E80004
:104DB00080FFFCCF80910B0137C080915D0881326C
:104DC000E1F58091610890916208892BB1F580919D
:104DD000E800877F8093E8000E94511780915F0868
:104DE00080930B010E94C72B28C080915D088132FF
:104DF00021F58091E800877F8093E8000E94511799
:104E0000809160088093370818C080915D08813ACE
:104E1000A1F48091E800877F8093E8008091E8000A
:104E200080FFFCCF809137088093F1008091E800EB
:104E30008E778093E8000E9451178091E80083FFED
:104E4000DFC180915D0890915E08492F50E04A30A3
:104E5000510508F0D5C1FA01EB54FF4F0C94FB301B
:104E6000803821F0823809F0CBC108C08091590800
:104E700090915A08992389F082600FC0809161084F
:104E80008F70873008F0BCC18093E9008091EB00FF
:104E900085FB882780F91092E9009091E800977FC0
:104EA0009093E8008093F1001092F10070C1282FD8
:104EB0002D7F09F0A5C1882319F0823061F0A0C1CF
:104EC00080915F08813009F09BC1933009F080E048
:104ED00080935A082EC080915F0881112AC080916A
:104EE00061088F702FEF280F263008F089C180935A
:104EF000E9002091EB0020FF1CC0933021F4809149
:104F0000EB00806214C09091EB0090619093EB00F5
:104F100021E030E0A90102C0440F551F8A95E2F755
:104F20004093EA001092EA008091EB008860809341
:104F3000EB001092E9008091E800877F8093E80001
:104F40000E9451175DC181115BC110915F081F77ED
:104F50008091E3008078812B8093E3008091E800CA
:104F6000877F8093E8000E9451178091E80080FFBE
:104F7000FCCF8091E30080688093E300111102C0B0
:104F800082E001C083E080935B083AC180588230A0
:104F900008F036C120915F08309160082C3D53E045
:104FA000350779F583E08A838AE289834FB7F894DD
:104FB000DE01139620E03EE051E2E32FF0E0509353
:104FC0005700E49120FF03C0E295EF703F5FEF7060
:104FD0008E2F90E0EA3010F0C79601C0C0968D93F6
:104FE0009D932F5F243149F74FBF8091E800877F61
:104FF0008093E8006AE270E0CE0101960E94D71823
:10500000B4C08091610890916208432F55274330C6
:105010005105A9F068F44130510509F400C142304E
:10502000510509F0EDC08BE590E0E5E6F7E04BC0F7
:105030004132510529F14232510589F1E1C0C901DE
:10504000992781309105A1F058F0029709F0D8C056
:10505000E2EDF7E0E4918E2F90E0E2EDF7E030C072
:10506000E2EFF7E0E4918E2F90E0E2EFF7E028C066
:10507000E8EEF7E0E4918E2F90E0E8EEF7E020C054
:105080008330910508F0BCC0880F991FFC01E157DF
:10509000FE4F0190F081E02D89E090E014C0833054
:1050A000910508F0ADC0FC01EE0FFF1FE757FE4F62
:1050B0000190F081E02DDC01AA57BE4F8C9190E069
:1050C000009709F49DC02091E800277F2093E80015
:1050D00020916308309164082817390708F4C90142
:1050E00040E0009789F120915B08222309F43DC03C
:1050F0002530D9F12091E80023FD37C02091E80048
:1051000022FD2FC02091E80020FFEBCF4091F3005B
:105110002091F20030E0342B009759F0283031050F
:1051200040F444914093F100319601972F5F3F4F37
:10513000F3CF41E02830310509F040E02091E8004C
:105140002E772093E800CDCF4111CDCF0AC08091BA
:105150005B08882351F0853041F08091E80083FDA1
:1051600004C08091E80082FFF2CF8091E8008B7745
:105170008093E80045C0803809F042C08091E80083
:10518000877F8093E80080915C088093F100809194
:10519000E8008E77D3CE811133C080915F08909163
:1051A00060089927029764F58091E800877F8093D3
:1051B000E80010915F0810935C080E9451171111CC
:1051C00006C08091E30087FD02C081E001C084E059
:1051D00080935B0842E061EC81E00E94701742E23C
:1051E00061EC84E00E94701742E261EC82E00E9470
:1051F000701742E260EC83E00E94701780915B08B8
:105200008091E80083FF10C08091E800877F809341
:10521000E8008091EB0080628093EB0005C082E1A2
:1052200090E0E0ECF7E04FCFAA96E3E00C948030FA
:105230009B01782F777043E0969587954A95E1F723
:10524000FC01EE0FFF1F8E0F9F1FF901E80FF91FE2
:1052500040E050E080E0219130E0072E02C036951A
:1052600027950A94E2F721703327042E01C0220FFC
:105270000A94EAF7822B4F5F5F4F4330510559F78D
:105280000895962F9770A1E001C0AA0F9A95EAF7AA
:1052900093E0769567959A95E1F7FB01EE0FFF1F76
:1052A0006E0F7F1FFA01E60FF71F40E050E0682FF6
:1052B00070E090819B01042E02C0369527950A94D8
:1052C000E2F72170219529272A23292721934F5F6F
:1052D0005F4F4330510569F70895CF92DF92FF92F7
:1052E0000F931F93CF93DF936C0100912E03809156
:1052F0003108082BC3E0D0E010E0C8010C2E02C03A
:10530000959587950A94E2F780FD04C02197A8F748
:10531000F12C09C0FC2EB6018C2F0E9434210E9472
:105320005421019799F38F2DDF91CF911F910F9108
:10533000FF90DF90CF900895CF93DF93EC010E9410
:105340006D29BE010E9434210E945421DF91CF912A
:105350000895FC0124812223D9F0808191810E944B
:105360009C2992959F70963079F010F4925001C06C
:105370009A50923068F4803F69F018F4883E40F407
:1053800009C0843F29F406C0883E20F0813F11F017
:1053900080E0089581E00895A4E1B0E0E2EDF9E253
:1053A0000C945B308C0186E0F801DE011F960190C1
:1053B0000D928A95E1F7F8018481E5809DEC892EB4
:1053C00097E0992E9091D107911120C0882309F47C
:1053D00063C1EE2009F442C0C8010E94A929F82E39
:1053E0008823E1F187E0F801D40101900D928A95BC
:1053F000E1F78091D107813031F48091CD07909110
:10540000CE070E949C290E94A82348C1F801D080A1
:10541000C180A280B380F090D2072091CF07309155
:10542000D007FF2009F4E7C0A501421B530B483CFD
:10543000510508F09DC0882309F430C18091D3073D
:10544000282F207F9091CE07222361F09C1509F42C
:1054500060C0C8010E94A929811163C0C8010E94CF
:10546000B5041AC19C1113C09091CD079D110FC0B6
:10547000E1100DC08F7080618093D3078DEC97E0B1
:105480000E94B5048091D307F801868303C1E1101F
:105490003AC040E06C2D8D2D0E947E2340E06C2DA3
:1054A0008D2D0E947E23E82E8111F4C0DF86C88AEC
:1054B0008F8598890E949C29292F22952F7024304E
:1054C00020F49F70223028F009C02A50223080F04A
:1054D00014C0992349F0811107C013C0992321F00A
:1054E000F8019681907F69F0805E883030F409C0C1
:1054F000803F38F0815F833020F0C8010E94B504FE
:10550000EF2CFE2CCBC08091D30781608093D30712
:10551000C1C09091CD079D119CCFE1109ACFF801A9
:1055200098C0EE2009F49ACF2091D307822F82955C
:105530008F7090E002978CF08091CD079091CE070C
:1055400099878887BB86AA868091D1078C871D861C
:105550002E87CE0108960E94B50487E0F801ADECD5
:10556000B7E001900D928A95E1F70E94A82394C0BC
:105570009091D307292F207F51F48DEC97E00E9462
:10558000B50487E0F40111928A95E9F783C0882376
:1055900009F484C08091CE078C110CC08091CD0796
:1055A0008D1108C0E11006C0F8019683C8010E9461
:1055B000B5046AC0C8010E94A929882309F44ECF06
:1055C000EE2009F44BCF2091D307822F82958F7064
:1055D00090E0029714F28091CD079091CE079A83C4
:1055E0008983BC82AB828091D1078D831E822F83F9
:1055F000CE010196B0CFA21AB30AF8ECAF16B104EF
:1056000008F042C0882309F447C0FE2CEE2009F4BC
:1056100025CF8091CE078C1129C08091CD078D11A7
:1056200025C09091D30790FD18C0892F82958F7067
:10563000282F30E02115310581F0F80196832F30B5
:10564000310541F08F5F982F9295907F86818F7002
:10565000892B8683C8010E94B50487E0F801ADEC70
:10566000B7E001900D928A95E1F718C0C8010E9439
:10567000A929811172CF8091D30781608093D307CC
:10568000C8010E94B5040AC087E0F40111928A950E
:10569000E9F704C0F12C02C0FF24F3948F2D649627
:1056A000ECE00C947730292F963058F48F3048F482
:1056B00090E064E778E03FE0239F800D911D112486
:1056C00006C02C5F223030F461E778E090E00E9461
:1056D0001829089580E00895282F862F963060F4C9
:1056E0002F3050F4622F70E02FE0929F600D711DFB
:1056F000112444E758E007C09C5F923030F4622FD9
:1057000070E041E758E00E944129089580932E03FC
:10571000089590912E0321E030E0F90101C0EE0FD1
:105720008A95EAF7D90102C0AA0FBB1F6A95E2F772
:10573000BD016E2B01C0220F4A95EAF7892F8623FF
:10574000681303C0892F822B03C02095822F8923E1
:105750000E94862B089521E030E001C0220F8A9537
:10576000EAF7209580912E0382230E94862B0895CC
:1057700021E030E001C0220F8A95EAF780912E03E4
:10578000822B0E94862B08958093310808951092F1
:105790002F0880910B01882331F08091B90487FF95
:1057A00002C08EE101C086E0EFEAF7E0DF011D9262
:1057B0008A95E9F780E090E00E94BA1A80E090E0D4
:1057C0000E94951A1092AB070E94FB22089588232D
:1057D00021F00E94F4220E94FB220895882339F0D0
:1057E00090912F08892B80932F080E94FB22089507
:1057F000882349F1682F8CEF860F813A28F48DEACF
:1058000097E00E94381A0CC080E2860F883058F466
:10581000677081E001C0880F6A95EAF70E94F42260
:105820000E94FB2208958BE5860F833028F480E0E8
:1058300090E00E94BA1A0895685A6B3120F480E013
:1058400090E00E94951A0895CF93882309F469C0C7
:10585000C82F8CEF8C0F813AC0F580910B01882303
:10586000E1F08091B90487FF18C0EC2FE695E6952A
:10587000E695F0E0E355F84F8281282F30E04C2F79
:10588000477081E090E002C0880F991F4A95E2F7C7
:1058900082239323892B61F412C0EFEAF7E085EBB2
:1058A00097E02191C21721F08E179F07D1F707C00B
:1058B0006C2F8DEA97E00E94381A0E94FB226C2F11
:1058C0008DEA97E00E94601A10C080E28C0F883049
:1058D00078F4C77081E090E001C0880FCA95EAF7BC
:1058E00090912F08892B80932F080E94FB2219C0CA
:1058F000EBE5EC0FE33040F4F0E0E35BFE4F80813A
:1059000090E00E94BA1A0DC0C85ACB3150F4EC2F67
:10591000F0E0EE0FFF1FE05BFE4F808191810E945F
:10592000951ACF9108951F93CF93DF93182F893342
:1059300019F0C0E0D0E002C0C0E5D0E0812F0E94A5
:10594000242C209741F08FE99FE00197F1F700C0E8
:1059500000002197F6CF812F0E94F82BDF91CF9185
:105960001F910895A6E0B0E0E8EBFCE20C946430EF
:1059700049835A8349815A81992361F0222351F046
:10598000CA010E946D29182F682F89819A810E946F
:105990006C2B04C0CA010E94532B182F69817A8195
:1059A000812F0E9434212696E3E00C948030ABE1F5
:1059B000B0E0EDEDFCE20C9463304E8B5F8B688FB2
:1059C000798F8A8F9B8F192F91111092AB07DE016F
:1059D0001F9687E0FD0111928A95E9F786E0FE01A6
:1059E000769601900D928A95E1F70A8D002341F099
:1059F00021E04F85588969897A89C8010E94B22CB3
:105A00000B8B1C8B87E0FE013F96DE011896019000
:105A10000D928A95E1F7CE0108960E94CC2981115A
:105A20002CC087E0FE013896DE01119601900D92A0
:105A30008A95E1F76C85662301F12091D40730E067
:105A4000C90101968770992740910D0850E084178D
:105A5000950761F16D8397E0929FD001939FB00D00
:105A60001124AB52B84FFE01319601900D929A95D8
:105A7000E1F78093D4070E949E2317E080910D08E0
:105A80009091D4078917F9F0189FC00111248B5207
:105A9000984F0E94CC298823B1F080910D0890E0A6
:105AA00001968770992780930D08E8CF0E94C72B35
:105AB0001092D40710920D08EDECF7E087E0DF01BB
:105AC0001D928A95E9F76B96E4E00C947F300E9472
:105AD000C72B2FEF84E39CE0215080409040E1F7FA
